{
  "contractName": "CouponFactory",
  "abi": [
    {
      "anonymous": false,
      "inputs": [
        {
          "components": [
            {
              "components": [
                {
                  "internalType": "string",
                  "name": "name",
                  "type": "string"
                },
                {
                  "internalType": "uint256",
                  "name": "id",
                  "type": "uint256"
                },
                {
                  "internalType": "uint256",
                  "name": "price",
                  "type": "uint256"
                },
                {
                  "internalType": "uint256",
                  "name": "stock",
                  "type": "uint256"
                },
                {
                  "internalType": "bool",
                  "name": "_exist",
                  "type": "bool"
                }
              ],
              "internalType": "struct CouponFactory.Product",
              "name": "purchasedProdcut",
              "type": "tuple"
            },
            {
              "internalType": "bool",
              "name": "notSpent",
              "type": "bool"
            },
            {
              "internalType": "address",
              "name": "id",
              "type": "address"
            }
          ],
          "indexed": false,
          "internalType": "struct CouponFactory.Consumer",
          "name": "consumer",
          "type": "tuple"
        },
        {
          "indexed": false,
          "internalType": "address",
          "name": "vendor",
          "type": "address"
        }
      ],
      "name": "consumerGetCoupon",
      "type": "event"
    },
    {
      "anonymous": false,
      "inputs": [
        {
          "indexed": false,
          "internalType": "string",
          "name": "name",
          "type": "string"
        },
        {
          "indexed": false,
          "internalType": "string",
          "name": "symbol",
          "type": "string"
        },
        {
          "indexed": false,
          "internalType": "uint256",
          "name": "totalSupply",
          "type": "uint256"
        },
        {
          "indexed": false,
          "internalType": "address",
          "name": "vendor",
          "type": "address"
        }
      ],
      "name": "couponCreate",
      "type": "event"
    },
    {
      "anonymous": false,
      "inputs": [
        {
          "components": [
            {
              "components": [
                {
                  "internalType": "string",
                  "name": "name",
                  "type": "string"
                },
                {
                  "internalType": "uint256",
                  "name": "id",
                  "type": "uint256"
                },
                {
                  "internalType": "uint256",
                  "name": "price",
                  "type": "uint256"
                },
                {
                  "internalType": "uint256",
                  "name": "stock",
                  "type": "uint256"
                },
                {
                  "internalType": "bool",
                  "name": "_exist",
                  "type": "bool"
                }
              ],
              "internalType": "struct CouponFactory.Product",
              "name": "purchasedProdcut",
              "type": "tuple"
            },
            {
              "internalType": "bool",
              "name": "notSpent",
              "type": "bool"
            },
            {
              "internalType": "address",
              "name": "id",
              "type": "address"
            }
          ],
          "indexed": false,
          "internalType": "struct CouponFactory.Consumer",
          "name": "consumer",
          "type": "tuple"
        },
        {
          "indexed": false,
          "internalType": "address",
          "name": "vendor",
          "type": "address"
        }
      ],
      "name": "couponUsed",
      "type": "event"
    },
    {
      "anonymous": false,
      "inputs": [
        {
          "indexed": false,
          "internalType": "uint256",
          "name": "id",
          "type": "uint256"
        },
        {
          "indexed": false,
          "internalType": "address",
          "name": "vendor",
          "type": "address"
        }
      ],
      "name": "productDeleted",
      "type": "event"
    },
    {
      "anonymous": false,
      "inputs": [
        {
          "components": [
            {
              "internalType": "string",
              "name": "name",
              "type": "string"
            },
            {
              "internalType": "uint256",
              "name": "id",
              "type": "uint256"
            },
            {
              "internalType": "uint256",
              "name": "price",
              "type": "uint256"
            },
            {
              "internalType": "uint256",
              "name": "stock",
              "type": "uint256"
            },
            {
              "internalType": "bool",
              "name": "_exist",
              "type": "bool"
            }
          ],
          "indexed": false,
          "internalType": "struct CouponFactory.Product",
          "name": "product",
          "type": "tuple"
        },
        {
          "indexed": false,
          "internalType": "address",
          "name": "vendor",
          "type": "address"
        }
      ],
      "name": "productSet",
      "type": "event"
    },
    {
      "inputs": [
        {
          "internalType": "string",
          "name": "_name",
          "type": "string"
        },
        {
          "internalType": "string",
          "name": "_symbol",
          "type": "string"
        },
        {
          "internalType": "uint256",
          "name": "_tokenSupply",
          "type": "uint256"
        }
      ],
      "name": "resetToken",
      "outputs": [],
      "stateMutability": "nonpayable",
      "type": "function"
    },
    {
      "inputs": [
        {
          "internalType": "string",
          "name": "_name",
          "type": "string"
        },
        {
          "internalType": "string",
          "name": "_symbol",
          "type": "string"
        },
        {
          "internalType": "uint256",
          "name": "_totalSupply",
          "type": "uint256"
        }
      ],
      "name": "createToken",
      "outputs": [],
      "stateMutability": "nonpayable",
      "type": "function"
    },
    {
      "inputs": [
        {
          "internalType": "string",
          "name": "vendorId",
          "type": "string"
        }
      ],
      "name": "getVendorAddress",
      "outputs": [
        {
          "internalType": "address",
          "name": "",
          "type": "address"
        }
      ],
      "stateMutability": "view",
      "type": "function"
    },
    {
      "inputs": [
        {
          "internalType": "address",
          "name": "_vendorAdrs",
          "type": "address"
        },
        {
          "internalType": "address",
          "name": "owner",
          "type": "address"
        }
      ],
      "name": "getBalance",
      "outputs": [
        {
          "internalType": "uint256",
          "name": "",
          "type": "uint256"
        }
      ],
      "stateMutability": "view",
      "type": "function"
    },
    {
      "inputs": [
        {
          "internalType": "address",
          "name": "_vendorAdrs",
          "type": "address"
        }
      ],
      "name": "getTokenInfo",
      "outputs": [
        {
          "internalType": "string",
          "name": "_name",
          "type": "string"
        },
        {
          "internalType": "string",
          "name": "_symbol",
          "type": "string"
        },
        {
          "internalType": "uint256",
          "name": "_totalSupply",
          "type": "uint256"
        }
      ],
      "stateMutability": "view",
      "type": "function"
    },
    {
      "inputs": [
        {
          "internalType": "address",
          "name": "_vendorAdrs",
          "type": "address"
        }
      ],
      "name": "checkVendorExist",
      "outputs": [
        {
          "internalType": "bool",
          "name": "",
          "type": "bool"
        }
      ],
      "stateMutability": "view",
      "type": "function"
    },
    {
      "inputs": [
        {
          "internalType": "uint256",
          "name": "id",
          "type": "uint256"
        }
      ],
      "name": "checkIdUsed",
      "outputs": [
        {
          "internalType": "bool",
          "name": "",
          "type": "bool"
        }
      ],
      "stateMutability": "view",
      "type": "function"
    },
    {
      "inputs": [
        {
          "internalType": "string",
          "name": "name",
          "type": "string"
        },
        {
          "internalType": "uint256",
          "name": "id",
          "type": "uint256"
        },
        {
          "internalType": "uint256",
          "name": "price",
          "type": "uint256"
        },
        {
          "internalType": "uint256",
          "name": "stock",
          "type": "uint256"
        }
      ],
      "name": "setProduct",
      "outputs": [],
      "stateMutability": "nonpayable",
      "type": "function"
    },
    {
      "inputs": [
        {
          "internalType": "address",
          "name": "_vendorAdrs",
          "type": "address"
        }
      ],
      "name": "getProductIDList",
      "outputs": [
        {
          "internalType": "uint256[]",
          "name": "",
          "type": "uint256[]"
        }
      ],
      "stateMutability": "view",
      "type": "function"
    },
    {
      "inputs": [
        {
          "internalType": "address",
          "name": "_vendorAdrs",
          "type": "address"
        }
      ],
      "name": "getProducts",
      "outputs": [
        {
          "components": [
            {
              "internalType": "string",
              "name": "name",
              "type": "string"
            },
            {
              "internalType": "uint256",
              "name": "id",
              "type": "uint256"
            },
            {
              "internalType": "uint256",
              "name": "price",
              "type": "uint256"
            },
            {
              "internalType": "uint256",
              "name": "stock",
              "type": "uint256"
            },
            {
              "internalType": "bool",
              "name": "_exist",
              "type": "bool"
            }
          ],
          "internalType": "struct CouponFactory.Product[]",
          "name": "products",
          "type": "tuple[]"
        }
      ],
      "stateMutability": "view",
      "type": "function"
    },
    {
      "inputs": [
        {
          "internalType": "uint256",
          "name": "id",
          "type": "uint256"
        },
        {
          "internalType": "address",
          "name": "_vendorAdrs",
          "type": "address"
        }
      ],
      "name": "checkProductExist",
      "outputs": [
        {
          "internalType": "bool",
          "name": "",
          "type": "bool"
        }
      ],
      "stateMutability": "view",
      "type": "function"
    },
    {
      "inputs": [
        {
          "internalType": "uint256",
          "name": "id",
          "type": "uint256"
        }
      ],
      "name": "deleteProduct",
      "outputs": [
        {
          "internalType": "bool",
          "name": "",
          "type": "bool"
        }
      ],
      "stateMutability": "nonpayable",
      "type": "function"
    },
    {
      "inputs": [
        {
          "internalType": "address",
          "name": "_vendorAdrs",
          "type": "address"
        },
        {
          "internalType": "address",
          "name": "_consumerAdrs",
          "type": "address"
        }
      ],
      "name": "getCoupon",
      "outputs": [
        {
          "internalType": "bool",
          "name": "",
          "type": "bool"
        }
      ],
      "stateMutability": "nonpayable",
      "type": "function"
    },
    {
      "inputs": [
        {
          "internalType": "address",
          "name": "_vendorAdrs",
          "type": "address"
        },
        {
          "internalType": "uint256",
          "name": "productId",
          "type": "uint256"
        }
      ],
      "name": "useCoupon",
      "outputs": [
        {
          "internalType": "bool",
          "name": "",
          "type": "bool"
        }
      ],
      "stateMutability": "nonpayable",
      "type": "function"
    }
  ],
  "bytecode": "0x608060405234801561001057600080fd5b50615c9f806100206000396000f3fe60806040523480156200001157600080fd5b5060043610620001005760003560e01c806368c27acc1162000099578063bde1e80e116200006f578063bde1e80e14620002e1578063d4fac45d1462000317578063d756a29d146200034d578063ed90c7b714620003835762000100565b806368c27acc14620002555780636ec94d6c146200028b578063889ec4dd14620002c15762000100565b806335eab65511620000db57806335eab65514620001935780633c25c06b14620001c95780635b06053014620001ff57806365577a12146200021f5762000100565b80631691473c14620001055780631f69565f146200013b5780632494f05e1462000173575b600080fd5b6200012360048036038101906200011d919062002ae8565b620003b9565b60405162000132919062003823565b60405180910390f35b62000159600480360381019062000153919062002ae8565b62000752565b6040516200016a93929190620038d3565b60405180910390f35b6200019160048036038101906200018b919062002c4c565b620009ee565b005b620001b16004803603810190620001ab919062002bc2565b62000c12565b604051620001c09190620037ac565b60405180910390f35b620001e76004803603810190620001e1919062002b55565b62000c61565b604051620001f691906200386b565b60405180910390f35b6200021d600480360381019062000217919062002c4c565b620013e8565b005b6200023d600480360381019062000237919062002db1565b620016ac565b6040516200024c91906200386b565b60405180910390f35b6200027360048036038101906200026d919062002b14565b62001883565b6040516200028291906200386b565b60405180910390f35b620002a96004803603810190620002a3919062002ae8565b62001e10565b604051620002b8919062003847565b60405180910390f35b620002df6004803603810190620002d9919062002cd4565b62001f44565b005b620002ff6004803603810190620002f9919062002ae8565b620022ab565b6040516200030e91906200386b565b60405180910390f35b6200033560048036038101906200032f919062002b14565b62002303565b60405162000344919062003c35565b60405180910390f35b6200036b600480360381019062000365919062002d59565b62002490565b6040516200037a91906200386b565b60405180910390f35b620003a160048036038101906200039b919062002d59565b6200259e565b604051620003b091906200386b565b60405180910390f35b6060816000808273ffffffffffffffffffffffffffffffffffffffff1673ffffffffffffffffffffffffffffffffffffffff16815260200190815260200160002060000160149054906101000a900460ff166200044d576040517f08c379a0000000000000000000000000000000000000000000000000000000008152600401620004449062003aab565b60405180910390fd5b60008060008573ffffffffffffffffffffffffffffffffffffffff1673ffffffffffffffffffffffffffffffffffffffff168152602001908152602001600020600301805480602002602001604051908101604052809291908181526020018280548015620004dc57602002820191906000526020600020905b815481526020019060010190808311620004c7575b505050505090506000815167ffffffffffffffff81111562000527577f4e487b7100000000000000000000000000000000000000000000000000000000600052604160045260246000fd5b6040519080825280602002602001820160405280156200056457816020015b62000550620028b9565b815260200190600190039081620005465790505b50905060005b8251811015620007465760008060008873ffffffffffffffffffffffffffffffffffffffff1673ffffffffffffffffffffffffffffffffffffffff1681526020019081526020016000206002016000858481518110620005f3577f4e487b7100000000000000000000000000000000000000000000000000000000600052603260045260246000fd5b602002602001015181526020019081526020016000206040518060a0016040529081600082018054620006269062003eba565b80601f0160208091040260200160405190810160405280929190818152602001828054620006549062003eba565b8015620006a55780601f106200067957610100808354040283529160200191620006a5565b820191906000526020600020905b8154815290600101906020018083116200068757829003601f168201915b505050505081526020016001820154815260200160028201548152602001600382015481526020016004820160009054906101000a900460ff16151515158152505090508083838151811062000724577f4e487b7100000000000000000000000000000000000000000000000000000000600052603260045260246000fd5b60200260200101819052505080806200073d9062003f4a565b9150506200056a565b50809350505050919050565b6060806000836000808273ffffffffffffffffffffffffffffffffffffffff1673ffffffffffffffffffffffffffffffffffffffff16815260200190815260200160002060000160149054906101000a900460ff16620007e9576040517f08c379a0000000000000000000000000000000000000000000000000000000008152600401620007e09062003aab565b60405180910390fd5b60008060008773ffffffffffffffffffffffffffffffffffffffff1673ffffffffffffffffffffffffffffffffffffffff16815260200190815260200160002060010160009054906101000a900473ffffffffffffffffffffffffffffffffffffffff1690508073ffffffffffffffffffffffffffffffffffffffff166306fdde036040518163ffffffff1660e01b815260040160006040518083038186803b1580156200089657600080fd5b505afa158015620008ab573d6000803e3d6000fd5b505050506040513d6000823e3d601f19601f82011682018060405250810190620008d6919062002c07565b8173ffffffffffffffffffffffffffffffffffffffff166395d89b416040518163ffffffff1660e01b815260040160006040518083038186803b1580156200091d57600080fd5b505afa15801562000932573d6000803e3d6000fd5b505050506040513d6000823e3d601f19601f820116820180604052508101906200095d919062002c07565b8273ffffffffffffffffffffffffffffffffffffffff166318160ddd6040518163ffffffff1660e01b815260040160206040518083038186803b158015620009a457600080fd5b505afa158015620009b9573d6000803e3d6000fd5b505050506040513d601f19601f82011682018060405250810190620009df919062002d85565b94509450945050509193909250565b6000803373ffffffffffffffffffffffffffffffffffffffff1673ffffffffffffffffffffffffffffffffffffffff16815260200190815260200160002060000160149054906101000a900460ff1662000a7f576040517f08c379a000000000000000000000000000000000000000000000000000000000815260040162000a769062003aef565b60405180910390fd5b82823360405162000a9090620028ea565b62000a9e9392919062003888565b604051809103906000f08015801562000abb573d6000803e3d6000fd5b506000803373ffffffffffffffffffffffffffffffffffffffff1673ffffffffffffffffffffffffffffffffffffffff16815260200190815260200160002060010160006101000a81548173ffffffffffffffffffffffffffffffffffffffff021916908373ffffffffffffffffffffffffffffffffffffffff1602179055506000803373ffffffffffffffffffffffffffffffffffffffff1673ffffffffffffffffffffffffffffffffffffffff16815260200190815260200160002060010160009054906101000a900473ffffffffffffffffffffffffffffffffffffffff1673ffffffffffffffffffffffffffffffffffffffff16634e6ec24733836040518363ffffffff1660e01b815260040162000bd9929190620037f6565b600060405180830381600087803b15801562000bf457600080fd5b505af115801562000c09573d6000803e3d6000fd5b50505050505050565b60008060018360405162000c27919062003793565b908152602001604051809103902060009054906101000a900473ffffffffffffffffffffffffffffffffffffffff16905080915050919050565b6000826000808273ffffffffffffffffffffffffffffffffffffffff1673ffffffffffffffffffffffffffffffffffffffff16815260200190815260200160002060000160149054906101000a900460ff1662000cf5576040517f08c379a000000000000000000000000000000000000000000000000000000000815260040162000cec9062003aab565b60405180910390fd5b6000808573ffffffffffffffffffffffffffffffffffffffff1673ffffffffffffffffffffffffffffffffffffffff168152602001908152602001600020600201600084815260200190815260200160002060040160009054906101000a900460ff1662000d9a576040517f08c379a000000000000000000000000000000000000000000000000000000000815260040162000d919062003b11565b60405180910390fd5b60008060008673ffffffffffffffffffffffffffffffffffffffff1673ffffffffffffffffffffffffffffffffffffffff16815260200190815260200160002060020160008581526020019081526020016000206040518060a001604052908160008201805462000e0b9062003eba565b80601f016020809104026020016040519081016040528092919081815260200182805462000e399062003eba565b801562000e8a5780601f1062000e5e5761010080835404028352916020019162000e8a565b820191906000526020600020905b81548152906001019060200180831162000e6c57829003601f168201915b505050505081526020016001820154815260200160028201548152602001600382015481526020016004820160009054906101000a900460ff161515151581525050905060008060008773ffffffffffffffffffffffffffffffffffffffff1673ffffffffffffffffffffffffffffffffffffffff16815260200190815260200160002060010160009054906101000a900473ffffffffffffffffffffffffffffffffffffffff16905060018260600151101562000f7f576040517f08c379a000000000000000000000000000000000000000000000000000000000815260040162000f769062003b33565b60405180910390fd5b60018173ffffffffffffffffffffffffffffffffffffffff166370a08231336040518263ffffffff1660e01b815260040162000fbc9190620037ac565b60206040518083038186803b15801562000fd557600080fd5b505afa15801562000fea573d6000803e3d6000fd5b505050506040513d601f19601f8201168201806040525081019062001010919062002d85565b1462001053576040517f08c379a00000000000000000000000000000000000000000000000000000000081526004016200104a906200399b565b60405180910390fd5b8573ffffffffffffffffffffffffffffffffffffffff163373ffffffffffffffffffffffffffffffffffffffff161415620010c5576040517f08c379a0000000000000000000000000000000000000000000000000000000008152600401620010bc9062003a01565b60405180910390fd5b60008060008873ffffffffffffffffffffffffffffffffffffffff1673ffffffffffffffffffffffffffffffffffffffff16815260200190815260200160002060040160003373ffffffffffffffffffffffffffffffffffffffff1673ffffffffffffffffffffffffffffffffffffffff168152602001908152602001600020604051806060016040529081600082016040518060a0016040529081600082018054620011729062003eba565b80601f0160208091040260200160405190810160405280929190818152602001828054620011a09062003eba565b8015620011f15780601f10620011c557610100808354040283529160200191620011f1565b820191906000526020600020905b815481529060010190602001808311620011d357829003601f168201915b505050505081526020016001820154815260200160028201548152602001600382015481526020016004820160009054906101000a900460ff16151515158152505081526020016005820160009054906101000a900460ff161515151581526020016005820160019054906101000a900473ffffffffffffffffffffffffffffffffffffffff1673ffffffffffffffffffffffffffffffffffffffff1673ffffffffffffffffffffffffffffffffffffffff1681525050905060008160200151905080620012f6576040517f08c379a0000000000000000000000000000000000000000000000000000000008152600401620012ed90620039bd565b60405180910390fd5b6001846060018181516200130b919062003da5565b9150818152505083826000018190525060008260200190151590811515815250508273ffffffffffffffffffffffffffffffffffffffff16639dc29fac3360016040518363ffffffff1660e01b81526004016200136a929190620037c9565b600060405180830381600087803b1580156200138557600080fd5b505af11580156200139a573d6000803e3d6000fd5b505050507f260d0f084e7c5b2ced210851014c0a62bdd2bdba672073567d59286c328e0ece8289604051620013d192919062003b99565b60405180910390a160019550505050505092915050565b600015156000803373ffffffffffffffffffffffffffffffffffffffff1673ffffffffffffffffffffffffffffffffffffffff16815260200190815260200160002060000160149054906101000a900460ff1615151462001480576040517f08c379a0000000000000000000000000000000000000000000000000000000008152600401620014779062003a45565b60405180910390fd5b8282336040516200149190620028ea565b6200149f9392919062003888565b604051809103906000f080158015620014bc573d6000803e3d6000fd5b506000803373ffffffffffffffffffffffffffffffffffffffff1673ffffffffffffffffffffffffffffffffffffffff16815260200190815260200160002060010160006101000a81548173ffffffffffffffffffffffffffffffffffffffff021916908373ffffffffffffffffffffffffffffffffffffffff1602179055506000803373ffffffffffffffffffffffffffffffffffffffff1673ffffffffffffffffffffffffffffffffffffffff16815260200190815260200160002060010160009054906101000a900473ffffffffffffffffffffffffffffffffffffffff1673ffffffffffffffffffffffffffffffffffffffff16634e6ec24733836040518363ffffffff1660e01b8152600401620015da929190620037f6565b600060405180830381600087803b158015620015f557600080fd5b505af11580156200160a573d6000803e3d6000fd5b5050505060016000803373ffffffffffffffffffffffffffffffffffffffff1673ffffffffffffffffffffffffffffffffffffffff16815260200190815260200160002060000160146101000a81548160ff0219169083151502179055507f575ebbe83b9bae9316416e6a75ae380ba3cbe8d21708139283cd0dce393a28de838383336040516200169f94939291906200391e565b60405180910390a1505050565b6000816000808273ffffffffffffffffffffffffffffffffffffffff1673ffffffffffffffffffffffffffffffffffffffff16815260200190815260200160002060000160149054906101000a900460ff1662001740576040517f08c379a0000000000000000000000000000000000000000000000000000000008152600401620017379062003aab565b60405180910390fd5b60008060008573ffffffffffffffffffffffffffffffffffffffff1673ffffffffffffffffffffffffffffffffffffffff16815260200190815260200160002060020160008681526020019081526020016000206040518060a0016040529081600082018054620017b19062003eba565b80601f0160208091040260200160405190810160405280929190818152602001828054620017df9062003eba565b8015620018305780601f10620018045761010080835404028352916020019162001830565b820191906000526020600020905b8154815290600101906020018083116200181257829003601f168201915b505050505081526020016001820154815260200160028201548152602001600382015481526020016004820160009054906101000a900460ff161515151581525050905080608001519250505092915050565b6000826000808273ffffffffffffffffffffffffffffffffffffffff1673ffffffffffffffffffffffffffffffffffffffff16815260200190815260200160002060000160149054906101000a900460ff1662001917576040517f08c379a00000000000000000000000000000000000000000000000000000000081526004016200190e9062003aab565b60405180910390fd5b600073ffffffffffffffffffffffffffffffffffffffff168373ffffffffffffffffffffffffffffffffffffffff1614156200198a576040517f08c379a0000000000000000000000000000000000000000000000000000000008152600401620019819062003a23565b60405180910390fd5b8373ffffffffffffffffffffffffffffffffffffffff168373ffffffffffffffffffffffffffffffffffffffff161415620019fc576040517f08c379a0000000000000000000000000000000000000000000000000000000008152600401620019f39062003b77565b60405180910390fd5b60008060008673ffffffffffffffffffffffffffffffffffffffff1673ffffffffffffffffffffffffffffffffffffffff16815260200190815260200160002060010160009054906101000a900473ffffffffffffffffffffffffffffffffffffffff16905060008173ffffffffffffffffffffffffffffffffffffffff166370a08231866040518263ffffffff1660e01b815260040162001a9f9190620037ac565b60206040518083038186803b15801562001ab857600080fd5b505afa15801562001acd573d6000803e3d6000fd5b505050506040513d601f19601f8201168201806040525081019062001af3919062002d85565b1462001b36576040517f08c379a000000000000000000000000000000000000000000000000000000000815260040162001b2d9062003a67565b60405180910390fd5b60018173ffffffffffffffffffffffffffffffffffffffff166370a08231876040518263ffffffff1660e01b815260040162001b739190620037ac565b60206040518083038186803b15801562001b8c57600080fd5b505afa15801562001ba1573d6000803e3d6000fd5b505050506040513d601f19601f8201168201806040525081019062001bc7919062002d85565b101562001c0b576040517f08c379a000000000000000000000000000000000000000000000000000000000815260040162001c029062003a89565b60405180910390fd5b60008173ffffffffffffffffffffffffffffffffffffffff1663a9059cbb8660016040518363ffffffff1660e01b815260040162001c4b929190620037c9565b602060405180830381600087803b15801562001c6657600080fd5b505af115801562001c7b573d6000803e3d6000fd5b505050506040513d601f19601f8201168201806040525081019062001ca1919062002b96565b90508062001ce6576040517f08c379a000000000000000000000000000000000000000000000000000000000815260040162001cdd9062003b55565b60405180910390fd5b60008060008873ffffffffffffffffffffffffffffffffffffffff1673ffffffffffffffffffffffffffffffffffffffff16815260200190815260200160002060040160008773ffffffffffffffffffffffffffffffffffffffff1673ffffffffffffffffffffffffffffffffffffffff168152602001908152602001600020905060018160050160006101000a81548160ff021916908315150217905550858160050160016101000a81548173ffffffffffffffffffffffffffffffffffffffff021916908373ffffffffffffffffffffffffffffffffffffffff1602179055507fb7e5506455a10d7814101f306ad795179a86013bcc2e5ec192899f8894104a50818860405162001dfb92919062003bcd565b60405180910390a18194505050505092915050565b6060816000808273ffffffffffffffffffffffffffffffffffffffff1673ffffffffffffffffffffffffffffffffffffffff16815260200190815260200160002060000160149054906101000a900460ff1662001ea4576040517f08c379a000000000000000000000000000000000000000000000000000000000815260040162001e9b9062003aab565b60405180910390fd5b60008060008573ffffffffffffffffffffffffffffffffffffffff1673ffffffffffffffffffffffffffffffffffffffff16815260200190815260200160002060030180548060200260200160405190810160405280929190818152602001828054801562001f3357602002820191906000526020600020905b81548152602001906001019080831162001f1e575b505050505090508092505050919050565b6000803373ffffffffffffffffffffffffffffffffffffffff1673ffffffffffffffffffffffffffffffffffffffff16815260200190815260200160002060000160149054906101000a900460ff1662001fd5576040517f08c379a000000000000000000000000000000000000000000000000000000000815260040162001fcc9062003aef565b60405180910390fd5b600015156000803373ffffffffffffffffffffffffffffffffffffffff1673ffffffffffffffffffffffffffffffffffffffff168152602001908152602001600020600201600085815260200190815260200160002060040160009054906101000a900460ff1615151462002081576040517f08c379a0000000000000000000000000000000000000000000000000000000008152600401620020789062003979565b60405180910390fd5b60001515620020908462002490565b151514620020d5576040517f08c379a0000000000000000000000000000000000000000000000000000000008152600401620020cc90620039df565b60405180910390fd5b6040518060a00160405280858152602001848152602001838152602001828152602001600115158152506000803373ffffffffffffffffffffffffffffffffffffffff1673ffffffffffffffffffffffffffffffffffffffff168152602001908152602001600020600201600085815260200190815260200160002060008201518160000190805190602001906200216f929190620028f8565b5060208201518160010155604082015181600201556060820151816003015560808201518160040160006101000a81548160ff0219169083151502179055509050506000803373ffffffffffffffffffffffffffffffffffffffff1673ffffffffffffffffffffffffffffffffffffffff1681526020019081526020016000206003018390806001815401808255809150506001900390600052602060002001600090919091909150557fd1e2fbf044d14ac6729f5e635dd169bce44b7cbbe7247be2a9bd4605987570616000803373ffffffffffffffffffffffffffffffffffffffff1673ffffffffffffffffffffffffffffffffffffffff1681526020019081526020016000206002016000858152602001908152602001600020336040516200229d92919062003c01565b60405180910390a150505050565b60008060008373ffffffffffffffffffffffffffffffffffffffff1673ffffffffffffffffffffffffffffffffffffffff16815260200190815260200160002060000160149054906101000a900460ff169050919050565b6000826000808273ffffffffffffffffffffffffffffffffffffffff1673ffffffffffffffffffffffffffffffffffffffff16815260200190815260200160002060000160149054906101000a900460ff1662002397576040517f08c379a00000000000000000000000000000000000000000000000000000000081526004016200238e9062003aab565b60405180910390fd5b6000808573ffffffffffffffffffffffffffffffffffffffff1673ffffffffffffffffffffffffffffffffffffffff16815260200190815260200160002060010160009054906101000a900473ffffffffffffffffffffffffffffffffffffffff1673ffffffffffffffffffffffffffffffffffffffff166370a08231846040518263ffffffff1660e01b8152600401620024339190620037ac565b60206040518083038186803b1580156200244c57600080fd5b505afa15801562002461573d6000803e3d6000fd5b505050506040513d601f19601f8201168201806040525081019062002487919062002d85565b91505092915050565b600080600090505b6000803373ffffffffffffffffffffffffffffffffffffffff1673ffffffffffffffffffffffffffffffffffffffff168152602001908152602001600020600301805490508110156200259357826000803373ffffffffffffffffffffffffffffffffffffffff1673ffffffffffffffffffffffffffffffffffffffff168152602001908152602001600020600301828154811062002560577f4e487b7100000000000000000000000000000000000000000000000000000000600052603260045260246000fd5b906000526020600020015414156200257d57600191505062002599565b80806200258a9062003f4a565b91505062002498565b50600090505b919050565b60008060003373ffffffffffffffffffffffffffffffffffffffff1673ffffffffffffffffffffffffffffffffffffffff16815260200190815260200160002060000160149054906101000a900460ff1662002631576040517f08c379a0000000000000000000000000000000000000000000000000000000008152600401620026289062003aef565b60405180910390fd5b6000803373ffffffffffffffffffffffffffffffffffffffff1673ffffffffffffffffffffffffffffffffffffffff168152602001908152602001600020600201600083815260200190815260200160002060040160009054906101000a900460ff16620026d6576040517f08c379a0000000000000000000000000000000000000000000000000000000008152600401620026cd9062003acd565b60405180910390fd5b604051806020016040528060008152506000803373ffffffffffffffffffffffffffffffffffffffff1673ffffffffffffffffffffffffffffffffffffffff1681526020019081526020016000206002016000848152602001908152602001600020600001908051906020019062002750929190620028f8565b5060008060003373ffffffffffffffffffffffffffffffffffffffff1673ffffffffffffffffffffffffffffffffffffffff16815260200190815260200160002060020160008481526020019081526020016000206002018190555060008060003373ffffffffffffffffffffffffffffffffffffffff1673ffffffffffffffffffffffffffffffffffffffff16815260200190815260200160002060020160008481526020019081526020016000206003018190555060008060003373ffffffffffffffffffffffffffffffffffffffff1673ffffffffffffffffffffffffffffffffffffffff168152602001908152602001600020600201600084815260200190815260200160002060040160006101000a81548160ff0219169083151502179055507fa1bf3b788f3a0cc6b88547dd58694ec8018fbdab27fa1ef8674e6cb4a31dc6548233604051620028a892919062003c52565b60405180910390a160019050919050565b6040518060a00160405280606081526020016000815260200160008152602001600081526020016000151581525090565b611bcb806200409f83390190565b828054620029069062003eba565b90600052602060002090601f0160209004810192826200292a576000855562002976565b82601f106200294557805160ff191683800117855562002976565b8280016001018555821562002976579182015b828111156200297557825182559160200191906001019062002958565b5b50905062002985919062002989565b5090565b5b80821115620029a45760008160009055506001016200298a565b5090565b6000620029bf620029b98462003cb3565b62003c7f565b905082815260208101848484011115620029d857600080fd5b620029e584828562003e75565b509392505050565b600062002a04620029fe8462003cb3565b62003c7f565b90508281526020810184848401111562002a1d57600080fd5b62002a2a84828562003e84565b509392505050565b60008135905062002a438162004050565b92915050565b60008151905062002a5a816200406a565b92915050565b600082601f83011262002a7257600080fd5b813562002a84848260208601620029a8565b91505092915050565b600082601f83011262002a9f57600080fd5b815162002ab1848260208601620029ed565b91505092915050565b60008135905062002acb8162004084565b92915050565b60008151905062002ae28162004084565b92915050565b60006020828403121562002afb57600080fd5b600062002b0b8482850162002a32565b91505092915050565b6000806040838503121562002b2857600080fd5b600062002b388582860162002a32565b925050602062002b4b8582860162002a32565b9150509250929050565b6000806040838503121562002b6957600080fd5b600062002b798582860162002a32565b925050602062002b8c8582860162002aba565b9150509250929050565b60006020828403121562002ba957600080fd5b600062002bb98482850162002a49565b91505092915050565b60006020828403121562002bd557600080fd5b600082013567ffffffffffffffff81111562002bf057600080fd5b62002bfe8482850162002a60565b91505092915050565b60006020828403121562002c1a57600080fd5b600082015167ffffffffffffffff81111562002c3557600080fd5b62002c438482850162002a8d565b91505092915050565b60008060006060848603121562002c6257600080fd5b600084013567ffffffffffffffff81111562002c7d57600080fd5b62002c8b8682870162002a60565b935050602084013567ffffffffffffffff81111562002ca957600080fd5b62002cb78682870162002a60565b925050604062002cca8682870162002aba565b9150509250925092565b6000806000806080858703121562002ceb57600080fd5b600085013567ffffffffffffffff81111562002d0657600080fd5b62002d148782880162002a60565b945050602062002d278782880162002aba565b935050604062002d3a8782880162002aba565b925050606062002d4d8782880162002aba565b91505092959194509250565b60006020828403121562002d6c57600080fd5b600062002d7c8482850162002aba565b91505092915050565b60006020828403121562002d9857600080fd5b600062002da88482850162002ad1565b91505092915050565b6000806040838503121562002dc557600080fd5b600062002dd58582860162002aba565b925050602062002de88582860162002a32565b9150509250929050565b600062002e00838362003587565b905092915050565b600062002e16838362003771565b60208301905092915050565b62002e2d8162003e17565b82525050565b62002e3e8162003e17565b82525050565b600062002e518262003d1b565b62002e5d818562003d56565b93508360208202850162002e718562003ce6565b8060005b8581101562002eb3578484038952815162002e91858262002df2565b945062002e9e8362003d3c565b925060208a0199505060018101905062002e75565b50829750879550505050505092915050565b600062002ed28262003d26565b62002ede818562003d67565b935062002eeb8362003cf6565b8060005b8381101562002f2257815162002f06888262002e08565b975062002f138362003d49565b92505060018101905062002eef565b5085935050505092915050565b62002f3a8162003e2b565b82525050565b62002f4b8162003e2b565b82525050565b62002f5c8162003e61565b82525050565b600062002f6f8262003d31565b62002f7b818562003d78565b935062002f8d81856020860162003e84565b62002f988162004025565b840191505092915050565b600062002fb08262003d31565b62002fbc818562003d89565b935062002fce81856020860162003e84565b62002fd98162004025565b840191505092915050565b600062002ff18262003d31565b62002ffd818562003d9a565b93506200300f81856020860162003e84565b80840191505092915050565b600081546200302a8162003eba565b62003036818662003d78565b9450600182166000811462003054576001811462003067576200309e565b60ff19831686526020860193506200309e565b620030728562003d06565b60005b83811015620030965781548189015260018201915060208101905062003075565b808801955050505b50505092915050565b6000620030b6600f8362003d89565b91507f70726f64756374206578697374656400000000000000000000000000000000006000830152602082019050919050565b6000620030f860108362003d89565b91507f696e76616c69642062616c616e636521000000000000000000000000000000006000830152602082019050919050565b60006200313a60198362003d89565b91507f796f752068617665207370656e7420796f757220746f6b656e000000000000006000830152602082019050919050565b60006200317c60088362003d89565b91507f69642075736564210000000000000000000000000000000000000000000000006000830152602082019050919050565b6000620031be601d8362003d89565b91507f76656e646f722073686f756c64206e6f742075736520636f75706f6e210000006000830152602082019050919050565b600062003200600f8362003d89565b91507f696e76616c6964206164647265737300000000000000000000000000000000006000830152602082019050919050565b600062003242600d8362003d89565b91507f76656e646f7220657869737421000000000000000000000000000000000000006000830152602082019050919050565b600062003284601c8362003d89565b91507f596f7520616c726561647920686176652074686520636f75706f6e21000000006000830152602082019050919050565b6000620032c660128362003d89565b91507f4e6f7420656e6f75676820636f75706f6e2100000000000000000000000000006000830152602082019050919050565b600062003308600a8362003d89565b91507f6e6f742076656e646f72000000000000000000000000000000000000000000006000830152602082019050919050565b60006200334a600b8362003d89565b91507f4e6f2070726f64756374210000000000000000000000000000000000000000006000830152602082019050919050565b60006200338c60098362003d89565b91507f4e6f74206f776e657200000000000000000000000000000000000000000000006000830152602082019050919050565b6000620033ce60118362003d89565b91507f70726f64756374206e6f7420666f756e640000000000000000000000000000006000830152602082019050919050565b600062003410600c8362003d89565b91507f6f7574206f662073746f636b00000000000000000000000000000000000000006000830152602082019050919050565b60006200345260188362003d89565b91507f4661696c656420746f206275792074686520636f75706f6e00000000000000006000830152602082019050919050565b60006200349460208362003d89565b91507f646f6e27742073656e6420636f75706f6e20746f207468652076656e646f72216000830152602082019050919050565b60006060830160008301518482036000860152620034e6828262003587565b9150506020830151620034fd602086018262002f2f565b50604083015162003512604086018262002e22565b508091505092915050565b600060608301600080840185830360008701526200353c838262003607565b92505060058401549050620035518162003ef0565b62003560602087018262002f2f565b506200356c8162003f2c565b6200357b604087018262002e22565b50819250505092915050565b600060a0830160008301518482036000860152620035a6828262002f62565b9150506020830151620035bd602086018262003771565b506040830151620035d2604086018262003771565b506060830151620035e7606086018262003771565b506080830151620035fc608086018262002f2f565b508091505092915050565b600060a08301600080840185830360008701526200362683826200301b565b925050600184015490506200363b8162003f0e565b6200364a602087018262003771565b50600284015490506200365d8162003f0e565b6200366c604087018262003771565b50600384015490506200367f8162003f0e565b6200368e606087018262003771565b5060048401549050620036a18162003ef0565b620036b0608087018262002f2f565b50819250505092915050565b600060a0830160008084018583036000870152620036db83826200301b565b92505060018401549050620036f08162003f0e565b620036ff602087018262003771565b5060028401549050620037128162003f0e565b62003721604087018262003771565b5060038401549050620037348162003f0e565b62003743606087018262003771565b5060048401549050620037568162003ef0565b62003765608087018262002f2f565b50819250505092915050565b6200377c8162003e57565b82525050565b6200378d8162003e57565b82525050565b6000620037a1828462002fe4565b915081905092915050565b6000602082019050620037c3600083018462002e33565b92915050565b6000604082019050620037e0600083018562002e33565b620037ef602083018462002f51565b9392505050565b60006040820190506200380d600083018562002e33565b6200381c602083018462003782565b9392505050565b600060208201905081810360008301526200383f818462002e44565b905092915050565b6000602082019050818103600083015262003863818462002ec5565b905092915050565b600060208201905062003882600083018462002f40565b92915050565b60006060820190508181036000830152620038a4818662002fa3565b90508181036020830152620038ba818562002fa3565b9050620038cb604083018462002e33565b949350505050565b60006060820190508181036000830152620038ef818662002fa3565b9050818103602083015262003905818562002fa3565b905062003916604083018462003782565b949350505050565b600060808201905081810360008301526200393a818762002fa3565b9050818103602083015262003950818662002fa3565b905062003961604083018562003782565b62003970606083018462002e33565b95945050505050565b600060208201905081810360008301526200399481620030a7565b9050919050565b60006020820190508181036000830152620039b681620030e9565b9050919050565b60006020820190508181036000830152620039d8816200312b565b9050919050565b60006020820190508181036000830152620039fa816200316d565b9050919050565b6000602082019050818103600083015262003a1c81620031af565b9050919050565b6000602082019050818103600083015262003a3e81620031f1565b9050919050565b6000602082019050818103600083015262003a608162003233565b9050919050565b6000602082019050818103600083015262003a828162003275565b9050919050565b6000602082019050818103600083015262003aa481620032b7565b9050919050565b6000602082019050818103600083015262003ac681620032f9565b9050919050565b6000602082019050818103600083015262003ae8816200333b565b9050919050565b6000602082019050818103600083015262003b0a816200337d565b9050919050565b6000602082019050818103600083015262003b2c81620033bf565b9050919050565b6000602082019050818103600083015262003b4e8162003401565b9050919050565b6000602082019050818103600083015262003b708162003443565b9050919050565b6000602082019050818103600083015262003b928162003485565b9050919050565b6000604082019050818103600083015262003bb58185620034c7565b905062003bc6602083018462002e33565b9392505050565b6000604082019050818103600083015262003be981856200351d565b905062003bfa602083018462002e33565b9392505050565b6000604082019050818103600083015262003c1d8185620036bc565b905062003c2e602083018462002e33565b9392505050565b600060208201905062003c4c600083018462003782565b92915050565b600060408201905062003c69600083018562003782565b62003c78602083018462002e33565b9392505050565b6000604051905081810181811067ffffffffffffffff8211171562003ca95762003ca862003ff6565b5b8060405250919050565b600067ffffffffffffffff82111562003cd15762003cd062003ff6565b5b601f19601f8301169050602081019050919050565b6000819050602082019050919050565b6000819050602082019050919050565b60008190508160005260206000209050919050565b600081519050919050565b600081519050919050565b600081519050919050565b6000602082019050919050565b6000602082019050919050565b600082825260208201905092915050565b600082825260208201905092915050565b600082825260208201905092915050565b600082825260208201905092915050565b600081905092915050565b600062003db28262003e57565b915062003dbf8362003e57565b92508282101562003dd55762003dd462003f98565b5b828203905092915050565b600073ffffffffffffffffffffffffffffffffffffffff82169050919050565b600060ff82169050919050565b6000819050919050565b600062003e248262003e37565b9050919050565b60008115159050919050565b600073ffffffffffffffffffffffffffffffffffffffff82169050919050565b6000819050919050565b600062003e6e8262003e57565b9050919050565b82818337600083830152505050565b60005b8381101562003ea457808201518184015260208101905062003e87565b8381111562003eb4576000848401525b50505050565b6000600282049050600182168062003ed357607f821691505b6020821081141562003eea5762003ee962003fc7565b5b50919050565b600062003f0762003f018362004036565b62003e00565b9050919050565b600062003f2562003f1f8362004036565b62003e0d565b9050919050565b600062003f4362003f3d8362004043565b62003de0565b9050919050565b600062003f578262003e57565b91507fffffffffffffffffffffffffffffffffffffffffffffffffffffffffffffffff82141562003f8d5762003f8c62003f98565b5b600182019050919050565b7f4e487b7100000000000000000000000000000000000000000000000000000000600052601160045260246000fd5b7f4e487b7100000000000000000000000000000000000000000000000000000000600052602260045260246000fd5b7f4e487b7100000000000000000000000000000000000000000000000000000000600052604160045260246000fd5b6000601f19601f8301169050919050565b60008160001c9050919050565b60008160081c9050919050565b6200405b8162003e17565b81146200406757600080fd5b50565b620040758162003e2b565b81146200408157600080fd5b50565b6200408f8162003e57565b81146200409b57600080fd5b5056fe60806040523480156200001157600080fd5b5060405162001bcb38038062001bcb8339818101604052810190620000379190620001ec565b82600490805190602001906200004f929190620000b3565b50816005908051906020019062000068929190620000b3565b5080600260006101000a81548173ffffffffffffffffffffffffffffffffffffffff021916908373ffffffffffffffffffffffffffffffffffffffff160217905550505050620003f3565b828054620000c19062000345565b90600052602060002090601f016020900481019282620000e5576000855562000131565b82601f106200010057805160ff191683800117855562000131565b8280016001018555821562000131579182015b828111156200013057825182559160200191906001019062000113565b5b50905062000140919062000144565b5090565b5b808211156200015f57600081600090555060010162000145565b5090565b60006200017a6200017484620002a8565b62000274565b9050828152602081018484840111156200019357600080fd5b620001a08482856200030f565b509392505050565b600081519050620001b981620003d9565b92915050565b600082601f830112620001d157600080fd5b8151620001e384826020860162000163565b91505092915050565b6000806000606084860312156200020257600080fd5b600084015167ffffffffffffffff8111156200021d57600080fd5b6200022b86828701620001bf565b935050602084015167ffffffffffffffff8111156200024957600080fd5b6200025786828701620001bf565b92505060406200026a86828701620001a8565b9150509250925092565b6000604051905081810181811067ffffffffffffffff821117156200029e576200029d620003aa565b5b8060405250919050565b600067ffffffffffffffff821115620002c657620002c5620003aa565b5b601f19601f8301169050602081019050919050565b6000620002e882620002ef565b9050919050565b600073ffffffffffffffffffffffffffffffffffffffff82169050919050565b60005b838110156200032f57808201518184015260208101905062000312565b838111156200033f576000848401525b50505050565b600060028204905060018216806200035e57607f821691505b602082108114156200037557620003746200037b565b5b50919050565b7f4e487b7100000000000000000000000000000000000000000000000000000000600052602260045260246000fd5b7f4e487b7100000000000000000000000000000000000000000000000000000000600052604160045260246000fd5b620003e481620002db565b8114620003f057600080fd5b50565b6117c880620004036000396000f3fe608060405234801561001057600080fd5b50600436106100ea5760003560e01c806370a082311161008c5780639dc29fac116100665780639dc29fac14610261578063a457c2d71461027d578063a9059cbb146102ad578063dd62ed3e146102dd576100ea565b806370a08231146101f55780638da5cb5b1461022557806395d89b4114610243576100ea565b806323b872dd116100c857806323b872dd1461015b578063313ce5671461018b57806339509351146101a95780634e6ec247146101d9576100ea565b806306fdde03146100ef578063095ea7b31461010d57806318160ddd1461013d575b600080fd5b6100f761030d565b60405161010491906113fd565b60405180910390f35b61012760048036038101906101229190610f66565b61039f565b60405161013491906113e2565b60405180910390f35b6101456103bd565b604051610152919061155f565b60405180910390f35b61017560048036038101906101709190610f17565b6103c7565b60405161018291906113e2565b60405180910390f35b6101936103f6565b6040516101a0919061157a565b60405180910390f35b6101c360048036038101906101be9190610f66565b6103ff565b6040516101d091906113e2565b60405180910390f35b6101f360048036038101906101ee9190610f66565b610438565b005b61020f600480360381019061020a9190610eb2565b610598565b60405161021c919061155f565b60405180910390f35b61022d6105e0565b60405161023a91906113c7565b60405180910390f35b61024b61060a565b60405161025891906113fd565b60405180910390f35b61027b60048036038101906102769190610f66565b61069c565b005b61029760048036038101906102929190610f66565b6106aa565b6040516102a491906113e2565b60405180910390f35b6102c760048036038101906102c29190610f66565b610722565b6040516102d491906113e2565b60405180910390f35b6102f760048036038101906102f29190610edb565b610740565b604051610304919061155f565b60405180910390f35b60606004805461031c906116c3565b80601f0160208091040260200160405190810160405280929190818152602001828054610348906116c3565b80156103955780601f1061036a57610100808354040283529160200191610395565b820191906000526020600020905b81548152906001019060200180831161037857829003601f168201915b5050505050905090565b60006103b36103ac6105e0565b84846107c7565b6001905092915050565b6000600354905090565b6000806103d2610992565b90506103df85828561099a565b6103ea858585610a26565b60019150509392505050565b60006001905090565b600061042e61040c6105e0565b848461041f6104196105e0565b88610740565b61042991906115b1565b6107c7565b6001905092915050565b600073ffffffffffffffffffffffffffffffffffffffff168273ffffffffffffffffffffffffffffffffffffffff1614156104a8576040517f08c379a000000000000000000000000000000000000000000000000000000000815260040161049f9061153f565b60405180910390fd5b6104b460008383610ca7565b80600360008282546104c691906115b1565b92505081905550806000808473ffffffffffffffffffffffffffffffffffffffff1673ffffffffffffffffffffffffffffffffffffffff168152602001908152602001600020600082825461051b91906115b1565b925050819055508173ffffffffffffffffffffffffffffffffffffffff16600073ffffffffffffffffffffffffffffffffffffffff167fddf252ad1be2c89b69c2b068fc378daa952ba7f163c4a11628f55a4df523b3ef83604051610580919061155f565b60405180910390a361059460008383610cac565b5050565b60008060008373ffffffffffffffffffffffffffffffffffffffff1673ffffffffffffffffffffffffffffffffffffffff168152602001908152602001600020549050919050565b6000600260009054906101000a900473ffffffffffffffffffffffffffffffffffffffff16905090565b606060058054610619906116c3565b80601f0160208091040260200160405190810160405280929190818152602001828054610645906116c3565b80156106925780601f1061066757610100808354040283529160200191610692565b820191906000526020600020905b81548152906001019060200180831161067557829003601f168201915b5050505050905090565b6106a68282610cb1565b5050565b6000806106be6106b86105e0565b85610740565b905082811015610703576040517f08c379a00000000000000000000000000000000000000000000000000000000081526004016106fa9061151f565b60405180910390fd5b61071761070e6105e0565b858584036107c7565b600191505092915050565b600061073661072f6105e0565b8484610a26565b6001905092915050565b6000600160008473ffffffffffffffffffffffffffffffffffffffff1673ffffffffffffffffffffffffffffffffffffffff16815260200190815260200160002060008373ffffffffffffffffffffffffffffffffffffffff1673ffffffffffffffffffffffffffffffffffffffff16815260200190815260200160002054905092915050565b600073ffffffffffffffffffffffffffffffffffffffff168373ffffffffffffffffffffffffffffffffffffffff161415610837576040517f08c379a000000000000000000000000000000000000000000000000000000000815260040161082e906114ff565b60405180910390fd5b600073ffffffffffffffffffffffffffffffffffffffff168273ffffffffffffffffffffffffffffffffffffffff1614156108a7576040517f08c379a000000000000000000000000000000000000000000000000000000000815260040161089e9061145f565b60405180910390fd5b80600160008573ffffffffffffffffffffffffffffffffffffffff1673ffffffffffffffffffffffffffffffffffffffff16815260200190815260200160002060008473ffffffffffffffffffffffffffffffffffffffff1673ffffffffffffffffffffffffffffffffffffffff168152602001908152602001600020819055508173ffffffffffffffffffffffffffffffffffffffff168373ffffffffffffffffffffffffffffffffffffffff167f8c5be1e5ebec7d5bd14f71427d1e84f3dd0314c0f7b2291e5b200ac8c7c3b92583604051610985919061155f565b60405180910390a3505050565b600033905090565b60006109a68484610740565b90507fffffffffffffffffffffffffffffffffffffffffffffffffffffffffffffffff8114610a205781811015610a12576040517f08c379a0000000000000000000000000000000000000000000000000000000008152600401610a099061147f565b60405180910390fd5b610a1f84848484036107c7565b5b50505050565b600073ffffffffffffffffffffffffffffffffffffffff168373ffffffffffffffffffffffffffffffffffffffff161415610a96576040517f08c379a0000000000000000000000000000000000000000000000000000000008152600401610a8d906114df565b60405180910390fd5b600073ffffffffffffffffffffffffffffffffffffffff168273ffffffffffffffffffffffffffffffffffffffff161415610b06576040517f08c379a0000000000000000000000000000000000000000000000000000000008152600401610afd9061141f565b60405180910390fd5b610b11838383610ca7565b60008060008573ffffffffffffffffffffffffffffffffffffffff1673ffffffffffffffffffffffffffffffffffffffff16815260200190815260200160002054905081811015610b97576040517f08c379a0000000000000000000000000000000000000000000000000000000008152600401610b8e9061149f565b60405180910390fd5b8181036000808673ffffffffffffffffffffffffffffffffffffffff1673ffffffffffffffffffffffffffffffffffffffff16815260200190815260200160002081905550816000808573ffffffffffffffffffffffffffffffffffffffff1673ffffffffffffffffffffffffffffffffffffffff1681526020019081526020016000206000828254610c2a91906115b1565b925050819055508273ffffffffffffffffffffffffffffffffffffffff168473ffffffffffffffffffffffffffffffffffffffff167fddf252ad1be2c89b69c2b068fc378daa952ba7f163c4a11628f55a4df523b3ef84604051610c8e919061155f565b60405180910390a3610ca1848484610cac565b50505050565b505050565b505050565b600073ffffffffffffffffffffffffffffffffffffffff168273ffffffffffffffffffffffffffffffffffffffff161415610d21576040517f08c379a0000000000000000000000000000000000000000000000000000000008152600401610d18906114bf565b60405180910390fd5b610d2d82600083610ca7565b60008060008473ffffffffffffffffffffffffffffffffffffffff1673ffffffffffffffffffffffffffffffffffffffff16815260200190815260200160002054905081811015610db3576040517f08c379a0000000000000000000000000000000000000000000000000000000008152600401610daa9061143f565b60405180910390fd5b8181036000808573ffffffffffffffffffffffffffffffffffffffff1673ffffffffffffffffffffffffffffffffffffffff168152602001908152602001600020819055508160036000828254610e0a9190611607565b92505081905550600073ffffffffffffffffffffffffffffffffffffffff168373ffffffffffffffffffffffffffffffffffffffff167fddf252ad1be2c89b69c2b068fc378daa952ba7f163c4a11628f55a4df523b3ef84604051610e6f919061155f565b60405180910390a3610e8383600084610cac565b505050565b600081359050610e9781611764565b92915050565b600081359050610eac8161177b565b92915050565b600060208284031215610ec457600080fd5b6000610ed284828501610e88565b91505092915050565b60008060408385031215610eee57600080fd5b6000610efc85828601610e88565b9250506020610f0d85828601610e88565b9150509250929050565b600080600060608486031215610f2c57600080fd5b6000610f3a86828701610e88565b9350506020610f4b86828701610e88565b9250506040610f5c86828701610e9d565b9150509250925092565b60008060408385031215610f7957600080fd5b6000610f8785828601610e88565b9250506020610f9885828601610e9d565b9150509250929050565b610fab8161163b565b82525050565b610fba8161164d565b82525050565b6000610fcb82611595565b610fd581856115a0565b9350610fe5818560208601611690565b610fee81611753565b840191505092915050565b60006110066023836115a0565b91507f45524332303a207472616e7366657220746f20746865207a65726f206164647260008301527f65737300000000000000000000000000000000000000000000000000000000006020830152604082019050919050565b600061106c6022836115a0565b91507f45524332303a206275726e20616d6f756e7420657863656564732062616c616e60008301527f63650000000000000000000000000000000000000000000000000000000000006020830152604082019050919050565b60006110d26022836115a0565b91507f45524332303a20617070726f766520746f20746865207a65726f20616464726560008301527f73730000000000000000000000000000000000000000000000000000000000006020830152604082019050919050565b6000611138601d836115a0565b91507f45524332303a20696e73756666696369656e7420616c6c6f77616e63650000006000830152602082019050919050565b60006111786026836115a0565b91507f45524332303a207472616e7366657220616d6f756e742065786365656473206260008301527f616c616e636500000000000000000000000000000000000000000000000000006020830152604082019050919050565b60006111de6021836115a0565b91507f45524332303a206275726e2066726f6d20746865207a65726f2061646472657360008301527f73000000000000000000000000000000000000000000000000000000000000006020830152604082019050919050565b60006112446025836115a0565b91507f45524332303a207472616e736665722066726f6d20746865207a65726f20616460008301527f64726573730000000000000000000000000000000000000000000000000000006020830152604082019050919050565b60006112aa6024836115a0565b91507f45524332303a20617070726f76652066726f6d20746865207a65726f2061646460008301527f72657373000000000000000000000000000000000000000000000000000000006020830152604082019050919050565b60006113106025836115a0565b91507f45524332303a2064656372656173656420616c6c6f77616e63652062656c6f7760008301527f207a65726f0000000000000000000000000000000000000000000000000000006020830152604082019050919050565b6000611376601f836115a0565b91507f45524332303a206d696e7420746f20746865207a65726f2061646472657373006000830152602082019050919050565b6113b281611679565b82525050565b6113c181611683565b82525050565b60006020820190506113dc6000830184610fa2565b92915050565b60006020820190506113f76000830184610fb1565b92915050565b600060208201905081810360008301526114178184610fc0565b905092915050565b6000602082019050818103600083015261143881610ff9565b9050919050565b600060208201905081810360008301526114588161105f565b9050919050565b60006020820190508181036000830152611478816110c5565b9050919050565b600060208201905081810360008301526114988161112b565b9050919050565b600060208201905081810360008301526114b88161116b565b9050919050565b600060208201905081810360008301526114d8816111d1565b9050919050565b600060208201905081810360008301526114f881611237565b9050919050565b600060208201905081810360008301526115188161129d565b9050919050565b6000602082019050818103600083015261153881611303565b9050919050565b6000602082019050818103600083015261155881611369565b9050919050565b600060208201905061157460008301846113a9565b92915050565b600060208201905061158f60008301846113b8565b92915050565b600081519050919050565b600082825260208201905092915050565b60006115bc82611679565b91506115c783611679565b9250827fffffffffffffffffffffffffffffffffffffffffffffffffffffffffffffffff038211156115fc576115fb6116f5565b5b828201905092915050565b600061161282611679565b915061161d83611679565b9250828210156116305761162f6116f5565b5b828203905092915050565b600061164682611659565b9050919050565b60008115159050919050565b600073ffffffffffffffffffffffffffffffffffffffff82169050919050565b6000819050919050565b600060ff82169050919050565b60005b838110156116ae578082015181840152602081019050611693565b838111156116bd576000848401525b50505050565b600060028204905060018216806116db57607f821691505b602082108114156116ef576116ee611724565b5b50919050565b7f4e487b7100000000000000000000000000000000000000000000000000000000600052601160045260246000fd5b7f4e487b7100000000000000000000000000000000000000000000000000000000600052602260045260246000fd5b6000601f19601f8301169050919050565b61176d8161163b565b811461177857600080fd5b50565b61178481611679565b811461178f57600080fd5b5056fea264697066735822122048a5d81f8370198e71efab9c846ef3b44ff6e487a6ae3acdd0c7ad92d30312a764736f6c63430008000033a2646970667358221220e91e796b9bfd262aa2ab1c1af15e9d83def971cbf56887d9818846333f3860ba64736f6c63430008000033",
  "immutableReferences": {},
  "source": "//SPDX-License-Identifier: MIT\r\npragma solidity ^0.8.0;\r\n\r\nimport \"@openzeppelin/contracts/utils/Context.sol\";\r\nimport \"@openzeppelin/contracts/token/ERC20/IERC20.sol\";\r\nimport \"@openzeppelin/contracts/token/ERC20/extensions/IERC20Metadata.sol\";\r\n\r\ncontract CouponFactory {\r\n\r\n    struct Vendor{\r\n        address account;\r\n        //check if the vendor exist, instead of using for loop\r\n        bool _exist;\r\n        //every vendor has its own token/coupon\r\n        ERC20 coupon;\r\n        mapping(uint=>Product) products;\r\n        //for getting off-chain product data\r\n        uint[] productIdList;\r\n        mapping(address=>Consumer) consumers;\r\n        //for getting off-chain consumer data\r\n        address[] consumerIdList;\r\n    }\r\n\r\n    struct Consumer {\r\n        Product purchasedProdcut; //which product the comsumer purchased\r\n        bool notSpent; //the customer already spent coupon or not\r\n        address id;\r\n    }\r\n\r\n    struct Product {\r\n        string name;\r\n        uint id;\r\n        uint256 price;\r\n        uint256 stock; \r\n        //check if the product exist, instead of using for loop\r\n        bool _exist;\r\n    }\r\n\r\n    //vendor info, token/coupon info and consumer info must be on chain\r\n   mapping(address=>Vendor) vendors;\r\n      //use id get vendor account address\r\n    mapping(string=>address) vendorsAdrs; \r\n\r\n    event couponCreate(string name, string symbol, uint256 totalSupply,address vendor);\r\n    event productSet(Product product,address vendor);\r\n    event consumerGetCoupon(Consumer consumer,address vendor);\r\n    event couponUsed(Consumer consumer,address vendor);\r\n    event productDeleted(uint id, address vendor);\r\n\r\n //function that check if the msg.sender is already a vendor\r\n    modifier hasVendor(address _vendor){\r\n        require(vendors[_vendor]._exist,\"not vendor\");\r\n        _;\r\n    }\r\n\r\nmodifier isOwner(){\r\n   require(vendors[msg.sender]._exist,\"Not owner\");\r\n   _;\r\n} \r\n\r\n//allow vendor reset the token,but the existing consumer will not able to use the previous token\r\nfunction resetToken(string memory _name, string memory _symbol, uint256 _tokenSupply) public isOwner {\r\n    vendors[msg.sender].coupon= new ERC20(_name, _symbol,msg.sender);\r\n    vendors[msg.sender].coupon._mint(msg.sender, _tokenSupply);\r\n}\r\n\r\n    //vendor can create its own token by calling this method\r\n    function createToken(string memory _name, string memory _symbol, uint256 _totalSupply) public  {\r\n        require(vendors[msg.sender]._exist==false,\"vendor exist!\");\r\n        vendors[msg.sender].coupon= new ERC20(_name, _symbol,msg.sender);\r\n        vendors[msg.sender].coupon._mint(msg.sender, _totalSupply);\r\n        //vendor can only be on vendors list by creating its own token\r\n         vendors[msg.sender]._exist=true;\r\n         emit couponCreate(_name, _symbol, _totalSupply,msg.sender);\r\n    }\r\n   \r\nfunction getVendorAddress(string memory vendorId) public view returns (address){\r\n    address vendorAdrs=vendorsAdrs[vendorId];\r\n    return vendorAdrs;\r\n}\r\n\r\n\r\n    function getBalance(address _vendorAdrs,address owner) public hasVendor(_vendorAdrs)  view  returns (uint256) {\r\n        return vendors[_vendorAdrs].coupon.balanceOf(owner);\r\n    }\r\n\r\n   function getTokenInfo(address _vendorAdrs) public hasVendor(_vendorAdrs) view returns (string memory _name, string memory _symbol, uint256 _totalSupply)  {\r\n         ERC20 coupon=vendors[_vendorAdrs].coupon;\r\n        return ( coupon.name(), coupon.symbol(), coupon.totalSupply());\r\n    }\r\n\r\n    function checkVendorExist(address _vendorAdrs) public view returns (bool){\r\n    return vendors[_vendorAdrs]._exist;\r\n}\r\n\r\nfunction checkIdUsed(uint id) public view returns (bool){\r\n  for(uint i=0; i< vendors[msg.sender].productIdList.length; i++){\r\n      if(vendors[msg.sender].productIdList[i]==id) {\r\n          return true;\r\n      }\r\n  }\r\n   return false;\r\n}\r\n\r\n        //only vendor can set product to its products list\r\n    function setProduct(string memory name,uint id,uint256 price,uint256 stock)external isOwner {\r\n        require(vendors[msg.sender].products[id]._exist==false,\"product existed\");\r\n        //the product id should be unique even if the product is deleted\r\n        require(checkIdUsed(id)==false,\"id used!\");\r\n        vendors[msg.sender].products[id]=Product(name,id,price,stock,true);\r\n        //set product id list for getting off chain products list\r\n         vendors[msg.sender].productIdList.push(id);\r\n         emit productSet(vendors[msg.sender].products[id],msg.sender);\r\n    }\r\n\r\n//we may not need to handle the fetch of all products in contract\r\n    //we can store the products data off-chain \r\n    //fetch those data in the front end by looping the productIdList.\r\n    function getProductIDList(address _vendorAdrs) public hasVendor(_vendorAdrs) view returns(uint[] memory){\r\n        uint[] memory productIdList=vendors[_vendorAdrs].productIdList;\r\n        return productIdList;\r\n    }\r\n\r\n    function getProducts(address _vendorAdrs) public hasVendor(_vendorAdrs) view returns (Product[] memory products){\r\n        uint[] memory productIdList=vendors[_vendorAdrs].productIdList;\r\n       Product[] memory Iproducts= new Product[](productIdList.length); \r\n       for (uint i = 0; i <productIdList.length; i++) {\r\n          Product memory Iproduct = vendors[_vendorAdrs].products[productIdList[i]];\r\n          Iproducts[i] = Iproduct;\r\n      }\r\n      return Iproducts;\r\n    }\r\n\r\n    function checkProductExist(uint id,address _vendorAdrs) public  hasVendor(_vendorAdrs) view returns (bool) {\r\n            Product memory product= vendors[_vendorAdrs].products[id];\r\n            return product._exist;\r\n    }\r\n\r\n    //delete product\r\n    function deleteProduct(uint id) public isOwner returns (bool) {\r\n        require(vendors[msg.sender].products[id]._exist,\"No product!\");\r\n        vendors[msg.sender].products[id].name=\"\";\r\n        vendors[msg.sender].products[id].price=0;\r\n        vendors[msg.sender].products[id].stock=0;\r\n        vendors[msg.sender].products[id]._exist=false;\r\n        emit productDeleted(id, msg.sender);\r\n        return true;\r\n    }\r\n\r\n   //consumer get token,one address is allowed to get one token/coupon only\r\n    function getCoupon(address _vendorAdrs, address _consumerAdrs) external hasVendor(_vendorAdrs)  returns (bool) {\r\n         require(_consumerAdrs != address(0), \"invalid address\");\r\n        //check if the receipient is the owner or not\r\n        require(_consumerAdrs!=_vendorAdrs,\"don't send coupon to the vendor!\");\r\n        //require(vendors[_vendorAdrs]._exist,\"No such vendor\");\r\n         ERC20 coupon=vendors[_vendorAdrs].coupon;\r\n        //check if consumer already has token or not\r\n        require(coupon.balanceOf(_consumerAdrs)==0,\"You already have the coupon!\");\r\n        //check if the balance of vendor >=1\r\n        require(coupon.balanceOf( _vendorAdrs)>=1,\"Not enough coupon!\");\r\n       (bool sent) =coupon.transfer(_consumerAdrs,1);\r\n        require(sent, \"Failed to buy the coupon\");\r\n        //create a consumer in vendor's consumers list\r\n        Consumer storage consumer =vendors[_vendorAdrs].consumers[_consumerAdrs];\r\n        consumer.notSpent=true;\r\n        consumer.id=_consumerAdrs;\r\n        emit consumerGetCoupon(consumer,_vendorAdrs);\r\n        return sent;\r\n    }\r\n\r\n    function useCoupon(address _vendorAdrs,uint productId) external hasVendor(_vendorAdrs) returns(bool){\r\n        //check if the product exists\r\n        require(vendors[_vendorAdrs].products[productId]._exist,\"product not found\");\r\n        Product memory product=vendors[_vendorAdrs].products[productId];\r\n        ERC20 coupon=vendors[_vendorAdrs].coupon;\r\n        //check if the stock of product bigger than 1\r\n        require(product.stock>=1,\"out of stock\");\r\n        //check if the msg.sender has 1 token and not spent yet\r\n        require(coupon.balanceOf(msg.sender)==1,\"invalid balance!\");\r\n        //vendor should not use coupon\r\n        require(msg.sender!=_vendorAdrs,\"vendor should not use coupon!\");\r\n        //the msg.sender can only use its own coupon\r\n        Consumer memory consumer=vendors[_vendorAdrs].consumers[msg.sender];\r\n        bool spent= consumer.notSpent;\r\n        require(spent,\"you have spent your token\");\r\n        product.stock-=1;\r\n        //add product to consumer\r\n        consumer.purchasedProdcut=product;\r\n        consumer.notSpent=false;\r\n        //burn the token\r\n        coupon.burn(msg.sender,1);\r\n        emit couponUsed(consumer,_vendorAdrs);\r\n    return true;\r\n    }\r\n}\r\n\r\n//this contract is copied from openzeppelin ERC20 contract, but I altered some function to public\r\n//in order to make them available after it is instantialized in other contract\r\ncontract ERC20 is Context,IERC20, IERC20Metadata {\r\n    mapping(address => uint256) private _balances;\r\n\r\n    mapping(address => mapping(address => uint256)) private _allowances;\r\n\r\n  address private _owner;\r\n\r\n    uint256 private _totalSupply;\r\n\r\n    string private _name;\r\n    string private _symbol;\r\n\r\n    /**\r\n     * @dev Sets the values for {name} and {symbol}.\r\n     *\r\n     * The default value of {decimals} is 18. To select a different value for\r\n     * {decimals} you should overload it.\r\n     *\r\n     * All two of these values are immutable: they can only be set once during\r\n     * construction.\r\n     */\r\n    constructor(string memory name_, string memory symbol_,address tokenOwner) {\r\n        _name = name_;\r\n        _symbol = symbol_;\r\n        _owner=tokenOwner;\r\n    }\r\n\r\n/**\r\n     * @dev Returns the address of the current owner.\r\n     */\r\n    function owner() public view virtual returns (address) {\r\n        return _owner;\r\n    }\r\n\r\n    /**\r\n     * @dev Returns the name of the token.\r\n     */\r\n    function name() public view virtual override returns (string memory) {\r\n        return _name;\r\n    }\r\n\r\n    /**\r\n     * @dev Returns the symbol of the token, usually a shorter version of the\r\n     * name.\r\n     */\r\n    function symbol() public view virtual override returns (string memory) {\r\n        return _symbol;\r\n    }\r\n\r\n    /**\r\n     * @dev Returns the number of decimals used to get its user representation.\r\n     * For example, if `decimals` equals `2`, a balance of `505` tokens should\r\n     * be displayed to a user as `5.05` (`505 / 10 ** 2`).\r\n     *\r\n     * Tokens usually opt for a value of 18, imitating the relationship between\r\n     * Ether and Wei. This is the value {ERC20} uses, unless this function is\r\n     * overridden;\r\n     *\r\n     * NOTE: This information is only used for _display_ purposes: it in\r\n     * no way affects any of the arithmetic of the contract, including\r\n     * {IERC20-balanceOf} and {IERC20-transfer}.\r\n     */\r\n    function decimals() public view virtual override returns (uint8) {\r\n       return 1;\r\n    }\r\n\r\n    /**\r\n     * @dev See {IERC20-totalSupply}.\r\n     */\r\n    function totalSupply() public view virtual override returns (uint256) {\r\n        return _totalSupply;\r\n    }\r\n\r\n    /**\r\n     * @dev See {IERC20-balanceOf}.\r\n     */\r\n    function balanceOf(address account) public view virtual override returns (uint256) {\r\n        return _balances[account];\r\n    }\r\n\r\n    /**\r\n     * @dev See {IERC20-transfer}.\r\n     *\r\n     * Requirements:\r\n     *\r\n     * - `to` cannot be the zero address.\r\n     * - the caller must have a balance of at least `amount`.\r\n     */\r\n    function transfer(address to, uint256 amount) public virtual override returns (bool) {\r\n        //address owner = _msgSender();\r\n        _transfer(owner(), to, amount);\r\n        return true;\r\n    }\r\n\r\n    /**\r\n     * @dev See {IERC20-allowance}.\r\n     */\r\n    function allowance(address tokenOwner, address spender) public view virtual override returns (uint256) {\r\n        return _allowances[tokenOwner][spender];\r\n    }\r\n\r\n    /**\r\n     * @dev See {IERC20-approve}.\r\n     *\r\n     * NOTE: If `amount` is the maximum `uint256`, the allowance is not updated on\r\n     * `transferFrom`. This is semantically equivalent to an infinite approval.\r\n     *\r\n     * Requirements:\r\n     *\r\n     * - `spender` cannot be the zero address.\r\n     */\r\n    function approve(address spender, uint256 amount) public virtual override returns (bool) {\r\n        //address owner = _msgSender();\r\n        _approve(owner(), spender, amount);\r\n        return true;\r\n    }\r\n\r\n    /**\r\n     * @dev See {IERC20-transferFrom}.\r\n     *\r\n     * Emits an {Approval} event indicating the updated allowance. This is not\r\n     * required by the EIP. See the note at the beginning of {ERC20}.\r\n     *\r\n     * NOTE: Does not update the allowance if the current allowance\r\n     * is the maximum `uint256`.\r\n     *\r\n     * Requirements:\r\n     *\r\n     * - `from` and `to` cannot be the zero address.\r\n     * - `from` must have a balance of at least `amount`.\r\n     * - the caller must have allowance for ``from``'s tokens of at least\r\n     * `amount`.\r\n     */\r\n    function transferFrom(\r\n        address from,\r\n        address to,\r\n        uint256 amount\r\n    ) public virtual override returns (bool) {\r\n        address spender = _msgSender();\r\n        _spendAllowance(from, spender, amount);\r\n        _transfer(from, to, amount);\r\n        return true;\r\n    }\r\n\r\n    /**\r\n     * @dev Atomically increases the allowance granted to `spender` by the caller.\r\n     *\r\n     * This is an alternative to {approve} that can be used as a mitigation for\r\n     * problems described in {IERC20-approve}.\r\n     *\r\n     * Emits an {Approval} event indicating the updated allowance.\r\n     *\r\n     * Requirements:\r\n     *\r\n     * - `spender` cannot be the zero address.\r\n     */\r\n    function increaseAllowance(address spender, uint256 addedValue) public virtual returns (bool) {\r\n        //address owner = _msgSender();\r\n        _approve(owner(), spender, allowance(owner(), spender) + addedValue);\r\n        return true;\r\n    }\r\n\r\n    /**\r\n     * @dev Atomically decreases the allowance granted to `spender` by the caller.\r\n     *\r\n     * This is an alternative to {approve} that can be used as a mitigation for\r\n     * problems described in {IERC20-approve}.\r\n     *\r\n     * Emits an {Approval} event indicating the updated allowance.\r\n     *\r\n     * Requirements:\r\n     *\r\n     * - `spender` cannot be the zero address.\r\n     * - `spender` must have allowance for the caller of at least\r\n     * `subtractedValue`.\r\n     */\r\n    function decreaseAllowance(address spender, uint256 subtractedValue) public virtual returns (bool) {\r\n        //address owner = _msgSender();\r\n        uint256 currentAllowance = allowance(owner(), spender);\r\n        require(currentAllowance >= subtractedValue, \"ERC20: decreased allowance below zero\");\r\n        unchecked {\r\n            _approve(owner(), spender, currentAllowance - subtractedValue);\r\n        }\r\n\r\n        return true;\r\n    }\r\n\r\n    /**\r\n     * @dev Moves `amount` of tokens from `sender` to `recipient`.\r\n     *\r\n     * This internal function is equivalent to {transfer}, and can be used to\r\n     * e.g. implement automatic token fees, slashing mechanisms, etc.\r\n     *\r\n     * Emits a {Transfer} event.\r\n     *\r\n     * Requirements:\r\n     *\r\n     * - `from` cannot be the zero address.\r\n     * - `to` cannot be the zero address.\r\n     * - `from` must have a balance of at least `amount`.\r\n     */\r\n    function _transfer(\r\n        address from,\r\n        address to,\r\n        uint256 amount\r\n    ) internal virtual {\r\n        require(from != address(0), \"ERC20: transfer from the zero address\");\r\n        require(to != address(0), \"ERC20: transfer to the zero address\");\r\n\r\n        _beforeTokenTransfer(from, to, amount);\r\n\r\n        uint256 fromBalance = _balances[from];\r\n        require(fromBalance >= amount, \"ERC20: transfer amount exceeds balance\");\r\n        unchecked {\r\n            _balances[from] = fromBalance - amount;\r\n        }\r\n        _balances[to] += amount;\r\n\r\n        emit Transfer(from, to, amount);\r\n\r\n        _afterTokenTransfer(from, to, amount);\r\n    }\r\n\r\n    /** @dev Creates `amount` tokens and assigns them to `account`, increasing\r\n     * the total supply.\r\n     *\r\n     * Emits a {Transfer} event with `from` set to the zero address.\r\n     *\r\n     * Requirements:\r\n     *\r\n     * - `account` cannot be the zero address.\r\n     */\r\n    function _mint(address account, uint256 amount) public virtual {\r\n        require(account != address(0), \"ERC20: mint to the zero address\");\r\n\r\n        _beforeTokenTransfer(address(0), account, amount);\r\n\r\n        _totalSupply += amount;\r\n        _balances[account] += amount;\r\n        emit Transfer(address(0), account, amount);\r\n\r\n        _afterTokenTransfer(address(0), account, amount);\r\n    }\r\n\r\n    /**\r\n     * @dev Destroys `amount` tokens from `account`, reducing the\r\n     * total supply.\r\n     *\r\n     * Emits a {Transfer} event with `to` set to the zero address.\r\n     *\r\n     * Requirements:\r\n     *\r\n     * - `account` cannot be the zero address.\r\n     * - `account` must have at least `amount` tokens.\r\n     */\r\n    function _burn(address account, uint256 amount) internal virtual {\r\n        require(account != address(0), \"ERC20: burn from the zero address\");\r\n\r\n        _beforeTokenTransfer(account, address(0), amount);\r\n\r\n        uint256 accountBalance = _balances[account];\r\n        require(accountBalance >= amount, \"ERC20: burn amount exceeds balance\");\r\n        unchecked {\r\n            _balances[account] = accountBalance - amount;\r\n        }\r\n        _totalSupply -= amount;\r\n\r\n        emit Transfer(account, address(0), amount);\r\n\r\n        _afterTokenTransfer(account, address(0), amount);\r\n    }\r\n  function burn(address tokenOwner,uint256 amount) public virtual {\r\n        _burn(tokenOwner, amount);\r\n    }\r\n    /**\r\n     * @dev Sets `amount` as the allowance of `spender` over the `owner` s tokens.\r\n     *\r\n     * This internal function is equivalent to `approve`, and can be used to\r\n     * e.g. set automatic allowances for certain subsystems, etc.\r\n     *\r\n     * Emits an {Approval} event.\r\n     *\r\n     * Requirements:\r\n     *\r\n     * - `owner` cannot be the zero address.\r\n     * - `spender` cannot be the zero address.\r\n     */\r\n    function _approve(\r\n        address tokenOwner,\r\n        address spender,\r\n        uint256 amount\r\n    ) internal virtual {\r\n        require(tokenOwner != address(0), \"ERC20: approve from the zero address\");\r\n        require(spender != address(0), \"ERC20: approve to the zero address\");\r\n\r\n        _allowances[tokenOwner][spender] = amount;\r\n        emit Approval(tokenOwner, spender, amount);\r\n    }\r\n\r\n    /**\r\n     * @dev Updates `tokenOwner` s allowance for `spender` based on spent `amount`.\r\n     *\r\n     * Does not update the allowance amount in case of infinite allowance.\r\n     * Revert if not enough allowance is available.\r\n     *\r\n     * Might emit an {Approval} event.\r\n     */\r\n    function _spendAllowance(\r\n        address tokenOwner,\r\n        address spender,\r\n        uint256 amount\r\n    ) internal virtual {\r\n        uint256 currentAllowance = allowance(tokenOwner, spender);\r\n        if (currentAllowance != type(uint256).max) {\r\n            require(currentAllowance >= amount, \"ERC20: insufficient allowance\");\r\n            unchecked {\r\n                _approve(tokenOwner, spender, currentAllowance - amount);\r\n            }\r\n        }\r\n    }\r\n\r\n    /**\r\n     * @dev Hook that is called before any transfer of tokens. This includes\r\n     * minting and burning.\r\n     *\r\n     * Calling conditions:\r\n     *\r\n     * - when `from` and `to` are both non-zero, `amount` of ``from``'s tokens\r\n     * will be transferred to `to`.\r\n     * - when `from` is zero, `amount` tokens will be minted for `to`.\r\n     * - when `to` is zero, `amount` of ``from``'s tokens will be burned.\r\n     * - `from` and `to` are never both zero.\r\n     *\r\n     * To learn more about hooks, head to xref:ROOT:extending-contracts.adoc#using-hooks[Using Hooks].\r\n     */\r\n    function _beforeTokenTransfer(\r\n        address from,\r\n        address to,\r\n        uint256 amount\r\n    ) internal virtual {}\r\n\r\n    /**\r\n     * @dev Hook that is called after any transfer of tokens. This includes\r\n     * minting and burning.\r\n     *\r\n     * Calling conditions:\r\n     *\r\n     * - when `from` and `to` are both non-zero, `amount` of ``from``'s tokens\r\n     * has been transferred to `to`.\r\n     * - when `from` is zero, `amount` tokens have been minted for `to`.\r\n     * - when `to` is zero, `amount` of ``from``'s tokens have been burned.\r\n     * - `from` and `to` are never both zero.\r\n     *\r\n     * To learn more about hooks, head to xref:ROOT:extending-contracts.adoc#using-hooks[Using Hooks].\r\n     */\r\n    function _afterTokenTransfer(\r\n        address from,\r\n        address to,\r\n        uint256 amount\r\n    ) internal virtual {}\r\n}",
  "sourcePath": "D:\\My Project\\blockchain\\CouponFactory\\contracts\\CouponFactory.sol",
  "compiler": {
    "name": "solc",
    "version": "0.8.0+commit.c7dfd78e.Emscripten.clang"
  },
  "schemaVersion": "3.4.4",
  "updatedAt": "2022-05-04T12:45:55.632Z",
  "devdoc": {
    "kind": "dev",
    "methods": {},
    "version": 1
  },
  "userdoc": {
    "kind": "user",
    "methods": {},
    "version": 1
  }
}