{
  "contractName": "CouponFactory",
  "abi": [
    {
      "anonymous": false,
      "inputs": [
        {
          "components": [
            {
              "components": [
                {
                  "internalType": "string",
                  "name": "name",
                  "type": "string"
                },
                {
                  "internalType": "uint256",
                  "name": "id",
                  "type": "uint256"
                },
                {
                  "internalType": "uint256",
                  "name": "price",
                  "type": "uint256"
                },
                {
                  "internalType": "uint256",
                  "name": "stock",
                  "type": "uint256"
                },
                {
                  "internalType": "bool",
                  "name": "_exist",
                  "type": "bool"
                }
              ],
              "internalType": "struct CouponFactory.Product",
              "name": "purchasedProdcut",
              "type": "tuple"
            },
            {
              "internalType": "bool",
              "name": "notSpent",
              "type": "bool"
            },
            {
              "internalType": "address",
              "name": "id",
              "type": "address"
            }
          ],
          "indexed": false,
          "internalType": "struct CouponFactory.Consumer",
          "name": "consumer",
          "type": "tuple"
        },
        {
          "indexed": false,
          "internalType": "address",
          "name": "vendor",
          "type": "address"
        }
      ],
      "name": "consumerGetCoupon",
      "type": "event"
    },
    {
      "anonymous": false,
      "inputs": [
        {
          "indexed": false,
          "internalType": "string",
          "name": "name",
          "type": "string"
        },
        {
          "indexed": false,
          "internalType": "string",
          "name": "symbol",
          "type": "string"
        },
        {
          "indexed": false,
          "internalType": "uint256",
          "name": "totalSupply",
          "type": "uint256"
        },
        {
          "indexed": false,
          "internalType": "address",
          "name": "vendor",
          "type": "address"
        }
      ],
      "name": "couponCreate",
      "type": "event"
    },
    {
      "anonymous": false,
      "inputs": [
        {
          "components": [
            {
              "components": [
                {
                  "internalType": "string",
                  "name": "name",
                  "type": "string"
                },
                {
                  "internalType": "uint256",
                  "name": "id",
                  "type": "uint256"
                },
                {
                  "internalType": "uint256",
                  "name": "price",
                  "type": "uint256"
                },
                {
                  "internalType": "uint256",
                  "name": "stock",
                  "type": "uint256"
                },
                {
                  "internalType": "bool",
                  "name": "_exist",
                  "type": "bool"
                }
              ],
              "internalType": "struct CouponFactory.Product",
              "name": "purchasedProdcut",
              "type": "tuple"
            },
            {
              "internalType": "bool",
              "name": "notSpent",
              "type": "bool"
            },
            {
              "internalType": "address",
              "name": "id",
              "type": "address"
            }
          ],
          "indexed": false,
          "internalType": "struct CouponFactory.Consumer",
          "name": "consumer",
          "type": "tuple"
        },
        {
          "indexed": false,
          "internalType": "address",
          "name": "vendor",
          "type": "address"
        }
      ],
      "name": "couponUsed",
      "type": "event"
    },
    {
      "anonymous": false,
      "inputs": [
        {
          "indexed": false,
          "internalType": "uint256",
          "name": "id",
          "type": "uint256"
        },
        {
          "indexed": false,
          "internalType": "address",
          "name": "vendor",
          "type": "address"
        }
      ],
      "name": "productDeleted",
      "type": "event"
    },
    {
      "anonymous": false,
      "inputs": [
        {
          "components": [
            {
              "internalType": "string",
              "name": "name",
              "type": "string"
            },
            {
              "internalType": "uint256",
              "name": "id",
              "type": "uint256"
            },
            {
              "internalType": "uint256",
              "name": "price",
              "type": "uint256"
            },
            {
              "internalType": "uint256",
              "name": "stock",
              "type": "uint256"
            },
            {
              "internalType": "bool",
              "name": "_exist",
              "type": "bool"
            }
          ],
          "indexed": false,
          "internalType": "struct CouponFactory.Product",
          "name": "product",
          "type": "tuple"
        },
        {
          "indexed": false,
          "internalType": "address",
          "name": "vendor",
          "type": "address"
        }
      ],
      "name": "productSet",
      "type": "event"
    },
    {
      "inputs": [
        {
          "internalType": "string",
          "name": "_name",
          "type": "string"
        },
        {
          "internalType": "string",
          "name": "_symbol",
          "type": "string"
        },
        {
          "internalType": "uint256",
          "name": "_tokenSupply",
          "type": "uint256"
        }
      ],
      "name": "resetToken",
      "outputs": [],
      "stateMutability": "nonpayable",
      "type": "function"
    },
    {
      "inputs": [
        {
          "internalType": "address",
          "name": "_vendor",
          "type": "address"
        }
      ],
      "name": "isVendor",
      "outputs": [
        {
          "internalType": "bool",
          "name": "",
          "type": "bool"
        }
      ],
      "stateMutability": "view",
      "type": "function",
      "constant": true
    },
    {
      "inputs": [
        {
          "internalType": "string",
          "name": "_name",
          "type": "string"
        },
        {
          "internalType": "string",
          "name": "_symbol",
          "type": "string"
        },
        {
          "internalType": "uint256",
          "name": "_totalSupply",
          "type": "uint256"
        }
      ],
      "name": "createToken",
      "outputs": [],
      "stateMutability": "nonpayable",
      "type": "function"
    },
    {
      "inputs": [
        {
          "internalType": "address",
          "name": "_vendorAdrs",
          "type": "address"
        },
        {
          "internalType": "address",
          "name": "owner",
          "type": "address"
        }
      ],
      "name": "getBalance",
      "outputs": [
        {
          "internalType": "uint256",
          "name": "",
          "type": "uint256"
        }
      ],
      "stateMutability": "view",
      "type": "function",
      "constant": true
    },
    {
      "inputs": [
        {
          "internalType": "address",
          "name": "_vendorAdrs",
          "type": "address"
        }
      ],
      "name": "getTokenInfo",
      "outputs": [
        {
          "internalType": "string",
          "name": "_name",
          "type": "string"
        },
        {
          "internalType": "string",
          "name": "_symbol",
          "type": "string"
        },
        {
          "internalType": "uint256",
          "name": "_totalSupply",
          "type": "uint256"
        }
      ],
      "stateMutability": "view",
      "type": "function",
      "constant": true
    },
    {
      "inputs": [
        {
          "internalType": "address",
          "name": "_vendorAdrs",
          "type": "address"
        }
      ],
      "name": "getTokenOwner",
      "outputs": [
        {
          "internalType": "address",
          "name": "",
          "type": "address"
        }
      ],
      "stateMutability": "view",
      "type": "function",
      "constant": true
    },
    {
      "inputs": [
        {
          "internalType": "string",
          "name": "name",
          "type": "string"
        },
        {
          "internalType": "uint256",
          "name": "id",
          "type": "uint256"
        },
        {
          "internalType": "uint256",
          "name": "price",
          "type": "uint256"
        },
        {
          "internalType": "uint256",
          "name": "stock",
          "type": "uint256"
        }
      ],
      "name": "setProduct",
      "outputs": [],
      "stateMutability": "nonpayable",
      "type": "function"
    },
    {
      "inputs": [
        {
          "internalType": "address",
          "name": "_vendorAdrs",
          "type": "address"
        }
      ],
      "name": "getProductIDList",
      "outputs": [
        {
          "internalType": "uint256[]",
          "name": "",
          "type": "uint256[]"
        }
      ],
      "stateMutability": "view",
      "type": "function",
      "constant": true
    },
    {
      "inputs": [
        {
          "internalType": "address",
          "name": "_vendorAdrs",
          "type": "address"
        }
      ],
      "name": "getProducts",
      "outputs": [
        {
          "components": [
            {
              "internalType": "string",
              "name": "name",
              "type": "string"
            },
            {
              "internalType": "uint256",
              "name": "id",
              "type": "uint256"
            },
            {
              "internalType": "uint256",
              "name": "price",
              "type": "uint256"
            },
            {
              "internalType": "uint256",
              "name": "stock",
              "type": "uint256"
            },
            {
              "internalType": "bool",
              "name": "_exist",
              "type": "bool"
            }
          ],
          "internalType": "struct CouponFactory.Product[]",
          "name": "products",
          "type": "tuple[]"
        }
      ],
      "stateMutability": "view",
      "type": "function",
      "constant": true
    },
    {
      "inputs": [
        {
          "internalType": "uint256",
          "name": "id",
          "type": "uint256"
        },
        {
          "internalType": "address",
          "name": "_vendorAdrs",
          "type": "address"
        }
      ],
      "name": "checkProductExist",
      "outputs": [
        {
          "internalType": "bool",
          "name": "",
          "type": "bool"
        }
      ],
      "stateMutability": "view",
      "type": "function",
      "constant": true
    },
    {
      "inputs": [
        {
          "internalType": "uint256",
          "name": "id",
          "type": "uint256"
        }
      ],
      "name": "deleteProduct",
      "outputs": [
        {
          "internalType": "bool",
          "name": "",
          "type": "bool"
        }
      ],
      "stateMutability": "nonpayable",
      "type": "function"
    },
    {
      "inputs": [
        {
          "internalType": "address",
          "name": "_vendorAdrs",
          "type": "address"
        },
        {
          "internalType": "address",
          "name": "_consumerAdrs",
          "type": "address"
        }
      ],
      "name": "getCoupon",
      "outputs": [
        {
          "internalType": "bool",
          "name": "",
          "type": "bool"
        }
      ],
      "stateMutability": "nonpayable",
      "type": "function"
    },
    {
      "inputs": [
        {
          "internalType": "address",
          "name": "_vendorAdrs",
          "type": "address"
        },
        {
          "internalType": "uint256",
          "name": "productId",
          "type": "uint256"
        }
      ],
      "name": "useCoupon",
      "outputs": [
        {
          "internalType": "bool",
          "name": "",
          "type": "bool"
        }
      ],
      "stateMutability": "nonpayable",
      "type": "function"
    }
  ],
  "bytecode": "0x608060405234801561001057600080fd5b50615c6a806100206000396000f3fe60806040523480156200001157600080fd5b5060043610620000e25760003560e01c806368c27acc1162000099578063d4fac45d116200006f578063d4fac45d146200028d578063dc17c9ca14620002c3578063ed90c7b714620002f9578063ee54d54f146200032f57620000e2565b806368c27acc14620002015780636ec94d6c1462000237578063889ec4dd146200026d57620000e2565b80631691473c14620000e75780631f69565f146200011d5780632494f05e14620001555780633c25c06b14620001755780635b06053014620001ab57806365577a1214620001cb575b600080fd5b620001056004803603810190620000ff919062002ac3565b62000365565b604051620001149190620037d7565b60405180910390f35b6200013b600480360381019062000135919062002ac3565b620006fc565b6040516200014c9392919062003887565b60405180910390f35b6200017360048036038101906200016d919062002c0e565b62000996565b005b6200019360048036038101906200018d919062002b5c565b62000bba565b604051620001a291906200381f565b60405180910390f35b620001c96004803603810190620001c3919062002c0e565b6200133f565b005b620001e96004803603810190620001e3919062002d73565b62001603565b604051620001f891906200381f565b60405180910390f35b6200021f600480360381019062000219919062002b1b565b620017d8565b6040516200022e91906200381f565b60405180910390f35b6200025560048036038101906200024f919062002ac3565b62001d62565b604051620002649190620037fb565b60405180910390f35b6200028b600480360381019062000285919062002c96565b62001e94565b005b620002ab6004803603810190620002a5919062002b1b565b620021a7565b604051620002ba919062003c0b565b60405180910390f35b620002e16004803603810190620002db919062002ac3565b62002332565b604051620002f0919062003760565b60405180910390f35b62000317600480360381019062000311919062002d1b565b620024af565b6040516200032691906200381f565b60405180910390f35b6200034d600480360381019062000347919062002ac3565b62002825565b6040516200035c91906200381f565b60405180910390f35b60606000808373ffffffffffffffffffffffffffffffffffffffff1673ffffffffffffffffffffffffffffffffffffffff16815260200190815260200160002060000160149054906101000a900460ff16620003f8576040517f08c379a0000000000000000000000000000000000000000000000000000000008152600401620003ef9062003a81565b60405180910390fd5b60008060008473ffffffffffffffffffffffffffffffffffffffff1673ffffffffffffffffffffffffffffffffffffffff1681526020019081526020016000206003018054806020026020016040519081016040528092919081815260200182805480156200048757602002820191906000526020600020905b81548152602001906001019080831162000472575b505050505090506000815167ffffffffffffffff811115620004d2577f4e487b7100000000000000000000000000000000000000000000000000000000600052604160045260246000fd5b6040519080825280602002602001820160405280156200050f57816020015b620004fb6200287d565b815260200190600190039081620004f15790505b50905060005b8251811015620006f15760008060008773ffffffffffffffffffffffffffffffffffffffff1673ffffffffffffffffffffffffffffffffffffffff16815260200190815260200160002060020160008584815181106200059e577f4e487b7100000000000000000000000000000000000000000000000000000000600052603260045260246000fd5b602002602001015181526020019081526020016000206040518060a0016040529081600082018054620005d19062003e85565b80601f0160208091040260200160405190810160405280929190818152602001828054620005ff9062003e85565b8015620006505780601f10620006245761010080835404028352916020019162000650565b820191906000526020600020905b8154815290600101906020018083116200063257829003601f168201915b505050505081526020016001820154815260200160028201548152602001600382015481526020016004820160009054906101000a900460ff161515151581525050905080838381518110620006cf577f4e487b7100000000000000000000000000000000000000000000000000000000600052603260045260246000fd5b6020026020010181905250508080620006e89062003f15565b91505062000515565b508092505050919050565b60608060008060008573ffffffffffffffffffffffffffffffffffffffff1673ffffffffffffffffffffffffffffffffffffffff16815260200190815260200160002060000160149054906101000a900460ff1662000792576040517f08c379a0000000000000000000000000000000000000000000000000000000008152600401620007899062003a1b565b60405180910390fd5b60008060008673ffffffffffffffffffffffffffffffffffffffff1673ffffffffffffffffffffffffffffffffffffffff16815260200190815260200160002060010160009054906101000a900473ffffffffffffffffffffffffffffffffffffffff1690508073ffffffffffffffffffffffffffffffffffffffff166306fdde036040518163ffffffff1660e01b815260040160006040518083038186803b1580156200083f57600080fd5b505afa15801562000854573d6000803e3d6000fd5b505050506040513d6000823e3d601f19601f820116820180604052508101906200087f919062002bc9565b8173ffffffffffffffffffffffffffffffffffffffff166395d89b416040518163ffffffff1660e01b815260040160006040518083038186803b158015620008c657600080fd5b505afa158015620008db573d6000803e3d6000fd5b505050506040513d6000823e3d601f19601f8201168201806040525081019062000906919062002bc9565b8273ffffffffffffffffffffffffffffffffffffffff166318160ddd6040518163ffffffff1660e01b815260040160206040518083038186803b1580156200094d57600080fd5b505afa15801562000962573d6000803e3d6000fd5b505050506040513d601f19601f8201168201806040525081019062000988919062002d47565b935093509350509193909250565b6000803373ffffffffffffffffffffffffffffffffffffffff1673ffffffffffffffffffffffffffffffffffffffff16815260200190815260200160002060000160149054906101000a900460ff1662000a27576040517f08c379a000000000000000000000000000000000000000000000000000000000815260040162000a1e9062003971565b60405180910390fd5b82823360405162000a3890620028ae565b62000a46939291906200383c565b604051809103906000f08015801562000a63573d6000803e3d6000fd5b506000803373ffffffffffffffffffffffffffffffffffffffff1673ffffffffffffffffffffffffffffffffffffffff16815260200190815260200160002060010160006101000a81548173ffffffffffffffffffffffffffffffffffffffff021916908373ffffffffffffffffffffffffffffffffffffffff1602179055506000803373ffffffffffffffffffffffffffffffffffffffff1673ffffffffffffffffffffffffffffffffffffffff16815260200190815260200160002060010160009054906101000a900473ffffffffffffffffffffffffffffffffffffffff1673ffffffffffffffffffffffffffffffffffffffff16634e6ec24733836040518363ffffffff1660e01b815260040162000b81929190620037aa565b600060405180830381600087803b15801562000b9c57600080fd5b505af115801562000bb1573d6000803e3d6000fd5b50505050505050565b60008060008473ffffffffffffffffffffffffffffffffffffffff1673ffffffffffffffffffffffffffffffffffffffff16815260200190815260200160002060000160149054906101000a900460ff1662000c4d576040517f08c379a000000000000000000000000000000000000000000000000000000000815260040162000c449062003a1b565b60405180910390fd5b6000808473ffffffffffffffffffffffffffffffffffffffff1673ffffffffffffffffffffffffffffffffffffffff168152602001908152602001600020600201600083815260200190815260200160002060040160009054906101000a900460ff1662000cf2576040517f08c379a000000000000000000000000000000000000000000000000000000000815260040162000ce99062003aa3565b60405180910390fd5b60008060008573ffffffffffffffffffffffffffffffffffffffff1673ffffffffffffffffffffffffffffffffffffffff16815260200190815260200160002060020160008481526020019081526020016000206040518060a001604052908160008201805462000d639062003e85565b80601f016020809104026020016040519081016040528092919081815260200182805462000d919062003e85565b801562000de25780601f1062000db65761010080835404028352916020019162000de2565b820191906000526020600020905b81548152906001019060200180831162000dc457829003601f168201915b505050505081526020016001820154815260200160028201548152602001600382015481526020016004820160009054906101000a900460ff161515151581525050905060008060008673ffffffffffffffffffffffffffffffffffffffff1673ffffffffffffffffffffffffffffffffffffffff16815260200190815260200160002060010160009054906101000a900473ffffffffffffffffffffffffffffffffffffffff16905060018260600151101562000ed7576040517f08c379a000000000000000000000000000000000000000000000000000000000815260040162000ece9062003b09565b60405180910390fd5b60018173ffffffffffffffffffffffffffffffffffffffff166370a08231336040518263ffffffff1660e01b815260040162000f14919062003760565b60206040518083038186803b15801562000f2d57600080fd5b505afa15801562000f42573d6000803e3d6000fd5b505050506040513d601f19601f8201168201806040525081019062000f68919062002d47565b1462000fab576040517f08c379a000000000000000000000000000000000000000000000000000000000815260040162000fa2906200394f565b60405180910390fd5b8473ffffffffffffffffffffffffffffffffffffffff163373ffffffffffffffffffffffffffffffffffffffff1614156200101d576040517f08c379a00000000000000000000000000000000000000000000000000000000081526004016200101490620039b5565b60405180910390fd5b60008060008773ffffffffffffffffffffffffffffffffffffffff1673ffffffffffffffffffffffffffffffffffffffff16815260200190815260200160002060040160003373ffffffffffffffffffffffffffffffffffffffff1673ffffffffffffffffffffffffffffffffffffffff168152602001908152602001600020604051806060016040529081600082016040518060a0016040529081600082018054620010ca9062003e85565b80601f0160208091040260200160405190810160405280929190818152602001828054620010f89062003e85565b8015620011495780601f106200111d5761010080835404028352916020019162001149565b820191906000526020600020905b8154815290600101906020018083116200112b57829003601f168201915b505050505081526020016001820154815260200160028201548152602001600382015481526020016004820160009054906101000a900460ff16151515158152505081526020016005820160009054906101000a900460ff161515151581526020016005820160019054906101000a900473ffffffffffffffffffffffffffffffffffffffff1673ffffffffffffffffffffffffffffffffffffffff1673ffffffffffffffffffffffffffffffffffffffff16815250509050600081602001519050806200124e576040517f08c379a0000000000000000000000000000000000000000000000000000000008152600401620012459062003993565b60405180910390fd5b60018460600181815162001263919062003d70565b9150818152505083826000018190525060008260200190151590811515815250508273ffffffffffffffffffffffffffffffffffffffff16639dc29fac3360016040518363ffffffff1660e01b8152600401620012c29291906200377d565b600060405180830381600087803b158015620012dd57600080fd5b505af1158015620012f2573d6000803e3d6000fd5b505050507f260d0f084e7c5b2ced210851014c0a62bdd2bdba672073567d59286c328e0ece82886040516200132992919062003b6f565b60405180910390a1600194505050505092915050565b600015156000803373ffffffffffffffffffffffffffffffffffffffff1673ffffffffffffffffffffffffffffffffffffffff16815260200190815260200160002060000160149054906101000a900460ff16151514620013d7576040517f08c379a0000000000000000000000000000000000000000000000000000000008152600401620013ce9062003a5f565b60405180910390fd5b828233604051620013e890620028ae565b620013f6939291906200383c565b604051809103906000f08015801562001413573d6000803e3d6000fd5b506000803373ffffffffffffffffffffffffffffffffffffffff1673ffffffffffffffffffffffffffffffffffffffff16815260200190815260200160002060010160006101000a81548173ffffffffffffffffffffffffffffffffffffffff021916908373ffffffffffffffffffffffffffffffffffffffff1602179055506000803373ffffffffffffffffffffffffffffffffffffffff1673ffffffffffffffffffffffffffffffffffffffff16815260200190815260200160002060010160009054906101000a900473ffffffffffffffffffffffffffffffffffffffff1673ffffffffffffffffffffffffffffffffffffffff16634e6ec24733836040518363ffffffff1660e01b815260040162001531929190620037aa565b600060405180830381600087803b1580156200154c57600080fd5b505af115801562001561573d6000803e3d6000fd5b5050505060016000803373ffffffffffffffffffffffffffffffffffffffff1673ffffffffffffffffffffffffffffffffffffffff16815260200190815260200160002060000160146101000a81548160ff0219169083151502179055507f575ebbe83b9bae9316416e6a75ae380ba3cbe8d21708139283cd0dce393a28de83838333604051620015f69493929190620038d2565b60405180910390a1505050565b60008060008373ffffffffffffffffffffffffffffffffffffffff1673ffffffffffffffffffffffffffffffffffffffff16815260200190815260200160002060000160149054906101000a900460ff1662001696576040517f08c379a00000000000000000000000000000000000000000000000000000000081526004016200168d9062003a81565b60405180910390fd5b60008060008473ffffffffffffffffffffffffffffffffffffffff1673ffffffffffffffffffffffffffffffffffffffff16815260200190815260200160002060020160008581526020019081526020016000206040518060a0016040529081600082018054620017079062003e85565b80601f0160208091040260200160405190810160405280929190818152602001828054620017359062003e85565b8015620017865780601f106200175a5761010080835404028352916020019162001786565b820191906000526020600020905b8154815290600101906020018083116200176857829003601f168201915b505050505081526020016001820154815260200160028201548152602001600382015481526020016004820160009054906101000a900460ff1615151515815250509050806080015191505092915050565b60008073ffffffffffffffffffffffffffffffffffffffff168273ffffffffffffffffffffffffffffffffffffffff1614156200184c576040517f08c379a00000000000000000000000000000000000000000000000000000000081526004016200184390620039d7565b60405180910390fd5b8273ffffffffffffffffffffffffffffffffffffffff168273ffffffffffffffffffffffffffffffffffffffff161415620018be576040517f08c379a0000000000000000000000000000000000000000000000000000000008152600401620018b59062003b4d565b60405180910390fd5b6000808473ffffffffffffffffffffffffffffffffffffffff1673ffffffffffffffffffffffffffffffffffffffff16815260200190815260200160002060000160149054906101000a900460ff166200194f576040517f08c379a0000000000000000000000000000000000000000000000000000000008152600401620019469062003a1b565b60405180910390fd5b60008060008573ffffffffffffffffffffffffffffffffffffffff1673ffffffffffffffffffffffffffffffffffffffff16815260200190815260200160002060010160009054906101000a900473ffffffffffffffffffffffffffffffffffffffff16905060008173ffffffffffffffffffffffffffffffffffffffff166370a08231856040518263ffffffff1660e01b8152600401620019f2919062003760565b60206040518083038186803b15801562001a0b57600080fd5b505afa15801562001a20573d6000803e3d6000fd5b505050506040513d601f19601f8201168201806040525081019062001a46919062002d47565b1462001a89576040517f08c379a000000000000000000000000000000000000000000000000000000000815260040162001a8090620039f9565b60405180910390fd5b60018173ffffffffffffffffffffffffffffffffffffffff166370a08231866040518263ffffffff1660e01b815260040162001ac6919062003760565b60206040518083038186803b15801562001adf57600080fd5b505afa15801562001af4573d6000803e3d6000fd5b505050506040513d601f19601f8201168201806040525081019062001b1a919062002d47565b101562001b5e576040517f08c379a000000000000000000000000000000000000000000000000000000000815260040162001b559062003a3d565b60405180910390fd5b60008173ffffffffffffffffffffffffffffffffffffffff1663a9059cbb8560016040518363ffffffff1660e01b815260040162001b9e9291906200377d565b602060405180830381600087803b15801562001bb957600080fd5b505af115801562001bce573d6000803e3d6000fd5b505050506040513d601f19601f8201168201806040525081019062001bf4919062002b9d565b90508062001c39576040517f08c379a000000000000000000000000000000000000000000000000000000000815260040162001c309062003b2b565b60405180910390fd5b60008060008773ffffffffffffffffffffffffffffffffffffffff1673ffffffffffffffffffffffffffffffffffffffff16815260200190815260200160002060040160008673ffffffffffffffffffffffffffffffffffffffff1673ffffffffffffffffffffffffffffffffffffffff168152602001908152602001600020905060018160050160006101000a81548160ff021916908315150217905550848160050160016101000a81548173ffffffffffffffffffffffffffffffffffffffff021916908373ffffffffffffffffffffffffffffffffffffffff1602179055507fb7e5506455a10d7814101f306ad795179a86013bcc2e5ec192899f8894104a50818760405162001d4e92919062003ba3565b60405180910390a181935050505092915050565b60606000808373ffffffffffffffffffffffffffffffffffffffff1673ffffffffffffffffffffffffffffffffffffffff16815260200190815260200160002060000160149054906101000a900460ff1662001df5576040517f08c379a000000000000000000000000000000000000000000000000000000000815260040162001dec9062003a81565b60405180910390fd5b60008060008473ffffffffffffffffffffffffffffffffffffffff1673ffffffffffffffffffffffffffffffffffffffff16815260200190815260200160002060030180548060200260200160405190810160405280929190818152602001828054801562001e8457602002820191906000526020600020905b81548152602001906001019080831162001e6f575b5050505050905080915050919050565b6000803373ffffffffffffffffffffffffffffffffffffffff1673ffffffffffffffffffffffffffffffffffffffff16815260200190815260200160002060000160149054906101000a900460ff1662001f25576040517f08c379a000000000000000000000000000000000000000000000000000000000815260040162001f1c906200392d565b60405180910390fd5b600015156000803373ffffffffffffffffffffffffffffffffffffffff1673ffffffffffffffffffffffffffffffffffffffff168152602001908152602001600020600201600085815260200190815260200160002060040160009054906101000a900460ff1615151462001fd1576040517f08c379a000000000000000000000000000000000000000000000000000000000815260040162001fc89062003ae7565b60405180910390fd5b6040518060a00160405280858152602001848152602001838152602001828152602001600115158152506000803373ffffffffffffffffffffffffffffffffffffffff1673ffffffffffffffffffffffffffffffffffffffff168152602001908152602001600020600201600085815260200190815260200160002060008201518160000190805190602001906200206b929190620028bc565b5060208201518160010155604082015181600201556060820151816003015560808201518160040160006101000a81548160ff0219169083151502179055509050506000803373ffffffffffffffffffffffffffffffffffffffff1673ffffffffffffffffffffffffffffffffffffffff1681526020019081526020016000206003018390806001815401808255809150506001900390600052602060002001600090919091909150557fd1e2fbf044d14ac6729f5e635dd169bce44b7cbbe7247be2a9bd4605987570616000803373ffffffffffffffffffffffffffffffffffffffff1673ffffffffffffffffffffffffffffffffffffffff1681526020019081526020016000206002016000858152602001908152602001600020336040516200219992919062003bd7565b60405180910390a150505050565b60008060008473ffffffffffffffffffffffffffffffffffffffff1673ffffffffffffffffffffffffffffffffffffffff16815260200190815260200160002060000160149054906101000a900460ff166200223a576040517f08c379a0000000000000000000000000000000000000000000000000000000008152600401620022319062003a1b565b60405180910390fd5b6000808473ffffffffffffffffffffffffffffffffffffffff1673ffffffffffffffffffffffffffffffffffffffff16815260200190815260200160002060010160009054906101000a900473ffffffffffffffffffffffffffffffffffffffff1673ffffffffffffffffffffffffffffffffffffffff166370a08231836040518263ffffffff1660e01b8152600401620022d6919062003760565b60206040518083038186803b158015620022ef57600080fd5b505afa15801562002304573d6000803e3d6000fd5b505050506040513d601f19601f820116820180604052508101906200232a919062002d47565b905092915050565b60008060008373ffffffffffffffffffffffffffffffffffffffff1673ffffffffffffffffffffffffffffffffffffffff16815260200190815260200160002060000160149054906101000a900460ff16620023c5576040517f08c379a0000000000000000000000000000000000000000000000000000000008152600401620023bc9062003a1b565b60405180910390fd5b6000808373ffffffffffffffffffffffffffffffffffffffff1673ffffffffffffffffffffffffffffffffffffffff16815260200190815260200160002060010160009054906101000a900473ffffffffffffffffffffffffffffffffffffffff1673ffffffffffffffffffffffffffffffffffffffff16638da5cb5b6040518163ffffffff1660e01b815260040160206040518083038186803b1580156200246d57600080fd5b505afa15801562002482573d6000803e3d6000fd5b505050506040513d601f19601f82011682018060405250810190620024a8919062002aef565b9050919050565b60008060003373ffffffffffffffffffffffffffffffffffffffff1673ffffffffffffffffffffffffffffffffffffffff16815260200190815260200160002060000160149054906101000a900460ff1662002542576040517f08c379a000000000000000000000000000000000000000000000000000000000815260040162002539906200392d565b60405180910390fd5b6000803373ffffffffffffffffffffffffffffffffffffffff1673ffffffffffffffffffffffffffffffffffffffff168152602001908152602001600020600201600083815260200190815260200160002060040160009054906101000a900460ff16620025e7576040517f08c379a0000000000000000000000000000000000000000000000000000000008152600401620025de9062003ac5565b60405180910390fd5b604051806020016040528060008152506000803373ffffffffffffffffffffffffffffffffffffffff1673ffffffffffffffffffffffffffffffffffffffff1681526020019081526020016000206002016000848152602001908152602001600020600001908051906020019062002661929190620028bc565b5060008060003373ffffffffffffffffffffffffffffffffffffffff1673ffffffffffffffffffffffffffffffffffffffff16815260200190815260200160002060020160008481526020019081526020016000206001018190555060008060003373ffffffffffffffffffffffffffffffffffffffff1673ffffffffffffffffffffffffffffffffffffffff16815260200190815260200160002060020160008481526020019081526020016000206002018190555060008060003373ffffffffffffffffffffffffffffffffffffffff1673ffffffffffffffffffffffffffffffffffffffff16815260200190815260200160002060020160008481526020019081526020016000206003018190555060008060003373ffffffffffffffffffffffffffffffffffffffff1673ffffffffffffffffffffffffffffffffffffffff168152602001908152602001600020600201600084815260200190815260200160002060040160006101000a81548160ff0219169083151502179055507fa1bf3b788f3a0cc6b88547dd58694ec8018fbdab27fa1ef8674e6cb4a31dc65482336040516200281492919062003c28565b60405180910390a160019050919050565b60008060008373ffffffffffffffffffffffffffffffffffffffff1673ffffffffffffffffffffffffffffffffffffffff16815260200190815260200160002060000160149054906101000a900460ff169050919050565b6040518060a00160405280606081526020016000815260200160008152602001600081526020016000151581525090565b611bcb806200406a83390190565b828054620028ca9062003e85565b90600052602060002090601f016020900481019282620028ee57600085556200293a565b82601f106200290957805160ff19168380011785556200293a565b828001600101855582156200293a579182015b82811115620029395782518255916020019190600101906200291c565b5b5090506200294991906200294d565b5090565b5b80821115620029685760008160009055506001016200294e565b5090565b6000620029836200297d8462003c89565b62003c55565b9050828152602081018484840111156200299c57600080fd5b620029a984828562003e40565b509392505050565b6000620029c8620029c28462003c89565b62003c55565b905082815260208101848484011115620029e157600080fd5b620029ee84828562003e4f565b509392505050565b60008135905062002a07816200401b565b92915050565b60008151905062002a1e816200401b565b92915050565b60008151905062002a358162004035565b92915050565b600082601f83011262002a4d57600080fd5b813562002a5f8482602086016200296c565b91505092915050565b600082601f83011262002a7a57600080fd5b815162002a8c848260208601620029b1565b91505092915050565b60008135905062002aa6816200404f565b92915050565b60008151905062002abd816200404f565b92915050565b60006020828403121562002ad657600080fd5b600062002ae684828501620029f6565b91505092915050565b60006020828403121562002b0257600080fd5b600062002b128482850162002a0d565b91505092915050565b6000806040838503121562002b2f57600080fd5b600062002b3f85828601620029f6565b925050602062002b5285828601620029f6565b9150509250929050565b6000806040838503121562002b7057600080fd5b600062002b8085828601620029f6565b925050602062002b938582860162002a95565b9150509250929050565b60006020828403121562002bb057600080fd5b600062002bc08482850162002a24565b91505092915050565b60006020828403121562002bdc57600080fd5b600082015167ffffffffffffffff81111562002bf757600080fd5b62002c058482850162002a68565b91505092915050565b60008060006060848603121562002c2457600080fd5b600084013567ffffffffffffffff81111562002c3f57600080fd5b62002c4d8682870162002a3b565b935050602084013567ffffffffffffffff81111562002c6b57600080fd5b62002c798682870162002a3b565b925050604062002c8c8682870162002a95565b9150509250925092565b6000806000806080858703121562002cad57600080fd5b600085013567ffffffffffffffff81111562002cc857600080fd5b62002cd68782880162002a3b565b945050602062002ce98782880162002a95565b935050604062002cfc8782880162002a95565b925050606062002d0f8782880162002a95565b91505092959194509250565b60006020828403121562002d2e57600080fd5b600062002d3e8482850162002a95565b91505092915050565b60006020828403121562002d5a57600080fd5b600062002d6a8482850162002aac565b91505092915050565b6000806040838503121562002d8757600080fd5b600062002d978582860162002a95565b925050602062002daa85828601620029f6565b9150509250929050565b600062002dc2838362003554565b905092915050565b600062002dd883836200373e565b60208301905092915050565b62002def8162003de2565b82525050565b62002e008162003de2565b82525050565b600062002e138262003cf1565b62002e1f818562003d2c565b93508360208202850162002e338562003cbc565b8060005b8581101562002e75578484038952815162002e53858262002db4565b945062002e608362003d12565b925060208a0199505060018101905062002e37565b50829750879550505050505092915050565b600062002e948262003cfc565b62002ea0818562003d3d565b935062002ead8362003ccc565b8060005b8381101562002ee457815162002ec8888262002dca565b975062002ed58362003d1f565b92505060018101905062002eb1565b5085935050505092915050565b62002efc8162003df6565b82525050565b62002f0d8162003df6565b82525050565b62002f1e8162003e2c565b82525050565b600062002f318262003d07565b62002f3d818562003d4e565b935062002f4f81856020860162003e4f565b62002f5a8162003ff0565b840191505092915050565b600062002f728262003d07565b62002f7e818562003d5f565b935062002f9081856020860162003e4f565b62002f9b8162003ff0565b840191505092915050565b6000815462002fb58162003e85565b62002fc1818662003d4e565b9450600182166000811462002fdf576001811462002ff25762003029565b60ff198316865260208601935062003029565b62002ffd8562003cdc565b60005b83811015620030215781548189015260018201915060208101905062003000565b808801955050505b50505092915050565b60006200304160158362003d5f565b91507f596f7520617265206e6f7420612076656e646f722100000000000000000000006000830152602082019050919050565b60006200308360108362003d5f565b91507f696e76616c69642062616c616e636521000000000000000000000000000000006000830152602082019050919050565b6000620030c560148362003d5f565b91507f796f7520617265206e6f7420612076656e646f720000000000000000000000006000830152602082019050919050565b60006200310760198362003d5f565b91507f796f752068617665207370656e7420796f757220746f6b656e000000000000006000830152602082019050919050565b600062003149601d8362003d5f565b91507f76656e646f722073686f756c64206e6f742075736520636f75706f6e210000006000830152602082019050919050565b60006200318b600f8362003d5f565b91507f696e76616c6964206164647265737300000000000000000000000000000000006000830152602082019050919050565b6000620031cd601c8362003d5f565b91507f596f7520616c726561647920686176652074686520636f75706f6e21000000006000830152602082019050919050565b60006200320f600e8362003d5f565b91507f4e6f20737563682076656e646f720000000000000000000000000000000000006000830152602082019050919050565b60006200325160128362003d5f565b91507f4e6f7420656e6f75676820636f75706f6e2100000000000000000000000000006000830152602082019050919050565b60006200329360158362003d5f565b91507f76656e646f7220616c72656164792065786973742100000000000000000000006000830152602082019050919050565b6000620032d5600f8362003d5f565b91507f4e6f20737563682076656e646f722100000000000000000000000000000000006000830152602082019050919050565b60006200331760118362003d5f565b91507f70726f64756374206e6f7420666f756e640000000000000000000000000000006000830152602082019050919050565b60006200335960108362003d5f565b91507f4e6f20737563682070726f6475637421000000000000000000000000000000006000830152602082019050919050565b60006200339b601e8362003d5f565b91507f546869732070726f6475637420697320616c72656164792065786973742100006000830152602082019050919050565b6000620033dd600c8362003d5f565b91507f6f7574206f662073746f636b00000000000000000000000000000000000000006000830152602082019050919050565b60006200341f60188362003d5f565b91507f4661696c656420746f206275792074686520636f75706f6e00000000000000006000830152602082019050919050565b60006200346160208362003d5f565b91507f646f6e27742073656e6420636f75706f6e20746f207468652076656e646f72216000830152602082019050919050565b60006060830160008301518482036000860152620034b3828262003554565b9150506020830151620034ca602086018262002ef1565b506040830151620034df604086018262002de4565b508091505092915050565b60006060830160008084018583036000870152620035098382620035d4565b925050600584015490506200351e8162003ebb565b6200352d602087018262002ef1565b50620035398162003ef7565b62003548604087018262002de4565b50819250505092915050565b600060a083016000830151848203600086015262003573828262002f24565b91505060208301516200358a60208601826200373e565b5060408301516200359f60408601826200373e565b506060830151620035b460608601826200373e565b506080830151620035c9608086018262002ef1565b508091505092915050565b600060a0830160008084018583036000870152620035f3838262002fa6565b92505060018401549050620036088162003ed9565b6200361760208701826200373e565b50600284015490506200362a8162003ed9565b6200363960408701826200373e565b50600384015490506200364c8162003ed9565b6200365b60608701826200373e565b50600484015490506200366e8162003ebb565b6200367d608087018262002ef1565b50819250505092915050565b600060a0830160008084018583036000870152620036a8838262002fa6565b92505060018401549050620036bd8162003ed9565b620036cc60208701826200373e565b5060028401549050620036df8162003ed9565b620036ee60408701826200373e565b5060038401549050620037018162003ed9565b6200371060608701826200373e565b5060048401549050620037238162003ebb565b62003732608087018262002ef1565b50819250505092915050565b620037498162003e22565b82525050565b6200375a8162003e22565b82525050565b600060208201905062003777600083018462002df5565b92915050565b600060408201905062003794600083018562002df5565b620037a3602083018462002f13565b9392505050565b6000604082019050620037c1600083018562002df5565b620037d060208301846200374f565b9392505050565b60006020820190508181036000830152620037f3818462002e06565b905092915050565b6000602082019050818103600083015262003817818462002e87565b905092915050565b600060208201905062003836600083018462002f02565b92915050565b6000606082019050818103600083015262003858818662002f65565b905081810360208301526200386e818562002f65565b90506200387f604083018462002df5565b949350505050565b60006060820190508181036000830152620038a3818662002f65565b90508181036020830152620038b9818562002f65565b9050620038ca60408301846200374f565b949350505050565b60006080820190508181036000830152620038ee818762002f65565b9050818103602083015262003904818662002f65565b90506200391560408301856200374f565b62003924606083018462002df5565b95945050505050565b60006020820190508181036000830152620039488162003032565b9050919050565b600060208201905081810360008301526200396a8162003074565b9050919050565b600060208201905081810360008301526200398c81620030b6565b9050919050565b60006020820190508181036000830152620039ae81620030f8565b9050919050565b60006020820190508181036000830152620039d0816200313a565b9050919050565b60006020820190508181036000830152620039f2816200317c565b9050919050565b6000602082019050818103600083015262003a1481620031be565b9050919050565b6000602082019050818103600083015262003a368162003200565b9050919050565b6000602082019050818103600083015262003a588162003242565b9050919050565b6000602082019050818103600083015262003a7a8162003284565b9050919050565b6000602082019050818103600083015262003a9c81620032c6565b9050919050565b6000602082019050818103600083015262003abe8162003308565b9050919050565b6000602082019050818103600083015262003ae0816200334a565b9050919050565b6000602082019050818103600083015262003b02816200338c565b9050919050565b6000602082019050818103600083015262003b2481620033ce565b9050919050565b6000602082019050818103600083015262003b468162003410565b9050919050565b6000602082019050818103600083015262003b688162003452565b9050919050565b6000604082019050818103600083015262003b8b818562003494565b905062003b9c602083018462002df5565b9392505050565b6000604082019050818103600083015262003bbf8185620034ea565b905062003bd0602083018462002df5565b9392505050565b6000604082019050818103600083015262003bf3818562003689565b905062003c04602083018462002df5565b9392505050565b600060208201905062003c2260008301846200374f565b92915050565b600060408201905062003c3f60008301856200374f565b62003c4e602083018462002df5565b9392505050565b6000604051905081810181811067ffffffffffffffff8211171562003c7f5762003c7e62003fc1565b5b8060405250919050565b600067ffffffffffffffff82111562003ca75762003ca662003fc1565b5b601f19601f8301169050602081019050919050565b6000819050602082019050919050565b6000819050602082019050919050565b60008190508160005260206000209050919050565b600081519050919050565b600081519050919050565b600081519050919050565b6000602082019050919050565b6000602082019050919050565b600082825260208201905092915050565b600082825260208201905092915050565b600082825260208201905092915050565b600082825260208201905092915050565b600062003d7d8262003e22565b915062003d8a8362003e22565b92508282101562003da05762003d9f62003f63565b5b828203905092915050565b600073ffffffffffffffffffffffffffffffffffffffff82169050919050565b600060ff82169050919050565b6000819050919050565b600062003def8262003e02565b9050919050565b60008115159050919050565b600073ffffffffffffffffffffffffffffffffffffffff82169050919050565b6000819050919050565b600062003e398262003e22565b9050919050565b82818337600083830152505050565b60005b8381101562003e6f57808201518184015260208101905062003e52565b8381111562003e7f576000848401525b50505050565b6000600282049050600182168062003e9e57607f821691505b6020821081141562003eb55762003eb462003f92565b5b50919050565b600062003ed262003ecc8362004001565b62003dcb565b9050919050565b600062003ef062003eea8362004001565b62003dd8565b9050919050565b600062003f0e62003f08836200400e565b62003dab565b9050919050565b600062003f228262003e22565b91507fffffffffffffffffffffffffffffffffffffffffffffffffffffffffffffffff82141562003f585762003f5762003f63565b5b600182019050919050565b7f4e487b7100000000000000000000000000000000000000000000000000000000600052601160045260246000fd5b7f4e487b7100000000000000000000000000000000000000000000000000000000600052602260045260246000fd5b7f4e487b7100000000000000000000000000000000000000000000000000000000600052604160045260246000fd5b6000601f19601f8301169050919050565b60008160001c9050919050565b60008160081c9050919050565b620040268162003de2565b81146200403257600080fd5b50565b620040408162003df6565b81146200404c57600080fd5b50565b6200405a8162003e22565b81146200406657600080fd5b5056fe60806040523480156200001157600080fd5b5060405162001bcb38038062001bcb8339818101604052810190620000379190620001ec565b82600490805190602001906200004f929190620000b3565b50816005908051906020019062000068929190620000b3565b5080600260006101000a81548173ffffffffffffffffffffffffffffffffffffffff021916908373ffffffffffffffffffffffffffffffffffffffff160217905550505050620003f3565b828054620000c19062000345565b90600052602060002090601f016020900481019282620000e5576000855562000131565b82601f106200010057805160ff191683800117855562000131565b8280016001018555821562000131579182015b828111156200013057825182559160200191906001019062000113565b5b50905062000140919062000144565b5090565b5b808211156200015f57600081600090555060010162000145565b5090565b60006200017a6200017484620002a8565b62000274565b9050828152602081018484840111156200019357600080fd5b620001a08482856200030f565b509392505050565b600081519050620001b981620003d9565b92915050565b600082601f830112620001d157600080fd5b8151620001e384826020860162000163565b91505092915050565b6000806000606084860312156200020257600080fd5b600084015167ffffffffffffffff8111156200021d57600080fd5b6200022b86828701620001bf565b935050602084015167ffffffffffffffff8111156200024957600080fd5b6200025786828701620001bf565b92505060406200026a86828701620001a8565b9150509250925092565b6000604051905081810181811067ffffffffffffffff821117156200029e576200029d620003aa565b5b8060405250919050565b600067ffffffffffffffff821115620002c657620002c5620003aa565b5b601f19601f8301169050602081019050919050565b6000620002e882620002ef565b9050919050565b600073ffffffffffffffffffffffffffffffffffffffff82169050919050565b60005b838110156200032f57808201518184015260208101905062000312565b838111156200033f576000848401525b50505050565b600060028204905060018216806200035e57607f821691505b602082108114156200037557620003746200037b565b5b50919050565b7f4e487b7100000000000000000000000000000000000000000000000000000000600052602260045260246000fd5b7f4e487b7100000000000000000000000000000000000000000000000000000000600052604160045260246000fd5b620003e481620002db565b8114620003f057600080fd5b50565b6117c880620004036000396000f3fe608060405234801561001057600080fd5b50600436106100ea5760003560e01c806370a082311161008c5780639dc29fac116100665780639dc29fac14610261578063a457c2d71461027d578063a9059cbb146102ad578063dd62ed3e146102dd576100ea565b806370a08231146101f55780638da5cb5b1461022557806395d89b4114610243576100ea565b806323b872dd116100c857806323b872dd1461015b578063313ce5671461018b57806339509351146101a95780634e6ec247146101d9576100ea565b806306fdde03146100ef578063095ea7b31461010d57806318160ddd1461013d575b600080fd5b6100f761030d565b60405161010491906113fd565b60405180910390f35b61012760048036038101906101229190610f66565b61039f565b60405161013491906113e2565b60405180910390f35b6101456103bd565b604051610152919061155f565b60405180910390f35b61017560048036038101906101709190610f17565b6103c7565b60405161018291906113e2565b60405180910390f35b6101936103f6565b6040516101a0919061157a565b60405180910390f35b6101c360048036038101906101be9190610f66565b6103ff565b6040516101d091906113e2565b60405180910390f35b6101f360048036038101906101ee9190610f66565b610438565b005b61020f600480360381019061020a9190610eb2565b610598565b60405161021c919061155f565b60405180910390f35b61022d6105e0565b60405161023a91906113c7565b60405180910390f35b61024b61060a565b60405161025891906113fd565b60405180910390f35b61027b60048036038101906102769190610f66565b61069c565b005b61029760048036038101906102929190610f66565b6106aa565b6040516102a491906113e2565b60405180910390f35b6102c760048036038101906102c29190610f66565b610722565b6040516102d491906113e2565b60405180910390f35b6102f760048036038101906102f29190610edb565b610740565b604051610304919061155f565b60405180910390f35b60606004805461031c906116c3565b80601f0160208091040260200160405190810160405280929190818152602001828054610348906116c3565b80156103955780601f1061036a57610100808354040283529160200191610395565b820191906000526020600020905b81548152906001019060200180831161037857829003601f168201915b5050505050905090565b60006103b36103ac6105e0565b84846107c7565b6001905092915050565b6000600354905090565b6000806103d2610992565b90506103df85828561099a565b6103ea858585610a26565b60019150509392505050565b60006001905090565b600061042e61040c6105e0565b848461041f6104196105e0565b88610740565b61042991906115b1565b6107c7565b6001905092915050565b600073ffffffffffffffffffffffffffffffffffffffff168273ffffffffffffffffffffffffffffffffffffffff1614156104a8576040517f08c379a000000000000000000000000000000000000000000000000000000000815260040161049f9061153f565b60405180910390fd5b6104b460008383610ca7565b80600360008282546104c691906115b1565b92505081905550806000808473ffffffffffffffffffffffffffffffffffffffff1673ffffffffffffffffffffffffffffffffffffffff168152602001908152602001600020600082825461051b91906115b1565b925050819055508173ffffffffffffffffffffffffffffffffffffffff16600073ffffffffffffffffffffffffffffffffffffffff167fddf252ad1be2c89b69c2b068fc378daa952ba7f163c4a11628f55a4df523b3ef83604051610580919061155f565b60405180910390a361059460008383610cac565b5050565b60008060008373ffffffffffffffffffffffffffffffffffffffff1673ffffffffffffffffffffffffffffffffffffffff168152602001908152602001600020549050919050565b6000600260009054906101000a900473ffffffffffffffffffffffffffffffffffffffff16905090565b606060058054610619906116c3565b80601f0160208091040260200160405190810160405280929190818152602001828054610645906116c3565b80156106925780601f1061066757610100808354040283529160200191610692565b820191906000526020600020905b81548152906001019060200180831161067557829003601f168201915b5050505050905090565b6106a68282610cb1565b5050565b6000806106be6106b86105e0565b85610740565b905082811015610703576040517f08c379a00000000000000000000000000000000000000000000000000000000081526004016106fa9061151f565b60405180910390fd5b61071761070e6105e0565b858584036107c7565b600191505092915050565b600061073661072f6105e0565b8484610a26565b6001905092915050565b6000600160008473ffffffffffffffffffffffffffffffffffffffff1673ffffffffffffffffffffffffffffffffffffffff16815260200190815260200160002060008373ffffffffffffffffffffffffffffffffffffffff1673ffffffffffffffffffffffffffffffffffffffff16815260200190815260200160002054905092915050565b600073ffffffffffffffffffffffffffffffffffffffff168373ffffffffffffffffffffffffffffffffffffffff161415610837576040517f08c379a000000000000000000000000000000000000000000000000000000000815260040161082e906114ff565b60405180910390fd5b600073ffffffffffffffffffffffffffffffffffffffff168273ffffffffffffffffffffffffffffffffffffffff1614156108a7576040517f08c379a000000000000000000000000000000000000000000000000000000000815260040161089e9061145f565b60405180910390fd5b80600160008573ffffffffffffffffffffffffffffffffffffffff1673ffffffffffffffffffffffffffffffffffffffff16815260200190815260200160002060008473ffffffffffffffffffffffffffffffffffffffff1673ffffffffffffffffffffffffffffffffffffffff168152602001908152602001600020819055508173ffffffffffffffffffffffffffffffffffffffff168373ffffffffffffffffffffffffffffffffffffffff167f8c5be1e5ebec7d5bd14f71427d1e84f3dd0314c0f7b2291e5b200ac8c7c3b92583604051610985919061155f565b60405180910390a3505050565b600033905090565b60006109a68484610740565b90507fffffffffffffffffffffffffffffffffffffffffffffffffffffffffffffffff8114610a205781811015610a12576040517f08c379a0000000000000000000000000000000000000000000000000000000008152600401610a099061147f565b60405180910390fd5b610a1f84848484036107c7565b5b50505050565b600073ffffffffffffffffffffffffffffffffffffffff168373ffffffffffffffffffffffffffffffffffffffff161415610a96576040517f08c379a0000000000000000000000000000000000000000000000000000000008152600401610a8d906114df565b60405180910390fd5b600073ffffffffffffffffffffffffffffffffffffffff168273ffffffffffffffffffffffffffffffffffffffff161415610b06576040517f08c379a0000000000000000000000000000000000000000000000000000000008152600401610afd9061141f565b60405180910390fd5b610b11838383610ca7565b60008060008573ffffffffffffffffffffffffffffffffffffffff1673ffffffffffffffffffffffffffffffffffffffff16815260200190815260200160002054905081811015610b97576040517f08c379a0000000000000000000000000000000000000000000000000000000008152600401610b8e9061149f565b60405180910390fd5b8181036000808673ffffffffffffffffffffffffffffffffffffffff1673ffffffffffffffffffffffffffffffffffffffff16815260200190815260200160002081905550816000808573ffffffffffffffffffffffffffffffffffffffff1673ffffffffffffffffffffffffffffffffffffffff1681526020019081526020016000206000828254610c2a91906115b1565b925050819055508273ffffffffffffffffffffffffffffffffffffffff168473ffffffffffffffffffffffffffffffffffffffff167fddf252ad1be2c89b69c2b068fc378daa952ba7f163c4a11628f55a4df523b3ef84604051610c8e919061155f565b60405180910390a3610ca1848484610cac565b50505050565b505050565b505050565b600073ffffffffffffffffffffffffffffffffffffffff168273ffffffffffffffffffffffffffffffffffffffff161415610d21576040517f08c379a0000000000000000000000000000000000000000000000000000000008152600401610d18906114bf565b60405180910390fd5b610d2d82600083610ca7565b60008060008473ffffffffffffffffffffffffffffffffffffffff1673ffffffffffffffffffffffffffffffffffffffff16815260200190815260200160002054905081811015610db3576040517f08c379a0000000000000000000000000000000000000000000000000000000008152600401610daa9061143f565b60405180910390fd5b8181036000808573ffffffffffffffffffffffffffffffffffffffff1673ffffffffffffffffffffffffffffffffffffffff168152602001908152602001600020819055508160036000828254610e0a9190611607565b92505081905550600073ffffffffffffffffffffffffffffffffffffffff168373ffffffffffffffffffffffffffffffffffffffff167fddf252ad1be2c89b69c2b068fc378daa952ba7f163c4a11628f55a4df523b3ef84604051610e6f919061155f565b60405180910390a3610e8383600084610cac565b505050565b600081359050610e9781611764565b92915050565b600081359050610eac8161177b565b92915050565b600060208284031215610ec457600080fd5b6000610ed284828501610e88565b91505092915050565b60008060408385031215610eee57600080fd5b6000610efc85828601610e88565b9250506020610f0d85828601610e88565b9150509250929050565b600080600060608486031215610f2c57600080fd5b6000610f3a86828701610e88565b9350506020610f4b86828701610e88565b9250506040610f5c86828701610e9d565b9150509250925092565b60008060408385031215610f7957600080fd5b6000610f8785828601610e88565b9250506020610f9885828601610e9d565b9150509250929050565b610fab8161163b565b82525050565b610fba8161164d565b82525050565b6000610fcb82611595565b610fd581856115a0565b9350610fe5818560208601611690565b610fee81611753565b840191505092915050565b60006110066023836115a0565b91507f45524332303a207472616e7366657220746f20746865207a65726f206164647260008301527f65737300000000000000000000000000000000000000000000000000000000006020830152604082019050919050565b600061106c6022836115a0565b91507f45524332303a206275726e20616d6f756e7420657863656564732062616c616e60008301527f63650000000000000000000000000000000000000000000000000000000000006020830152604082019050919050565b60006110d26022836115a0565b91507f45524332303a20617070726f766520746f20746865207a65726f20616464726560008301527f73730000000000000000000000000000000000000000000000000000000000006020830152604082019050919050565b6000611138601d836115a0565b91507f45524332303a20696e73756666696369656e7420616c6c6f77616e63650000006000830152602082019050919050565b60006111786026836115a0565b91507f45524332303a207472616e7366657220616d6f756e742065786365656473206260008301527f616c616e636500000000000000000000000000000000000000000000000000006020830152604082019050919050565b60006111de6021836115a0565b91507f45524332303a206275726e2066726f6d20746865207a65726f2061646472657360008301527f73000000000000000000000000000000000000000000000000000000000000006020830152604082019050919050565b60006112446025836115a0565b91507f45524332303a207472616e736665722066726f6d20746865207a65726f20616460008301527f64726573730000000000000000000000000000000000000000000000000000006020830152604082019050919050565b60006112aa6024836115a0565b91507f45524332303a20617070726f76652066726f6d20746865207a65726f2061646460008301527f72657373000000000000000000000000000000000000000000000000000000006020830152604082019050919050565b60006113106025836115a0565b91507f45524332303a2064656372656173656420616c6c6f77616e63652062656c6f7760008301527f207a65726f0000000000000000000000000000000000000000000000000000006020830152604082019050919050565b6000611376601f836115a0565b91507f45524332303a206d696e7420746f20746865207a65726f2061646472657373006000830152602082019050919050565b6113b281611679565b82525050565b6113c181611683565b82525050565b60006020820190506113dc6000830184610fa2565b92915050565b60006020820190506113f76000830184610fb1565b92915050565b600060208201905081810360008301526114178184610fc0565b905092915050565b6000602082019050818103600083015261143881610ff9565b9050919050565b600060208201905081810360008301526114588161105f565b9050919050565b60006020820190508181036000830152611478816110c5565b9050919050565b600060208201905081810360008301526114988161112b565b9050919050565b600060208201905081810360008301526114b88161116b565b9050919050565b600060208201905081810360008301526114d8816111d1565b9050919050565b600060208201905081810360008301526114f881611237565b9050919050565b600060208201905081810360008301526115188161129d565b9050919050565b6000602082019050818103600083015261153881611303565b9050919050565b6000602082019050818103600083015261155881611369565b9050919050565b600060208201905061157460008301846113a9565b92915050565b600060208201905061158f60008301846113b8565b92915050565b600081519050919050565b600082825260208201905092915050565b60006115bc82611679565b91506115c783611679565b9250827fffffffffffffffffffffffffffffffffffffffffffffffffffffffffffffffff038211156115fc576115fb6116f5565b5b828201905092915050565b600061161282611679565b915061161d83611679565b9250828210156116305761162f6116f5565b5b828203905092915050565b600061164682611659565b9050919050565b60008115159050919050565b600073ffffffffffffffffffffffffffffffffffffffff82169050919050565b6000819050919050565b600060ff82169050919050565b60005b838110156116ae578082015181840152602081019050611693565b838111156116bd576000848401525b50505050565b600060028204905060018216806116db57607f821691505b602082108114156116ef576116ee611724565b5b50919050565b7f4e487b7100000000000000000000000000000000000000000000000000000000600052601160045260246000fd5b7f4e487b7100000000000000000000000000000000000000000000000000000000600052602260045260246000fd5b6000601f19601f8301169050919050565b61176d8161163b565b811461177857600080fd5b50565b61178481611679565b811461178f57600080fd5b5056fea26469706673582212200a3abc9bac13a94c9e30556e0bf521e33c42f8cf1613030d703168338ffde67764736f6c63430008000033a264697066735822122031bea5acfabda5a920f091ad722fc9e1f6d0c70eab66d974e20135a3b79a13eb64736f6c63430008000033",
  "immutableReferences": {},
  "source": "//SPDX-License-Identifier: MIT\r\npragma solidity ^0.8.0;\r\n\r\nimport \"@openzeppelin/contracts/utils/Context.sol\";\r\nimport \"@openzeppelin/contracts/token/ERC20/IERC20.sol\";\r\nimport \"@openzeppelin/contracts/token/ERC20/extensions/IERC20Metadata.sol\";\r\n\r\ncontract CouponFactory {\r\n\r\n    struct Vendor{\r\n        address account;\r\n        //check if the vendor exist, instead of using for loop\r\n        bool _exist;\r\n        //every vendor has its own token/coupon\r\n        ERC20 coupon;\r\n        mapping(uint=>Product) products;\r\n        //for getting off-chain product data\r\n        uint[] productIdList;\r\n        mapping(address=>Consumer) consumers;\r\n        //for getting off-chain consumer data\r\n        address[] consumerIdList;\r\n    }\r\n\r\n    struct Consumer {\r\n        Product purchasedProdcut; //which product the comsumer purchased\r\n        bool notSpent; //the customer already spent coupon or not\r\n        address id;\r\n    }\r\n\r\n    struct Product {\r\n        string name;\r\n        uint id;\r\n        uint256 price;\r\n        uint256 stock; \r\n        //check if the product exist, instead of using for loop\r\n        bool _exist;\r\n    }\r\n\r\n    //vendor info, token/coupon info and consumer info must be on chain\r\n   mapping(address=>Vendor) vendors;\r\n    \r\n    event couponCreate(string name, string symbol, uint256 totalSupply,address vendor);\r\n    event productSet(Product product,address vendor);\r\n    event consumerGetCoupon(Consumer consumer,address vendor);\r\n    event couponUsed(Consumer consumer,address vendor);\r\n    event productDeleted(uint id, address vendor);\r\n\r\n//allow vendor reset the token,but the existing consumer will not able to use the previous token\r\nfunction resetToken(string memory _name, string memory _symbol, uint256 _tokenSupply) public{\r\n    require(vendors[msg.sender]._exist,\"you are not a vendor\");\r\n     vendors[msg.sender].coupon= new ERC20(_name, _symbol,msg.sender);\r\n    vendors[msg.sender].coupon._mint(msg.sender, _tokenSupply);\r\n}\r\n\r\n    //function that check if the msg.sender is already a vendor\r\n    function isVendor(address _vendor) public view returns (bool){\r\n        return vendors[_vendor]._exist;\r\n    }\r\n\r\n    //vendor can create its own token by calling this method\r\n    function createToken(string memory _name, string memory _symbol, uint256 _totalSupply) public  {\r\n        require(vendors[msg.sender]._exist==false,\"vendor already exist!\");\r\n        vendors[msg.sender].coupon= new ERC20(_name, _symbol,msg.sender);\r\n        vendors[msg.sender].coupon._mint(msg.sender, _totalSupply);\r\n        //vendor can only be on vendors list by creating its own token\r\n         vendors[msg.sender]._exist=true;\r\n         emit couponCreate(_name, _symbol, _totalSupply,msg.sender);\r\n    }\r\n   \r\n    function getBalance(address _vendorAdrs,address owner) public view  returns (uint256)  {\r\n         require(vendors[_vendorAdrs]._exist,\"No such vendor\");\r\n        return vendors[_vendorAdrs].coupon.balanceOf(owner);\r\n    }\r\n\r\n    function getTokenInfo(address _vendorAdrs) public view returns (string memory _name, string memory _symbol, uint256 _totalSupply)  {\r\n         require(vendors[_vendorAdrs]._exist,\"No such vendor\");\r\n         ERC20 coupon=vendors[_vendorAdrs].coupon;\r\n        return ( coupon.name(), coupon.symbol(), coupon.totalSupply());\r\n    }\r\n\r\n    function getTokenOwner(address _vendorAdrs) public view  returns (address){\r\n         require(vendors[_vendorAdrs]._exist,\"No such vendor\");\r\n        return  vendors[_vendorAdrs].coupon.owner();\r\n    }\r\n\r\n    function setProduct(string memory name,uint id,uint256 price,uint256 stock)external{\r\n        //only vendor can set product to its products list\r\n        require(vendors[msg.sender]._exist,\"You are not a vendor!\");\r\n        require(vendors[msg.sender].products[id]._exist==false,\"This product is already exist!\");\r\n        vendors[msg.sender].products[id]=Product(name,id,price,stock,true);\r\n        //set product id list for getting off chain products list\r\n         vendors[msg.sender].productIdList.push(id);\r\n         emit productSet(vendors[msg.sender].products[id],msg.sender);\r\n    }\r\n\r\n//we may not need to handle the fetch of all products in contract\r\n    //we can store the products data off-chain \r\n    //fetch those data in the front end by looping the productIdList.\r\n    function getProductIDList(address _vendorAdrs) public view returns(uint[] memory){\r\n        require(vendors[_vendorAdrs]._exist,\"No such vendor!\");\r\n        uint[] memory productIdList=vendors[_vendorAdrs].productIdList;\r\n        return productIdList;\r\n    }\r\n\r\n    function getProducts(address _vendorAdrs) public view returns (Product[] memory products){\r\n        require(vendors[_vendorAdrs]._exist,\"No such vendor!\");\r\n        uint[] memory productIdList=vendors[_vendorAdrs].productIdList;\r\n       Product[] memory Iproducts= new Product[](productIdList.length); \r\n       for (uint i = 0; i <productIdList.length; i++) {\r\n          Product memory Iproduct = vendors[_vendorAdrs].products[productIdList[i]];\r\n          Iproducts[i] = Iproduct;\r\n      }\r\n      return Iproducts;\r\n    }\r\n\r\n    function checkProductExist(uint id,address _vendorAdrs) public view returns (bool) {\r\n            require(vendors[_vendorAdrs]._exist,\"No such vendor!\");\r\n            Product memory product= vendors[_vendorAdrs].products[id];\r\n            return product._exist;\r\n    }\r\n\r\n    //delete product\r\n    function deleteProduct(uint id) public returns (bool) {\r\n        require(vendors[msg.sender]._exist,\"You are not a vendor!\");\r\n        require(vendors[msg.sender].products[id]._exist,\"No such product!\");\r\n        vendors[msg.sender].products[id].name=\"\";\r\n        vendors[msg.sender].products[id].id=0;\r\n        vendors[msg.sender].products[id].price=0;\r\n        vendors[msg.sender].products[id].stock=0;\r\n        vendors[msg.sender].products[id]._exist=false;\r\n        emit productDeleted(id, msg.sender);\r\n        return true;\r\n    }\r\n\r\n   //consumer get token,one address is allowed to get one token/coupon only\r\n    function getCoupon(address _vendorAdrs, address _consumerAdrs) external  returns (bool) {\r\n         require(_consumerAdrs != address(0), \"invalid address\");\r\n        //check if the receipient is the owner or not\r\n        require(_consumerAdrs!=_vendorAdrs,\"don't send coupon to the vendor!\");\r\n        require(vendors[_vendorAdrs]._exist,\"No such vendor\");\r\n         ERC20 coupon=vendors[_vendorAdrs].coupon;\r\n        //check if consumer already has token or not\r\n        require(coupon.balanceOf(_consumerAdrs)==0,\"You already have the coupon!\");\r\n        //check if the balance of vendor >=1\r\n        require(coupon.balanceOf( _vendorAdrs)>=1,\"Not enough coupon!\");\r\n       (bool sent) =coupon.transfer(_consumerAdrs,1);\r\n        require(sent, \"Failed to buy the coupon\");\r\n        //create a consumer in vendor's consumers list\r\n        Consumer storage consumer =vendors[_vendorAdrs].consumers[_consumerAdrs];\r\n        consumer.notSpent=true;\r\n        consumer.id=_consumerAdrs;\r\n        emit consumerGetCoupon(consumer,_vendorAdrs);\r\n        return sent;\r\n    }\r\n\r\n    function useCoupon(address _vendorAdrs,uint productId) external returns(bool){\r\n        require(vendors[_vendorAdrs]._exist,\"No such vendor\");\r\n    //check if the product exists\r\n    require(vendors[_vendorAdrs].products[productId]._exist,\"product not found\");\r\n    Product memory product=vendors[_vendorAdrs].products[productId];\r\n    ERC20 coupon=vendors[_vendorAdrs].coupon;\r\n    //check if the stock of product bigger than 1\r\n    require(product.stock>=1,\"out of stock\");\r\n    //check if the msg.sender has 1 token and not spent yet\r\n    require(coupon.balanceOf(msg.sender)==1,\"invalid balance!\");\r\n    //vendor should not use coupon\r\n    require(msg.sender!=_vendorAdrs,\"vendor should not use coupon!\");\r\n    //the msg.sender can only use its own coupon\r\n    Consumer memory consumer=vendors[_vendorAdrs].consumers[msg.sender];\r\n    bool spent= consumer.notSpent;\r\n    require(spent,\"you have spent your token\");\r\n    product.stock-=1;\r\n    //add product to consumer\r\n    consumer.purchasedProdcut=product;\r\n    consumer.notSpent=false;\r\n    //burn the token\r\n    coupon.burn(msg.sender,1);\r\n    emit couponUsed(consumer,_vendorAdrs);\r\n   return true;\r\n}\r\n}\r\n\r\n//this contract is copied from openzeppelin ERC20 contract, but I altered some function to public\r\n//in order to make them available after it is instantialized in other contract\r\ncontract ERC20 is Context,IERC20, IERC20Metadata {\r\n    mapping(address => uint256) private _balances;\r\n\r\n    mapping(address => mapping(address => uint256)) private _allowances;\r\n\r\n  address private _owner;\r\n\r\n    uint256 private _totalSupply;\r\n\r\n    string private _name;\r\n    string private _symbol;\r\n\r\n    /**\r\n     * @dev Sets the values for {name} and {symbol}.\r\n     *\r\n     * The default value of {decimals} is 18. To select a different value for\r\n     * {decimals} you should overload it.\r\n     *\r\n     * All two of these values are immutable: they can only be set once during\r\n     * construction.\r\n     */\r\n    constructor(string memory name_, string memory symbol_,address tokenOwner) {\r\n        _name = name_;\r\n        _symbol = symbol_;\r\n        _owner=tokenOwner;\r\n    }\r\n\r\n/**\r\n     * @dev Returns the address of the current owner.\r\n     */\r\n    function owner() public view virtual returns (address) {\r\n        return _owner;\r\n    }\r\n\r\n    /**\r\n     * @dev Returns the name of the token.\r\n     */\r\n    function name() public view virtual override returns (string memory) {\r\n        return _name;\r\n    }\r\n\r\n    /**\r\n     * @dev Returns the symbol of the token, usually a shorter version of the\r\n     * name.\r\n     */\r\n    function symbol() public view virtual override returns (string memory) {\r\n        return _symbol;\r\n    }\r\n\r\n    /**\r\n     * @dev Returns the number of decimals used to get its user representation.\r\n     * For example, if `decimals` equals `2`, a balance of `505` tokens should\r\n     * be displayed to a user as `5.05` (`505 / 10 ** 2`).\r\n     *\r\n     * Tokens usually opt for a value of 18, imitating the relationship between\r\n     * Ether and Wei. This is the value {ERC20} uses, unless this function is\r\n     * overridden;\r\n     *\r\n     * NOTE: This information is only used for _display_ purposes: it in\r\n     * no way affects any of the arithmetic of the contract, including\r\n     * {IERC20-balanceOf} and {IERC20-transfer}.\r\n     */\r\n    function decimals() public view virtual override returns (uint8) {\r\n       return 1;\r\n    }\r\n\r\n    /**\r\n     * @dev See {IERC20-totalSupply}.\r\n     */\r\n    function totalSupply() public view virtual override returns (uint256) {\r\n        return _totalSupply;\r\n    }\r\n\r\n    /**\r\n     * @dev See {IERC20-balanceOf}.\r\n     */\r\n    function balanceOf(address account) public view virtual override returns (uint256) {\r\n        return _balances[account];\r\n    }\r\n\r\n    /**\r\n     * @dev See {IERC20-transfer}.\r\n     *\r\n     * Requirements:\r\n     *\r\n     * - `to` cannot be the zero address.\r\n     * - the caller must have a balance of at least `amount`.\r\n     */\r\n    function transfer(address to, uint256 amount) public virtual override returns (bool) {\r\n        //address owner = _msgSender();\r\n        _transfer(owner(), to, amount);\r\n        return true;\r\n    }\r\n\r\n    /**\r\n     * @dev See {IERC20-allowance}.\r\n     */\r\n    function allowance(address tokenOwner, address spender) public view virtual override returns (uint256) {\r\n        return _allowances[tokenOwner][spender];\r\n    }\r\n\r\n    /**\r\n     * @dev See {IERC20-approve}.\r\n     *\r\n     * NOTE: If `amount` is the maximum `uint256`, the allowance is not updated on\r\n     * `transferFrom`. This is semantically equivalent to an infinite approval.\r\n     *\r\n     * Requirements:\r\n     *\r\n     * - `spender` cannot be the zero address.\r\n     */\r\n    function approve(address spender, uint256 amount) public virtual override returns (bool) {\r\n        //address owner = _msgSender();\r\n        _approve(owner(), spender, amount);\r\n        return true;\r\n    }\r\n\r\n    /**\r\n     * @dev See {IERC20-transferFrom}.\r\n     *\r\n     * Emits an {Approval} event indicating the updated allowance. This is not\r\n     * required by the EIP. See the note at the beginning of {ERC20}.\r\n     *\r\n     * NOTE: Does not update the allowance if the current allowance\r\n     * is the maximum `uint256`.\r\n     *\r\n     * Requirements:\r\n     *\r\n     * - `from` and `to` cannot be the zero address.\r\n     * - `from` must have a balance of at least `amount`.\r\n     * - the caller must have allowance for ``from``'s tokens of at least\r\n     * `amount`.\r\n     */\r\n    function transferFrom(\r\n        address from,\r\n        address to,\r\n        uint256 amount\r\n    ) public virtual override returns (bool) {\r\n        address spender = _msgSender();\r\n        _spendAllowance(from, spender, amount);\r\n        _transfer(from, to, amount);\r\n        return true;\r\n    }\r\n\r\n    /**\r\n     * @dev Atomically increases the allowance granted to `spender` by the caller.\r\n     *\r\n     * This is an alternative to {approve} that can be used as a mitigation for\r\n     * problems described in {IERC20-approve}.\r\n     *\r\n     * Emits an {Approval} event indicating the updated allowance.\r\n     *\r\n     * Requirements:\r\n     *\r\n     * - `spender` cannot be the zero address.\r\n     */\r\n    function increaseAllowance(address spender, uint256 addedValue) public virtual returns (bool) {\r\n        //address owner = _msgSender();\r\n        _approve(owner(), spender, allowance(owner(), spender) + addedValue);\r\n        return true;\r\n    }\r\n\r\n    /**\r\n     * @dev Atomically decreases the allowance granted to `spender` by the caller.\r\n     *\r\n     * This is an alternative to {approve} that can be used as a mitigation for\r\n     * problems described in {IERC20-approve}.\r\n     *\r\n     * Emits an {Approval} event indicating the updated allowance.\r\n     *\r\n     * Requirements:\r\n     *\r\n     * - `spender` cannot be the zero address.\r\n     * - `spender` must have allowance for the caller of at least\r\n     * `subtractedValue`.\r\n     */\r\n    function decreaseAllowance(address spender, uint256 subtractedValue) public virtual returns (bool) {\r\n        //address owner = _msgSender();\r\n        uint256 currentAllowance = allowance(owner(), spender);\r\n        require(currentAllowance >= subtractedValue, \"ERC20: decreased allowance below zero\");\r\n        unchecked {\r\n            _approve(owner(), spender, currentAllowance - subtractedValue);\r\n        }\r\n\r\n        return true;\r\n    }\r\n\r\n    /**\r\n     * @dev Moves `amount` of tokens from `sender` to `recipient`.\r\n     *\r\n     * This internal function is equivalent to {transfer}, and can be used to\r\n     * e.g. implement automatic token fees, slashing mechanisms, etc.\r\n     *\r\n     * Emits a {Transfer} event.\r\n     *\r\n     * Requirements:\r\n     *\r\n     * - `from` cannot be the zero address.\r\n     * - `to` cannot be the zero address.\r\n     * - `from` must have a balance of at least `amount`.\r\n     */\r\n    function _transfer(\r\n        address from,\r\n        address to,\r\n        uint256 amount\r\n    ) internal virtual {\r\n        require(from != address(0), \"ERC20: transfer from the zero address\");\r\n        require(to != address(0), \"ERC20: transfer to the zero address\");\r\n\r\n        _beforeTokenTransfer(from, to, amount);\r\n\r\n        uint256 fromBalance = _balances[from];\r\n        require(fromBalance >= amount, \"ERC20: transfer amount exceeds balance\");\r\n        unchecked {\r\n            _balances[from] = fromBalance - amount;\r\n        }\r\n        _balances[to] += amount;\r\n\r\n        emit Transfer(from, to, amount);\r\n\r\n        _afterTokenTransfer(from, to, amount);\r\n    }\r\n\r\n    /** @dev Creates `amount` tokens and assigns them to `account`, increasing\r\n     * the total supply.\r\n     *\r\n     * Emits a {Transfer} event with `from` set to the zero address.\r\n     *\r\n     * Requirements:\r\n     *\r\n     * - `account` cannot be the zero address.\r\n     */\r\n    function _mint(address account, uint256 amount) public virtual {\r\n        require(account != address(0), \"ERC20: mint to the zero address\");\r\n\r\n        _beforeTokenTransfer(address(0), account, amount);\r\n\r\n        _totalSupply += amount;\r\n        _balances[account] += amount;\r\n        emit Transfer(address(0), account, amount);\r\n\r\n        _afterTokenTransfer(address(0), account, amount);\r\n    }\r\n\r\n    /**\r\n     * @dev Destroys `amount` tokens from `account`, reducing the\r\n     * total supply.\r\n     *\r\n     * Emits a {Transfer} event with `to` set to the zero address.\r\n     *\r\n     * Requirements:\r\n     *\r\n     * - `account` cannot be the zero address.\r\n     * - `account` must have at least `amount` tokens.\r\n     */\r\n    function _burn(address account, uint256 amount) internal virtual {\r\n        require(account != address(0), \"ERC20: burn from the zero address\");\r\n\r\n        _beforeTokenTransfer(account, address(0), amount);\r\n\r\n        uint256 accountBalance = _balances[account];\r\n        require(accountBalance >= amount, \"ERC20: burn amount exceeds balance\");\r\n        unchecked {\r\n            _balances[account] = accountBalance - amount;\r\n        }\r\n        _totalSupply -= amount;\r\n\r\n        emit Transfer(account, address(0), amount);\r\n\r\n        _afterTokenTransfer(account, address(0), amount);\r\n    }\r\n  function burn(address tokenOwner,uint256 amount) public virtual {\r\n        _burn(tokenOwner, amount);\r\n    }\r\n    /**\r\n     * @dev Sets `amount` as the allowance of `spender` over the `owner` s tokens.\r\n     *\r\n     * This internal function is equivalent to `approve`, and can be used to\r\n     * e.g. set automatic allowances for certain subsystems, etc.\r\n     *\r\n     * Emits an {Approval} event.\r\n     *\r\n     * Requirements:\r\n     *\r\n     * - `owner` cannot be the zero address.\r\n     * - `spender` cannot be the zero address.\r\n     */\r\n    function _approve(\r\n        address tokenOwner,\r\n        address spender,\r\n        uint256 amount\r\n    ) internal virtual {\r\n        require(tokenOwner != address(0), \"ERC20: approve from the zero address\");\r\n        require(spender != address(0), \"ERC20: approve to the zero address\");\r\n\r\n        _allowances[tokenOwner][spender] = amount;\r\n        emit Approval(tokenOwner, spender, amount);\r\n    }\r\n\r\n    /**\r\n     * @dev Updates `tokenOwner` s allowance for `spender` based on spent `amount`.\r\n     *\r\n     * Does not update the allowance amount in case of infinite allowance.\r\n     * Revert if not enough allowance is available.\r\n     *\r\n     * Might emit an {Approval} event.\r\n     */\r\n    function _spendAllowance(\r\n        address tokenOwner,\r\n        address spender,\r\n        uint256 amount\r\n    ) internal virtual {\r\n        uint256 currentAllowance = allowance(tokenOwner, spender);\r\n        if (currentAllowance != type(uint256).max) {\r\n            require(currentAllowance >= amount, \"ERC20: insufficient allowance\");\r\n            unchecked {\r\n                _approve(tokenOwner, spender, currentAllowance - amount);\r\n            }\r\n        }\r\n    }\r\n\r\n    /**\r\n     * @dev Hook that is called before any transfer of tokens. This includes\r\n     * minting and burning.\r\n     *\r\n     * Calling conditions:\r\n     *\r\n     * - when `from` and `to` are both non-zero, `amount` of ``from``'s tokens\r\n     * will be transferred to `to`.\r\n     * - when `from` is zero, `amount` tokens will be minted for `to`.\r\n     * - when `to` is zero, `amount` of ``from``'s tokens will be burned.\r\n     * - `from` and `to` are never both zero.\r\n     *\r\n     * To learn more about hooks, head to xref:ROOT:extending-contracts.adoc#using-hooks[Using Hooks].\r\n     */\r\n    function _beforeTokenTransfer(\r\n        address from,\r\n        address to,\r\n        uint256 amount\r\n    ) internal virtual {}\r\n\r\n    /**\r\n     * @dev Hook that is called after any transfer of tokens. This includes\r\n     * minting and burning.\r\n     *\r\n     * Calling conditions:\r\n     *\r\n     * - when `from` and `to` are both non-zero, `amount` of ``from``'s tokens\r\n     * has been transferred to `to`.\r\n     * - when `from` is zero, `amount` tokens have been minted for `to`.\r\n     * - when `to` is zero, `amount` of ``from``'s tokens have been burned.\r\n     * - `from` and `to` are never both zero.\r\n     *\r\n     * To learn more about hooks, head to xref:ROOT:extending-contracts.adoc#using-hooks[Using Hooks].\r\n     */\r\n    function _afterTokenTransfer(\r\n        address from,\r\n        address to,\r\n        uint256 amount\r\n    ) internal virtual {}\r\n}",
  "sourcePath": "D:\\My Project\\blockchain\\CouponFactory\\contracts\\CouponFactory.sol",
  "compiler": {
    "name": "solc",
    "version": "0.8.0+commit.c7dfd78e.Emscripten.clang"
  },
  "schemaVersion": "3.4.4",
  "updatedAt": "2022-05-02T10:57:43.852Z",
  "networkType": "ethereum",
  "devdoc": {
    "kind": "dev",
    "methods": {},
    "version": 1
  },
  "userdoc": {
    "kind": "user",
    "methods": {},
    "version": 1
  }
}