{
  "contractName": "CouponFactory",
  "abi": [
    {
      "anonymous": false,
      "inputs": [
        {
          "components": [
            {
              "components": [
                {
                  "internalType": "string",
                  "name": "name",
                  "type": "string"
                },
                {
                  "internalType": "uint256",
                  "name": "id",
                  "type": "uint256"
                },
                {
                  "internalType": "uint256",
                  "name": "price",
                  "type": "uint256"
                },
                {
                  "internalType": "uint256",
                  "name": "stock",
                  "type": "uint256"
                },
                {
                  "internalType": "bool",
                  "name": "_exist",
                  "type": "bool"
                }
              ],
              "internalType": "struct CouponFactory.Product",
              "name": "purchasedProdcut",
              "type": "tuple"
            },
            {
              "internalType": "bool",
              "name": "notSpent",
              "type": "bool"
            },
            {
              "internalType": "address",
              "name": "id",
              "type": "address"
            }
          ],
          "indexed": false,
          "internalType": "struct CouponFactory.Consumer",
          "name": "consumer",
          "type": "tuple"
        },
        {
          "indexed": false,
          "internalType": "address",
          "name": "vendor",
          "type": "address"
        }
      ],
      "name": "consumerGetCoupon",
      "type": "event"
    },
    {
      "anonymous": false,
      "inputs": [
        {
          "components": [
            {
              "components": [
                {
                  "internalType": "string",
                  "name": "name",
                  "type": "string"
                },
                {
                  "internalType": "uint256",
                  "name": "id",
                  "type": "uint256"
                },
                {
                  "internalType": "uint256",
                  "name": "price",
                  "type": "uint256"
                },
                {
                  "internalType": "uint256",
                  "name": "stock",
                  "type": "uint256"
                },
                {
                  "internalType": "bool",
                  "name": "_exist",
                  "type": "bool"
                }
              ],
              "internalType": "struct CouponFactory.Product",
              "name": "purchasedProdcut",
              "type": "tuple"
            },
            {
              "internalType": "bool",
              "name": "notSpent",
              "type": "bool"
            },
            {
              "internalType": "address",
              "name": "id",
              "type": "address"
            }
          ],
          "indexed": false,
          "internalType": "struct CouponFactory.Consumer",
          "name": "consumer",
          "type": "tuple"
        },
        {
          "indexed": false,
          "internalType": "address",
          "name": "vendor",
          "type": "address"
        }
      ],
      "name": "couponUsed",
      "type": "event"
    },
    {
      "anonymous": false,
      "inputs": [
        {
          "components": [
            {
              "internalType": "string",
              "name": "name",
              "type": "string"
            },
            {
              "internalType": "uint256",
              "name": "id",
              "type": "uint256"
            },
            {
              "internalType": "uint256",
              "name": "price",
              "type": "uint256"
            },
            {
              "internalType": "uint256",
              "name": "stock",
              "type": "uint256"
            },
            {
              "internalType": "bool",
              "name": "_exist",
              "type": "bool"
            }
          ],
          "indexed": false,
          "internalType": "struct CouponFactory.Product",
          "name": "product",
          "type": "tuple"
        },
        {
          "indexed": false,
          "internalType": "address",
          "name": "vendor",
          "type": "address"
        }
      ],
      "name": "productSet",
      "type": "event"
    },
    {
      "inputs": [
        {
          "internalType": "string",
          "name": "_name",
          "type": "string"
        },
        {
          "internalType": "string",
          "name": "_symbol",
          "type": "string"
        },
        {
          "internalType": "uint256",
          "name": "_totalSupply",
          "type": "uint256"
        }
      ],
      "name": "createToken",
      "outputs": [],
      "stateMutability": "nonpayable",
      "type": "function"
    },
    {
      "inputs": [
        {
          "internalType": "address",
          "name": "_vendorAdrs",
          "type": "address"
        },
        {
          "internalType": "address",
          "name": "owner",
          "type": "address"
        }
      ],
      "name": "getBalance",
      "outputs": [
        {
          "internalType": "uint256",
          "name": "",
          "type": "uint256"
        }
      ],
      "stateMutability": "view",
      "type": "function",
      "constant": true
    },
    {
      "inputs": [
        {
          "internalType": "address",
          "name": "_vendorAdrs",
          "type": "address"
        }
      ],
      "name": "getTokenInfo",
      "outputs": [
        {
          "internalType": "string",
          "name": "_name",
          "type": "string"
        },
        {
          "internalType": "string",
          "name": "_symbol",
          "type": "string"
        },
        {
          "internalType": "uint256",
          "name": "_totalSupply",
          "type": "uint256"
        }
      ],
      "stateMutability": "view",
      "type": "function",
      "constant": true
    },
    {
      "inputs": [
        {
          "internalType": "address",
          "name": "_vendorAdrs",
          "type": "address"
        }
      ],
      "name": "getTokenOwner",
      "outputs": [
        {
          "internalType": "address",
          "name": "",
          "type": "address"
        }
      ],
      "stateMutability": "view",
      "type": "function",
      "constant": true
    },
    {
      "inputs": [
        {
          "internalType": "string",
          "name": "name",
          "type": "string"
        },
        {
          "internalType": "uint256",
          "name": "id",
          "type": "uint256"
        },
        {
          "internalType": "uint256",
          "name": "price",
          "type": "uint256"
        },
        {
          "internalType": "uint256",
          "name": "stock",
          "type": "uint256"
        }
      ],
      "name": "setProduct",
      "outputs": [],
      "stateMutability": "nonpayable",
      "type": "function"
    },
    {
      "inputs": [
        {
          "internalType": "address",
          "name": "_vendorAdrs",
          "type": "address"
        }
      ],
      "name": "getProductIDList",
      "outputs": [
        {
          "internalType": "uint256[]",
          "name": "",
          "type": "uint256[]"
        }
      ],
      "stateMutability": "view",
      "type": "function",
      "constant": true
    },
    {
      "inputs": [
        {
          "internalType": "address",
          "name": "_vendorAdrs",
          "type": "address"
        }
      ],
      "name": "getProducts",
      "outputs": [
        {
          "components": [
            {
              "internalType": "string",
              "name": "name",
              "type": "string"
            },
            {
              "internalType": "uint256",
              "name": "id",
              "type": "uint256"
            },
            {
              "internalType": "uint256",
              "name": "price",
              "type": "uint256"
            },
            {
              "internalType": "uint256",
              "name": "stock",
              "type": "uint256"
            },
            {
              "internalType": "bool",
              "name": "_exist",
              "type": "bool"
            }
          ],
          "internalType": "struct CouponFactory.Product[]",
          "name": "products",
          "type": "tuple[]"
        }
      ],
      "stateMutability": "view",
      "type": "function",
      "constant": true
    },
    {
      "inputs": [
        {
          "internalType": "address",
          "name": "_vendorAdrs",
          "type": "address"
        },
        {
          "internalType": "address",
          "name": "_consumerAdrs",
          "type": "address"
        }
      ],
      "name": "getCoupon",
      "outputs": [
        {
          "internalType": "bool",
          "name": "",
          "type": "bool"
        }
      ],
      "stateMutability": "nonpayable",
      "type": "function"
    },
    {
      "inputs": [
        {
          "internalType": "address",
          "name": "_vendorAdrs",
          "type": "address"
        },
        {
          "internalType": "uint256",
          "name": "productId",
          "type": "uint256"
        }
      ],
      "name": "useCoupon",
      "outputs": [
        {
          "internalType": "bool",
          "name": "",
          "type": "bool"
        }
      ],
      "stateMutability": "nonpayable",
      "type": "function"
    }
  ],
  "bytecode": "0x608060405234801561001057600080fd5b506151a3806100206000396000f3fe60806040523480156200001157600080fd5b5060043610620000a05760003560e01c806368c27acc116200006f57806368c27acc14620001695780636ec94d6c146200019f578063889ec4dd14620001d5578063d4fac45d14620001f5578063dc17c9ca146200022b57620000a0565b80631691473c14620000a55780631f69565f14620000db5780633c25c06b14620001135780635b0605301462000149575b600080fd5b620000c36004803603810190620000bd9190620021b9565b62000261565b604051620000d2919062002ddc565b60405180910390f35b620000f96004803603810190620000f39190620021b9565b620005f8565b6040516200010a9392919062002e8c565b60405180910390f35b6200013160048036038101906200012b919062002252565b62000892565b60405162000140919062002e24565b60405180910390f35b62000167600480360381019062000161919062002304565b62001017565b005b62000187600480360381019062000181919062002211565b6200129c565b60405162000196919062002e24565b60405180910390f35b620001bd6004803603810190620001b79190620021b9565b62001826565b604051620001cc919062002e00565b60405180910390f35b620001f36004803603810190620001ed91906200238c565b62001958565b005b6200021360048036038101906200020d919062002211565b62001c6b565b60405162000222919062003171565b60405180910390f35b620002496004803603810190620002439190620021b9565b62001df6565b60405162000258919062002d65565b60405180910390f35b60606000808373ffffffffffffffffffffffffffffffffffffffff1673ffffffffffffffffffffffffffffffffffffffff16815260200190815260200160002060000160149054906101000a900460ff16620002f4576040517f08c379a0000000000000000000000000000000000000000000000000000000008152600401620002eb9062003009565b60405180910390fd5b60008060008473ffffffffffffffffffffffffffffffffffffffff1673ffffffffffffffffffffffffffffffffffffffff1681526020019081526020016000206003018054806020026020016040519081016040528092919081815260200182805480156200038357602002820191906000526020600020905b8154815260200190600101908083116200036e575b505050505090506000815167ffffffffffffffff811115620003ce577f4e487b7100000000000000000000000000000000000000000000000000000000600052604160045260246000fd5b6040519080825280602002602001820160405280156200040b57816020015b620003f762001f73565b815260200190600190039081620003ed5790505b50905060005b8251811015620005ed5760008060008773ffffffffffffffffffffffffffffffffffffffff1673ffffffffffffffffffffffffffffffffffffffff16815260200190815260200160002060020160008584815181106200049a577f4e487b7100000000000000000000000000000000000000000000000000000000600052603260045260246000fd5b602002602001015181526020019081526020016000206040518060a0016040529081600082018054620004cd90620033be565b80601f0160208091040260200160405190810160405280929190818152602001828054620004fb90620033be565b80156200054c5780601f1062000520576101008083540402835291602001916200054c565b820191906000526020600020905b8154815290600101906020018083116200052e57829003601f168201915b505050505081526020016001820154815260200160028201548152602001600382015481526020016004820160009054906101000a900460ff161515151581525050905080838381518110620005cb577f4e487b7100000000000000000000000000000000000000000000000000000000600052603260045260246000fd5b6020026020010181905250508080620005e4906200344e565b91505062000411565b508092505050919050565b60608060008060008573ffffffffffffffffffffffffffffffffffffffff1673ffffffffffffffffffffffffffffffffffffffff16815260200190815260200160002060000160149054906101000a900460ff166200068e576040517f08c379a0000000000000000000000000000000000000000000000000000000008152600401620006859062002fa3565b60405180910390fd5b60008060008673ffffffffffffffffffffffffffffffffffffffff1673ffffffffffffffffffffffffffffffffffffffff16815260200190815260200160002060010160009054906101000a900473ffffffffffffffffffffffffffffffffffffffff1690508073ffffffffffffffffffffffffffffffffffffffff166306fdde036040518163ffffffff1660e01b815260040160006040518083038186803b1580156200073b57600080fd5b505afa15801562000750573d6000803e3d6000fd5b505050506040513d6000823e3d601f19601f820116820180604052508101906200077b9190620022bf565b8173ffffffffffffffffffffffffffffffffffffffff166395d89b416040518163ffffffff1660e01b815260040160006040518083038186803b158015620007c257600080fd5b505afa158015620007d7573d6000803e3d6000fd5b505050506040513d6000823e3d601f19601f82011682018060405250810190620008029190620022bf565b8273ffffffffffffffffffffffffffffffffffffffff166318160ddd6040518163ffffffff1660e01b815260040160206040518083038186803b1580156200084957600080fd5b505afa1580156200085e573d6000803e3d6000fd5b505050506040513d601f19601f8201168201806040525081019062000884919062002411565b935093509350509193909250565b60008060008473ffffffffffffffffffffffffffffffffffffffff1673ffffffffffffffffffffffffffffffffffffffff16815260200190815260200160002060000160149054906101000a900460ff1662000925576040517f08c379a00000000000000000000000000000000000000000000000000000000081526004016200091c9062002fa3565b60405180910390fd5b6000808473ffffffffffffffffffffffffffffffffffffffff1673ffffffffffffffffffffffffffffffffffffffff168152602001908152602001600020600201600083815260200190815260200160002060040160009054906101000a900460ff16620009ca576040517f08c379a0000000000000000000000000000000000000000000000000000000008152600401620009c1906200302b565b60405180910390fd5b60008060008573ffffffffffffffffffffffffffffffffffffffff1673ffffffffffffffffffffffffffffffffffffffff16815260200190815260200160002060020160008481526020019081526020016000206040518060a001604052908160008201805462000a3b90620033be565b80601f016020809104026020016040519081016040528092919081815260200182805462000a6990620033be565b801562000aba5780601f1062000a8e5761010080835404028352916020019162000aba565b820191906000526020600020905b81548152906001019060200180831162000a9c57829003601f168201915b505050505081526020016001820154815260200160028201548152602001600382015481526020016004820160009054906101000a900460ff161515151581525050905060008060008673ffffffffffffffffffffffffffffffffffffffff1673ffffffffffffffffffffffffffffffffffffffff16815260200190815260200160002060010160009054906101000a900473ffffffffffffffffffffffffffffffffffffffff16905060018260600151101562000baf576040517f08c379a000000000000000000000000000000000000000000000000000000000815260040162000ba6906200306f565b60405180910390fd5b60018173ffffffffffffffffffffffffffffffffffffffff166370a08231336040518263ffffffff1660e01b815260040162000bec919062002d65565b60206040518083038186803b15801562000c0557600080fd5b505afa15801562000c1a573d6000803e3d6000fd5b505050506040513d601f19601f8201168201806040525081019062000c40919062002411565b1462000c83576040517f08c379a000000000000000000000000000000000000000000000000000000000815260040162000c7a9062002ef9565b60405180910390fd5b8473ffffffffffffffffffffffffffffffffffffffff163373ffffffffffffffffffffffffffffffffffffffff16141562000cf5576040517f08c379a000000000000000000000000000000000000000000000000000000000815260040162000cec9062002f3d565b60405180910390fd5b60008060008773ffffffffffffffffffffffffffffffffffffffff1673ffffffffffffffffffffffffffffffffffffffff16815260200190815260200160002060040160003373ffffffffffffffffffffffffffffffffffffffff1673ffffffffffffffffffffffffffffffffffffffff168152602001908152602001600020604051806060016040529081600082016040518060a001604052908160008201805462000da290620033be565b80601f016020809104026020016040519081016040528092919081815260200182805462000dd090620033be565b801562000e215780601f1062000df55761010080835404028352916020019162000e21565b820191906000526020600020905b81548152906001019060200180831162000e0357829003601f168201915b505050505081526020016001820154815260200160028201548152602001600382015481526020016004820160009054906101000a900460ff16151515158152505081526020016005820160009054906101000a900460ff161515151581526020016005820160019054906101000a900473ffffffffffffffffffffffffffffffffffffffff1673ffffffffffffffffffffffffffffffffffffffff1673ffffffffffffffffffffffffffffffffffffffff168152505090506000816020015190508062000f26576040517f08c379a000000000000000000000000000000000000000000000000000000000815260040162000f1d9062002f1b565b60405180910390fd5b60018460600181815162000f3b9190620032a9565b9150818152505083826000018190525060008260200190151590811515815250508273ffffffffffffffffffffffffffffffffffffffff16639dc29fac3360016040518363ffffffff1660e01b815260040162000f9a92919062002d82565b600060405180830381600087803b15801562000fb557600080fd5b505af115801562000fca573d6000803e3d6000fd5b505050507f260d0f084e7c5b2ced210851014c0a62bdd2bdba672073567d59286c328e0ece828860405162001001929190620030d5565b60405180910390a1600194505050505092915050565b600015156000803373ffffffffffffffffffffffffffffffffffffffff1673ffffffffffffffffffffffffffffffffffffffff16815260200190815260200160002060000160149054906101000a900460ff16151514620010af576040517f08c379a0000000000000000000000000000000000000000000000000000000008152600401620010a69062002fe7565b60405180910390fd5b828233604051620010c09062001fa4565b620010ce9392919062002e41565b604051809103906000f080158015620010eb573d6000803e3d6000fd5b506000803373ffffffffffffffffffffffffffffffffffffffff1673ffffffffffffffffffffffffffffffffffffffff16815260200190815260200160002060010160006101000a81548173ffffffffffffffffffffffffffffffffffffffff021916908373ffffffffffffffffffffffffffffffffffffffff1602179055506000803373ffffffffffffffffffffffffffffffffffffffff1673ffffffffffffffffffffffffffffffffffffffff16815260200190815260200160002060010160009054906101000a900473ffffffffffffffffffffffffffffffffffffffff1673ffffffffffffffffffffffffffffffffffffffff16634e6ec24733836040518363ffffffff1660e01b81526004016200120992919062002daf565b600060405180830381600087803b1580156200122457600080fd5b505af115801562001239573d6000803e3d6000fd5b5050505060016000803373ffffffffffffffffffffffffffffffffffffffff1673ffffffffffffffffffffffffffffffffffffffff16815260200190815260200160002060000160146101000a81548160ff021916908315150217905550505050565b60008073ffffffffffffffffffffffffffffffffffffffff168273ffffffffffffffffffffffffffffffffffffffff16141562001310576040517f08c379a0000000000000000000000000000000000000000000000000000000008152600401620013079062002f5f565b60405180910390fd5b8273ffffffffffffffffffffffffffffffffffffffff168273ffffffffffffffffffffffffffffffffffffffff16141562001382576040517f08c379a00000000000000000000000000000000000000000000000000000000081526004016200137990620030b3565b60405180910390fd5b6000808473ffffffffffffffffffffffffffffffffffffffff1673ffffffffffffffffffffffffffffffffffffffff16815260200190815260200160002060000160149054906101000a900460ff1662001413576040517f08c379a00000000000000000000000000000000000000000000000000000000081526004016200140a9062002fa3565b60405180910390fd5b60008060008573ffffffffffffffffffffffffffffffffffffffff1673ffffffffffffffffffffffffffffffffffffffff16815260200190815260200160002060010160009054906101000a900473ffffffffffffffffffffffffffffffffffffffff16905060008173ffffffffffffffffffffffffffffffffffffffff166370a08231856040518263ffffffff1660e01b8152600401620014b6919062002d65565b60206040518083038186803b158015620014cf57600080fd5b505afa158015620014e4573d6000803e3d6000fd5b505050506040513d601f19601f820116820180604052508101906200150a919062002411565b146200154d576040517f08c379a0000000000000000000000000000000000000000000000000000000008152600401620015449062002f81565b60405180910390fd5b60018173ffffffffffffffffffffffffffffffffffffffff166370a08231866040518263ffffffff1660e01b81526004016200158a919062002d65565b60206040518083038186803b158015620015a357600080fd5b505afa158015620015b8573d6000803e3d6000fd5b505050506040513d601f19601f82011682018060405250810190620015de919062002411565b101562001622576040517f08c379a0000000000000000000000000000000000000000000000000000000008152600401620016199062002fc5565b60405180910390fd5b60008173ffffffffffffffffffffffffffffffffffffffff1663a9059cbb8560016040518363ffffffff1660e01b81526004016200166292919062002d82565b602060405180830381600087803b1580156200167d57600080fd5b505af115801562001692573d6000803e3d6000fd5b505050506040513d601f19601f82011682018060405250810190620016b8919062002293565b905080620016fd576040517f08c379a0000000000000000000000000000000000000000000000000000000008152600401620016f49062003091565b60405180910390fd5b60008060008773ffffffffffffffffffffffffffffffffffffffff1673ffffffffffffffffffffffffffffffffffffffff16815260200190815260200160002060040160008673ffffffffffffffffffffffffffffffffffffffff1673ffffffffffffffffffffffffffffffffffffffff168152602001908152602001600020905060018160050160006101000a81548160ff021916908315150217905550848160050160016101000a81548173ffffffffffffffffffffffffffffffffffffffff021916908373ffffffffffffffffffffffffffffffffffffffff1602179055507fb7e5506455a10d7814101f306ad795179a86013bcc2e5ec192899f8894104a5081876040516200181292919062003109565b60405180910390a181935050505092915050565b60606000808373ffffffffffffffffffffffffffffffffffffffff1673ffffffffffffffffffffffffffffffffffffffff16815260200190815260200160002060000160149054906101000a900460ff16620018b9576040517f08c379a0000000000000000000000000000000000000000000000000000000008152600401620018b09062003009565b60405180910390fd5b60008060008473ffffffffffffffffffffffffffffffffffffffff1673ffffffffffffffffffffffffffffffffffffffff1681526020019081526020016000206003018054806020026020016040519081016040528092919081815260200182805480156200194857602002820191906000526020600020905b81548152602001906001019080831162001933575b5050505050905080915050919050565b6000803373ffffffffffffffffffffffffffffffffffffffff1673ffffffffffffffffffffffffffffffffffffffff16815260200190815260200160002060000160149054906101000a900460ff16620019e9576040517f08c379a0000000000000000000000000000000000000000000000000000000008152600401620019e09062002ed7565b60405180910390fd5b600015156000803373ffffffffffffffffffffffffffffffffffffffff1673ffffffffffffffffffffffffffffffffffffffff168152602001908152602001600020600201600085815260200190815260200160002060040160009054906101000a900460ff1615151462001a95576040517f08c379a000000000000000000000000000000000000000000000000000000000815260040162001a8c906200304d565b60405180910390fd5b6040518060a00160405280858152602001848152602001838152602001828152602001600115158152506000803373ffffffffffffffffffffffffffffffffffffffff1673ffffffffffffffffffffffffffffffffffffffff1681526020019081526020016000206002016000858152602001908152602001600020600082015181600001908051906020019062001b2f92919062001fb2565b5060208201518160010155604082015181600201556060820151816003015560808201518160040160006101000a81548160ff0219169083151502179055509050506000803373ffffffffffffffffffffffffffffffffffffffff1673ffffffffffffffffffffffffffffffffffffffff1681526020019081526020016000206003018390806001815401808255809150506001900390600052602060002001600090919091909150557fd1e2fbf044d14ac6729f5e635dd169bce44b7cbbe7247be2a9bd4605987570616000803373ffffffffffffffffffffffffffffffffffffffff1673ffffffffffffffffffffffffffffffffffffffff16815260200190815260200160002060020160008581526020019081526020016000203360405162001c5d9291906200313d565b60405180910390a150505050565b60008060008473ffffffffffffffffffffffffffffffffffffffff1673ffffffffffffffffffffffffffffffffffffffff16815260200190815260200160002060000160149054906101000a900460ff1662001cfe576040517f08c379a000000000000000000000000000000000000000000000000000000000815260040162001cf59062002fa3565b60405180910390fd5b6000808473ffffffffffffffffffffffffffffffffffffffff1673ffffffffffffffffffffffffffffffffffffffff16815260200190815260200160002060010160009054906101000a900473ffffffffffffffffffffffffffffffffffffffff1673ffffffffffffffffffffffffffffffffffffffff166370a08231836040518263ffffffff1660e01b815260040162001d9a919062002d65565b60206040518083038186803b15801562001db357600080fd5b505afa15801562001dc8573d6000803e3d6000fd5b505050506040513d601f19601f8201168201806040525081019062001dee919062002411565b905092915050565b60008060008373ffffffffffffffffffffffffffffffffffffffff1673ffffffffffffffffffffffffffffffffffffffff16815260200190815260200160002060000160149054906101000a900460ff1662001e89576040517f08c379a000000000000000000000000000000000000000000000000000000000815260040162001e809062002fa3565b60405180910390fd5b6000808373ffffffffffffffffffffffffffffffffffffffff1673ffffffffffffffffffffffffffffffffffffffff16815260200190815260200160002060010160009054906101000a900473ffffffffffffffffffffffffffffffffffffffff1673ffffffffffffffffffffffffffffffffffffffff16638da5cb5b6040518163ffffffff1660e01b815260040160206040518083038186803b15801562001f3157600080fd5b505afa15801562001f46573d6000803e3d6000fd5b505050506040513d601f19601f8201168201806040525081019062001f6c9190620021e5565b9050919050565b6040518060a00160405280606081526020016000815260200160008152602001600081526020016000151581525090565b611bcb80620035a383390190565b82805462001fc090620033be565b90600052602060002090601f01602090048101928262001fe4576000855562002030565b82601f1062001fff57805160ff191683800117855562002030565b8280016001018555821562002030579182015b828111156200202f57825182559160200191906001019062002012565b5b5090506200203f919062002043565b5090565b5b808211156200205e57600081600090555060010162002044565b5090565b6000620020796200207384620031c2565b6200318e565b9050828152602081018484840111156200209257600080fd5b6200209f84828562003379565b509392505050565b6000620020be620020b884620031c2565b6200318e565b905082815260208101848484011115620020d757600080fd5b620020e484828562003388565b509392505050565b600081359050620020fd8162003554565b92915050565b600081519050620021148162003554565b92915050565b6000815190506200212b816200356e565b92915050565b600082601f8301126200214357600080fd5b81356200215584826020860162002062565b91505092915050565b600082601f8301126200217057600080fd5b815162002182848260208601620020a7565b91505092915050565b6000813590506200219c8162003588565b92915050565b600081519050620021b38162003588565b92915050565b600060208284031215620021cc57600080fd5b6000620021dc84828501620020ec565b91505092915050565b600060208284031215620021f857600080fd5b6000620022088482850162002103565b91505092915050565b600080604083850312156200222557600080fd5b60006200223585828601620020ec565b92505060206200224885828601620020ec565b9150509250929050565b600080604083850312156200226657600080fd5b60006200227685828601620020ec565b925050602062002289858286016200218b565b9150509250929050565b600060208284031215620022a657600080fd5b6000620022b6848285016200211a565b91505092915050565b600060208284031215620022d257600080fd5b600082015167ffffffffffffffff811115620022ed57600080fd5b620022fb848285016200215e565b91505092915050565b6000806000606084860312156200231a57600080fd5b600084013567ffffffffffffffff8111156200233557600080fd5b620023438682870162002131565b935050602084013567ffffffffffffffff8111156200236157600080fd5b6200236f8682870162002131565b925050604062002382868287016200218b565b9150509250925092565b60008060008060808587031215620023a357600080fd5b600085013567ffffffffffffffff811115620023be57600080fd5b620023cc8782880162002131565b9450506020620023df878288016200218b565b9350506040620023f2878288016200218b565b925050606062002405878288016200218b565b91505092959194509250565b6000602082840312156200242457600080fd5b60006200243484828501620021a2565b91505092915050565b60006200244b838362002b59565b905092915050565b600062002461838362002d43565b60208301905092915050565b62002478816200331b565b82525050565b62002489816200331b565b82525050565b60006200249c826200322a565b620024a8818562003265565b935083602082028501620024bc85620031f5565b8060005b85811015620024fe5784840389528151620024dc85826200243d565b9450620024e9836200324b565b925060208a01995050600181019050620024c0565b50829750879550505050505092915050565b60006200251d8262003235565b62002529818562003276565b9350620025368362003205565b8060005b838110156200256d57815162002551888262002453565b97506200255e8362003258565b9250506001810190506200253a565b5085935050505092915050565b62002585816200332f565b82525050565b62002596816200332f565b82525050565b620025a78162003365565b82525050565b6000620025ba8262003240565b620025c6818562003287565b9350620025d881856020860162003388565b620025e38162003529565b840191505092915050565b6000620025fb8262003240565b62002607818562003298565b93506200261981856020860162003388565b620026248162003529565b840191505092915050565b600081546200263e81620033be565b6200264a818662003287565b945060018216600081146200266857600181146200267b57620026b2565b60ff1983168652602086019350620026b2565b620026868562003215565b60005b83811015620026aa5781548189015260018201915060208101905062002689565b808801955050505b50505092915050565b6000620026ca60158362003298565b91507f596f7520617265206e6f7420612076656e646f722100000000000000000000006000830152602082019050919050565b60006200270c60108362003298565b91507f696e76616c69642062616c616e636521000000000000000000000000000000006000830152602082019050919050565b60006200274e60198362003298565b91507f796f752068617665207370656e7420796f757220746f6b656e000000000000006000830152602082019050919050565b600062002790601d8362003298565b91507f76656e646f722073686f756c64206e6f742075736520636f75706f6e210000006000830152602082019050919050565b6000620027d2600f8362003298565b91507f696e76616c6964206164647265737300000000000000000000000000000000006000830152602082019050919050565b600062002814601c8362003298565b91507f596f7520616c726561647920686176652074686520636f75706f6e21000000006000830152602082019050919050565b600062002856600e8362003298565b91507f4e6f20737563682076656e646f720000000000000000000000000000000000006000830152602082019050919050565b60006200289860128362003298565b91507f4e6f7420656e6f75676820636f75706f6e2100000000000000000000000000006000830152602082019050919050565b6000620028da60158362003298565b91507f76656e646f7220616c72656164792065786973742100000000000000000000006000830152602082019050919050565b60006200291c600f8362003298565b91507f4e6f20737563682076656e646f722100000000000000000000000000000000006000830152602082019050919050565b60006200295e60118362003298565b91507f70726f64756374206e6f7420666f756e640000000000000000000000000000006000830152602082019050919050565b6000620029a0601e8362003298565b91507f546869732070726f6475637420697320616c72656164792065786973742100006000830152602082019050919050565b6000620029e2600c8362003298565b91507f6f7574206f662073746f636b00000000000000000000000000000000000000006000830152602082019050919050565b600062002a2460188362003298565b91507f4661696c656420746f206275792074686520636f75706f6e00000000000000006000830152602082019050919050565b600062002a6660208362003298565b91507f646f6e27742073656e6420636f75706f6e20746f207468652076656e646f72216000830152602082019050919050565b6000606083016000830151848203600086015262002ab8828262002b59565b915050602083015162002acf60208601826200257a565b50604083015162002ae460408601826200246d565b508091505092915050565b6000606083016000808401858303600087015262002b0e838262002bd9565b9250506005840154905062002b2381620033f4565b62002b3260208701826200257a565b5062002b3e8162003430565b62002b4d60408701826200246d565b50819250505092915050565b600060a083016000830151848203600086015262002b788282620025ad565b915050602083015162002b8f602086018262002d43565b50604083015162002ba4604086018262002d43565b50606083015162002bb9606086018262002d43565b50608083015162002bce60808601826200257a565b508091505092915050565b600060a083016000808401858303600087015262002bf883826200262f565b9250506001840154905062002c0d8162003412565b62002c1c602087018262002d43565b506002840154905062002c2f8162003412565b62002c3e604087018262002d43565b506003840154905062002c518162003412565b62002c60606087018262002d43565b506004840154905062002c7381620033f4565b62002c8260808701826200257a565b50819250505092915050565b600060a083016000808401858303600087015262002cad83826200262f565b9250506001840154905062002cc28162003412565b62002cd1602087018262002d43565b506002840154905062002ce48162003412565b62002cf3604087018262002d43565b506003840154905062002d068162003412565b62002d15606087018262002d43565b506004840154905062002d2881620033f4565b62002d3760808701826200257a565b50819250505092915050565b62002d4e816200335b565b82525050565b62002d5f816200335b565b82525050565b600060208201905062002d7c60008301846200247e565b92915050565b600060408201905062002d9960008301856200247e565b62002da860208301846200259c565b9392505050565b600060408201905062002dc660008301856200247e565b62002dd5602083018462002d54565b9392505050565b6000602082019050818103600083015262002df881846200248f565b905092915050565b6000602082019050818103600083015262002e1c818462002510565b905092915050565b600060208201905062002e3b60008301846200258b565b92915050565b6000606082019050818103600083015262002e5d8186620025ee565b9050818103602083015262002e738185620025ee565b905062002e8460408301846200247e565b949350505050565b6000606082019050818103600083015262002ea88186620025ee565b9050818103602083015262002ebe8185620025ee565b905062002ecf604083018462002d54565b949350505050565b6000602082019050818103600083015262002ef281620026bb565b9050919050565b6000602082019050818103600083015262002f1481620026fd565b9050919050565b6000602082019050818103600083015262002f36816200273f565b9050919050565b6000602082019050818103600083015262002f588162002781565b9050919050565b6000602082019050818103600083015262002f7a81620027c3565b9050919050565b6000602082019050818103600083015262002f9c8162002805565b9050919050565b6000602082019050818103600083015262002fbe8162002847565b9050919050565b6000602082019050818103600083015262002fe08162002889565b9050919050565b600060208201905081810360008301526200300281620028cb565b9050919050565b6000602082019050818103600083015262003024816200290d565b9050919050565b6000602082019050818103600083015262003046816200294f565b9050919050565b60006020820190508181036000830152620030688162002991565b9050919050565b600060208201905081810360008301526200308a81620029d3565b9050919050565b60006020820190508181036000830152620030ac8162002a15565b9050919050565b60006020820190508181036000830152620030ce8162002a57565b9050919050565b60006040820190508181036000830152620030f1818562002a99565b90506200310260208301846200247e565b9392505050565b6000604082019050818103600083015262003125818562002aef565b90506200313660208301846200247e565b9392505050565b6000604082019050818103600083015262003159818562002c8e565b90506200316a60208301846200247e565b9392505050565b600060208201905062003188600083018462002d54565b92915050565b6000604051905081810181811067ffffffffffffffff82111715620031b857620031b7620034fa565b5b8060405250919050565b600067ffffffffffffffff821115620031e057620031df620034fa565b5b601f19601f8301169050602081019050919050565b6000819050602082019050919050565b6000819050602082019050919050565b60008190508160005260206000209050919050565b600081519050919050565b600081519050919050565b600081519050919050565b6000602082019050919050565b6000602082019050919050565b600082825260208201905092915050565b600082825260208201905092915050565b600082825260208201905092915050565b600082825260208201905092915050565b6000620032b6826200335b565b9150620032c3836200335b565b925082821015620032d957620032d86200349c565b5b828203905092915050565b600073ffffffffffffffffffffffffffffffffffffffff82169050919050565b600060ff82169050919050565b6000819050919050565b600062003328826200333b565b9050919050565b60008115159050919050565b600073ffffffffffffffffffffffffffffffffffffffff82169050919050565b6000819050919050565b600062003372826200335b565b9050919050565b82818337600083830152505050565b60005b83811015620033a85780820151818401526020810190506200338b565b83811115620033b8576000848401525b50505050565b60006002820490506001821680620033d757607f821691505b60208210811415620033ee57620033ed620034cb565b5b50919050565b60006200340b62003405836200353a565b62003304565b9050919050565b60006200342962003423836200353a565b62003311565b9050919050565b600062003447620034418362003547565b620032e4565b9050919050565b60006200345b826200335b565b91507fffffffffffffffffffffffffffffffffffffffffffffffffffffffffffffffff8214156200349157620034906200349c565b5b600182019050919050565b7f4e487b7100000000000000000000000000000000000000000000000000000000600052601160045260246000fd5b7f4e487b7100000000000000000000000000000000000000000000000000000000600052602260045260246000fd5b7f4e487b7100000000000000000000000000000000000000000000000000000000600052604160045260246000fd5b6000601f19601f8301169050919050565b60008160001c9050919050565b60008160081c9050919050565b6200355f816200331b565b81146200356b57600080fd5b50565b62003579816200332f565b81146200358557600080fd5b50565b62003593816200335b565b81146200359f57600080fd5b5056fe60806040523480156200001157600080fd5b5060405162001bcb38038062001bcb8339818101604052810190620000379190620001ec565b82600490805190602001906200004f929190620000b3565b50816005908051906020019062000068929190620000b3565b5080600260006101000a81548173ffffffffffffffffffffffffffffffffffffffff021916908373ffffffffffffffffffffffffffffffffffffffff160217905550505050620003f3565b828054620000c19062000345565b90600052602060002090601f016020900481019282620000e5576000855562000131565b82601f106200010057805160ff191683800117855562000131565b8280016001018555821562000131579182015b828111156200013057825182559160200191906001019062000113565b5b50905062000140919062000144565b5090565b5b808211156200015f57600081600090555060010162000145565b5090565b60006200017a6200017484620002a8565b62000274565b9050828152602081018484840111156200019357600080fd5b620001a08482856200030f565b509392505050565b600081519050620001b981620003d9565b92915050565b600082601f830112620001d157600080fd5b8151620001e384826020860162000163565b91505092915050565b6000806000606084860312156200020257600080fd5b600084015167ffffffffffffffff8111156200021d57600080fd5b6200022b86828701620001bf565b935050602084015167ffffffffffffffff8111156200024957600080fd5b6200025786828701620001bf565b92505060406200026a86828701620001a8565b9150509250925092565b6000604051905081810181811067ffffffffffffffff821117156200029e576200029d620003aa565b5b8060405250919050565b600067ffffffffffffffff821115620002c657620002c5620003aa565b5b601f19601f8301169050602081019050919050565b6000620002e882620002ef565b9050919050565b600073ffffffffffffffffffffffffffffffffffffffff82169050919050565b60005b838110156200032f57808201518184015260208101905062000312565b838111156200033f576000848401525b50505050565b600060028204905060018216806200035e57607f821691505b602082108114156200037557620003746200037b565b5b50919050565b7f4e487b7100000000000000000000000000000000000000000000000000000000600052602260045260246000fd5b7f4e487b7100000000000000000000000000000000000000000000000000000000600052604160045260246000fd5b620003e481620002db565b8114620003f057600080fd5b50565b6117c880620004036000396000f3fe608060405234801561001057600080fd5b50600436106100ea5760003560e01c806370a082311161008c5780639dc29fac116100665780639dc29fac14610261578063a457c2d71461027d578063a9059cbb146102ad578063dd62ed3e146102dd576100ea565b806370a08231146101f55780638da5cb5b1461022557806395d89b4114610243576100ea565b806323b872dd116100c857806323b872dd1461015b578063313ce5671461018b57806339509351146101a95780634e6ec247146101d9576100ea565b806306fdde03146100ef578063095ea7b31461010d57806318160ddd1461013d575b600080fd5b6100f761030d565b60405161010491906113fd565b60405180910390f35b61012760048036038101906101229190610f66565b61039f565b60405161013491906113e2565b60405180910390f35b6101456103bd565b604051610152919061155f565b60405180910390f35b61017560048036038101906101709190610f17565b6103c7565b60405161018291906113e2565b60405180910390f35b6101936103f6565b6040516101a0919061157a565b60405180910390f35b6101c360048036038101906101be9190610f66565b6103ff565b6040516101d091906113e2565b60405180910390f35b6101f360048036038101906101ee9190610f66565b610438565b005b61020f600480360381019061020a9190610eb2565b610598565b60405161021c919061155f565b60405180910390f35b61022d6105e0565b60405161023a91906113c7565b60405180910390f35b61024b61060a565b60405161025891906113fd565b60405180910390f35b61027b60048036038101906102769190610f66565b61069c565b005b61029760048036038101906102929190610f66565b6106aa565b6040516102a491906113e2565b60405180910390f35b6102c760048036038101906102c29190610f66565b610722565b6040516102d491906113e2565b60405180910390f35b6102f760048036038101906102f29190610edb565b610740565b604051610304919061155f565b60405180910390f35b60606004805461031c906116c3565b80601f0160208091040260200160405190810160405280929190818152602001828054610348906116c3565b80156103955780601f1061036a57610100808354040283529160200191610395565b820191906000526020600020905b81548152906001019060200180831161037857829003601f168201915b5050505050905090565b60006103b36103ac6105e0565b84846107c7565b6001905092915050565b6000600354905090565b6000806103d2610992565b90506103df85828561099a565b6103ea858585610a26565b60019150509392505050565b60006001905090565b600061042e61040c6105e0565b848461041f6104196105e0565b88610740565b61042991906115b1565b6107c7565b6001905092915050565b600073ffffffffffffffffffffffffffffffffffffffff168273ffffffffffffffffffffffffffffffffffffffff1614156104a8576040517f08c379a000000000000000000000000000000000000000000000000000000000815260040161049f9061153f565b60405180910390fd5b6104b460008383610ca7565b80600360008282546104c691906115b1565b92505081905550806000808473ffffffffffffffffffffffffffffffffffffffff1673ffffffffffffffffffffffffffffffffffffffff168152602001908152602001600020600082825461051b91906115b1565b925050819055508173ffffffffffffffffffffffffffffffffffffffff16600073ffffffffffffffffffffffffffffffffffffffff167fddf252ad1be2c89b69c2b068fc378daa952ba7f163c4a11628f55a4df523b3ef83604051610580919061155f565b60405180910390a361059460008383610cac565b5050565b60008060008373ffffffffffffffffffffffffffffffffffffffff1673ffffffffffffffffffffffffffffffffffffffff168152602001908152602001600020549050919050565b6000600260009054906101000a900473ffffffffffffffffffffffffffffffffffffffff16905090565b606060058054610619906116c3565b80601f0160208091040260200160405190810160405280929190818152602001828054610645906116c3565b80156106925780601f1061066757610100808354040283529160200191610692565b820191906000526020600020905b81548152906001019060200180831161067557829003601f168201915b5050505050905090565b6106a68282610cb1565b5050565b6000806106be6106b86105e0565b85610740565b905082811015610703576040517f08c379a00000000000000000000000000000000000000000000000000000000081526004016106fa9061151f565b60405180910390fd5b61071761070e6105e0565b858584036107c7565b600191505092915050565b600061073661072f6105e0565b8484610a26565b6001905092915050565b6000600160008473ffffffffffffffffffffffffffffffffffffffff1673ffffffffffffffffffffffffffffffffffffffff16815260200190815260200160002060008373ffffffffffffffffffffffffffffffffffffffff1673ffffffffffffffffffffffffffffffffffffffff16815260200190815260200160002054905092915050565b600073ffffffffffffffffffffffffffffffffffffffff168373ffffffffffffffffffffffffffffffffffffffff161415610837576040517f08c379a000000000000000000000000000000000000000000000000000000000815260040161082e906114ff565b60405180910390fd5b600073ffffffffffffffffffffffffffffffffffffffff168273ffffffffffffffffffffffffffffffffffffffff1614156108a7576040517f08c379a000000000000000000000000000000000000000000000000000000000815260040161089e9061145f565b60405180910390fd5b80600160008573ffffffffffffffffffffffffffffffffffffffff1673ffffffffffffffffffffffffffffffffffffffff16815260200190815260200160002060008473ffffffffffffffffffffffffffffffffffffffff1673ffffffffffffffffffffffffffffffffffffffff168152602001908152602001600020819055508173ffffffffffffffffffffffffffffffffffffffff168373ffffffffffffffffffffffffffffffffffffffff167f8c5be1e5ebec7d5bd14f71427d1e84f3dd0314c0f7b2291e5b200ac8c7c3b92583604051610985919061155f565b60405180910390a3505050565b600033905090565b60006109a68484610740565b90507fffffffffffffffffffffffffffffffffffffffffffffffffffffffffffffffff8114610a205781811015610a12576040517f08c379a0000000000000000000000000000000000000000000000000000000008152600401610a099061147f565b60405180910390fd5b610a1f84848484036107c7565b5b50505050565b600073ffffffffffffffffffffffffffffffffffffffff168373ffffffffffffffffffffffffffffffffffffffff161415610a96576040517f08c379a0000000000000000000000000000000000000000000000000000000008152600401610a8d906114df565b60405180910390fd5b600073ffffffffffffffffffffffffffffffffffffffff168273ffffffffffffffffffffffffffffffffffffffff161415610b06576040517f08c379a0000000000000000000000000000000000000000000000000000000008152600401610afd9061141f565b60405180910390fd5b610b11838383610ca7565b60008060008573ffffffffffffffffffffffffffffffffffffffff1673ffffffffffffffffffffffffffffffffffffffff16815260200190815260200160002054905081811015610b97576040517f08c379a0000000000000000000000000000000000000000000000000000000008152600401610b8e9061149f565b60405180910390fd5b8181036000808673ffffffffffffffffffffffffffffffffffffffff1673ffffffffffffffffffffffffffffffffffffffff16815260200190815260200160002081905550816000808573ffffffffffffffffffffffffffffffffffffffff1673ffffffffffffffffffffffffffffffffffffffff1681526020019081526020016000206000828254610c2a91906115b1565b925050819055508273ffffffffffffffffffffffffffffffffffffffff168473ffffffffffffffffffffffffffffffffffffffff167fddf252ad1be2c89b69c2b068fc378daa952ba7f163c4a11628f55a4df523b3ef84604051610c8e919061155f565b60405180910390a3610ca1848484610cac565b50505050565b505050565b505050565b600073ffffffffffffffffffffffffffffffffffffffff168273ffffffffffffffffffffffffffffffffffffffff161415610d21576040517f08c379a0000000000000000000000000000000000000000000000000000000008152600401610d18906114bf565b60405180910390fd5b610d2d82600083610ca7565b60008060008473ffffffffffffffffffffffffffffffffffffffff1673ffffffffffffffffffffffffffffffffffffffff16815260200190815260200160002054905081811015610db3576040517f08c379a0000000000000000000000000000000000000000000000000000000008152600401610daa9061143f565b60405180910390fd5b8181036000808573ffffffffffffffffffffffffffffffffffffffff1673ffffffffffffffffffffffffffffffffffffffff168152602001908152602001600020819055508160036000828254610e0a9190611607565b92505081905550600073ffffffffffffffffffffffffffffffffffffffff168373ffffffffffffffffffffffffffffffffffffffff167fddf252ad1be2c89b69c2b068fc378daa952ba7f163c4a11628f55a4df523b3ef84604051610e6f919061155f565b60405180910390a3610e8383600084610cac565b505050565b600081359050610e9781611764565b92915050565b600081359050610eac8161177b565b92915050565b600060208284031215610ec457600080fd5b6000610ed284828501610e88565b91505092915050565b60008060408385031215610eee57600080fd5b6000610efc85828601610e88565b9250506020610f0d85828601610e88565b9150509250929050565b600080600060608486031215610f2c57600080fd5b6000610f3a86828701610e88565b9350506020610f4b86828701610e88565b9250506040610f5c86828701610e9d565b9150509250925092565b60008060408385031215610f7957600080fd5b6000610f8785828601610e88565b9250506020610f9885828601610e9d565b9150509250929050565b610fab8161163b565b82525050565b610fba8161164d565b82525050565b6000610fcb82611595565b610fd581856115a0565b9350610fe5818560208601611690565b610fee81611753565b840191505092915050565b60006110066023836115a0565b91507f45524332303a207472616e7366657220746f20746865207a65726f206164647260008301527f65737300000000000000000000000000000000000000000000000000000000006020830152604082019050919050565b600061106c6022836115a0565b91507f45524332303a206275726e20616d6f756e7420657863656564732062616c616e60008301527f63650000000000000000000000000000000000000000000000000000000000006020830152604082019050919050565b60006110d26022836115a0565b91507f45524332303a20617070726f766520746f20746865207a65726f20616464726560008301527f73730000000000000000000000000000000000000000000000000000000000006020830152604082019050919050565b6000611138601d836115a0565b91507f45524332303a20696e73756666696369656e7420616c6c6f77616e63650000006000830152602082019050919050565b60006111786026836115a0565b91507f45524332303a207472616e7366657220616d6f756e742065786365656473206260008301527f616c616e636500000000000000000000000000000000000000000000000000006020830152604082019050919050565b60006111de6021836115a0565b91507f45524332303a206275726e2066726f6d20746865207a65726f2061646472657360008301527f73000000000000000000000000000000000000000000000000000000000000006020830152604082019050919050565b60006112446025836115a0565b91507f45524332303a207472616e736665722066726f6d20746865207a65726f20616460008301527f64726573730000000000000000000000000000000000000000000000000000006020830152604082019050919050565b60006112aa6024836115a0565b91507f45524332303a20617070726f76652066726f6d20746865207a65726f2061646460008301527f72657373000000000000000000000000000000000000000000000000000000006020830152604082019050919050565b60006113106025836115a0565b91507f45524332303a2064656372656173656420616c6c6f77616e63652062656c6f7760008301527f207a65726f0000000000000000000000000000000000000000000000000000006020830152604082019050919050565b6000611376601f836115a0565b91507f45524332303a206d696e7420746f20746865207a65726f2061646472657373006000830152602082019050919050565b6113b281611679565b82525050565b6113c181611683565b82525050565b60006020820190506113dc6000830184610fa2565b92915050565b60006020820190506113f76000830184610fb1565b92915050565b600060208201905081810360008301526114178184610fc0565b905092915050565b6000602082019050818103600083015261143881610ff9565b9050919050565b600060208201905081810360008301526114588161105f565b9050919050565b60006020820190508181036000830152611478816110c5565b9050919050565b600060208201905081810360008301526114988161112b565b9050919050565b600060208201905081810360008301526114b88161116b565b9050919050565b600060208201905081810360008301526114d8816111d1565b9050919050565b600060208201905081810360008301526114f881611237565b9050919050565b600060208201905081810360008301526115188161129d565b9050919050565b6000602082019050818103600083015261153881611303565b9050919050565b6000602082019050818103600083015261155881611369565b9050919050565b600060208201905061157460008301846113a9565b92915050565b600060208201905061158f60008301846113b8565b92915050565b600081519050919050565b600082825260208201905092915050565b60006115bc82611679565b91506115c783611679565b9250827fffffffffffffffffffffffffffffffffffffffffffffffffffffffffffffffff038211156115fc576115fb6116f5565b5b828201905092915050565b600061161282611679565b915061161d83611679565b9250828210156116305761162f6116f5565b5b828203905092915050565b600061164682611659565b9050919050565b60008115159050919050565b600073ffffffffffffffffffffffffffffffffffffffff82169050919050565b6000819050919050565b600060ff82169050919050565b60005b838110156116ae578082015181840152602081019050611693565b838111156116bd576000848401525b50505050565b600060028204905060018216806116db57607f821691505b602082108114156116ef576116ee611724565b5b50919050565b7f4e487b7100000000000000000000000000000000000000000000000000000000600052601160045260246000fd5b7f4e487b7100000000000000000000000000000000000000000000000000000000600052602260045260246000fd5b6000601f19601f8301169050919050565b61176d8161163b565b811461177857600080fd5b50565b61178481611679565b811461178f57600080fd5b5056fea2646970667358221220b6a165dc4aed2e788cca67322e1464e9e944f0bafb943c9bf29c960d8c450ca664736f6c63430008000033a2646970667358221220d9b3e330d79846415751c44bf270e2caf0e783b1d8f9977f4495f40aae10bf4b64736f6c63430008000033",
  "immutableReferences": {},
  "source": "//SPDX-License-Identifier: MIT\r\npragma solidity ^0.8.0;\r\n\r\nimport \"@openzeppelin/contracts/utils/Context.sol\";\r\nimport \"@openzeppelin/contracts/token/ERC20/IERC20.sol\";\r\nimport \"@openzeppelin/contracts/token/ERC20/extensions/IERC20Metadata.sol\";\r\n\r\ncontract CouponFactory {\r\n    struct Vendor{\r\n        address account;\r\n        //check if the vendor exist, instead of using for loop\r\n        bool _exist;\r\n        //every vendor has its own token/coupon\r\n        ERC20 coupon;\r\n        mapping(uint=>Product) products;\r\n        //for getting off-chain product data\r\n        uint[] productIdList;\r\n        mapping(address=>Consumer) consumers;\r\n        //for getting off-chain consumer data\r\n        address[] consumerIdList;\r\n    }\r\n\r\n    struct Consumer {\r\n        Product purchasedProdcut; //which product the comsumer purchased\r\n        bool notSpent; //the customer already spent coupon or not\r\n        address id;\r\n    }\r\n\r\n    struct Product {\r\n        string name;\r\n        uint id;\r\n        uint256 price;\r\n        uint256 stock; \r\n        //check if the product exist, instead of using for loop\r\n        bool _exist;\r\n    }\r\n\r\n    //vendor info, token/coupon info and consumer info must be on chain\r\n   mapping(address=>Vendor) vendors;\r\n\r\n    event productSet(Product product,address vendor);\r\n    event consumerGetCoupon(Consumer consumer,address vendor);\r\n    event couponUsed(Consumer consumer,address vendor);\r\n\r\n    //vendor can create its own token by calling this method\r\n    function createToken(string memory _name, string memory _symbol, uint256 _totalSupply) public  {\r\n        require(vendors[msg.sender]._exist==false,\"vendor already exist!\");\r\n        vendors[msg.sender].coupon= new ERC20(_name, _symbol,msg.sender);\r\n        vendors[msg.sender].coupon._mint(msg.sender, _totalSupply);\r\n        //vendor can only be on vendors list by creating its own token\r\n         vendors[msg.sender]._exist=true;\r\n    }\r\n   \r\n    function getBalance(address _vendorAdrs,address owner) public view  returns (uint256)  {\r\n         require(vendors[_vendorAdrs]._exist,\"No such vendor\");\r\n        return vendors[_vendorAdrs].coupon.balanceOf(owner);\r\n    }\r\n    function getTokenInfo(address _vendorAdrs) public view returns (string memory _name, string memory _symbol, uint256 _totalSupply)  {\r\n         require(vendors[_vendorAdrs]._exist,\"No such vendor\");\r\n         ERC20 coupon=vendors[_vendorAdrs].coupon;\r\n        return ( coupon.name(), coupon.symbol(), coupon.totalSupply());\r\n    }\r\n    function getTokenOwner(address _vendorAdrs) public view  returns (address){\r\n         require(vendors[_vendorAdrs]._exist,\"No such vendor\");\r\n        return  vendors[_vendorAdrs].coupon.owner();\r\n    }\r\n    function setProduct(string memory name,uint id,uint256 price,uint256 stock)external{\r\n        //only vendor can set product to its products list\r\n        require(vendors[msg.sender]._exist,\"You are not a vendor!\");\r\n        require(vendors[msg.sender].products[id]._exist==false,\"This product is already exist!\");\r\n        vendors[msg.sender].products[id]=Product(name,id,price,stock,true);\r\n        //set product id list for getting off chain products list\r\n         vendors[msg.sender].productIdList.push(id);\r\n         emit productSet(vendors[msg.sender].products[id],msg.sender);\r\n    }\r\n\r\n//we may not need to handle the fetch of all products in contract\r\n    //we can store the products data off-chain \r\n    //fetch those data in the front end by looping the productIdList.\r\n    function getProductIDList(address _vendorAdrs) public view returns(uint[] memory){\r\n        require(vendors[_vendorAdrs]._exist,\"No such vendor!\");\r\n        uint[] memory productIdList=vendors[_vendorAdrs].productIdList;\r\n        return productIdList;\r\n    }\r\n\r\n    function getProducts(address _vendorAdrs) public view returns (Product[] memory products){\r\n        require(vendors[_vendorAdrs]._exist,\"No such vendor!\");\r\n        uint[] memory productIdList=vendors[_vendorAdrs].productIdList;\r\n       Product[] memory Iproducts= new Product[](productIdList.length); \r\n       for (uint i = 0; i <productIdList.length; i++) {\r\n          Product memory Iproduct = vendors[_vendorAdrs].products[productIdList[i]];\r\n          Iproducts[i] = Iproduct;\r\n      }\r\n      return Iproducts;\r\n    }\r\n\r\n   //consumer get token,one address is allowed to get one token/coupon only\r\n    function getCoupon(address _vendorAdrs, address _consumerAdrs) external  returns (bool) {\r\n         require(_consumerAdrs != address(0), \"invalid address\");\r\n        //check if the receipient is the owner or not\r\n        require(_consumerAdrs!=_vendorAdrs,\"don't send coupon to the vendor!\");\r\n        require(vendors[_vendorAdrs]._exist,\"No such vendor\");\r\n         ERC20 coupon=vendors[_vendorAdrs].coupon;\r\n        //check if consumer already has token or not\r\n        require(coupon.balanceOf(_consumerAdrs)==0,\"You already have the coupon!\");\r\n        //check if the balance of vendor >=1\r\n        require(coupon.balanceOf( _vendorAdrs)>=1,\"Not enough coupon!\");\r\n       (bool sent) =coupon.transfer(_consumerAdrs,1);\r\n        require(sent, \"Failed to buy the coupon\");\r\n        //create a consumer in vendor's consumers list\r\n        Consumer storage consumer =vendors[_vendorAdrs].consumers[_consumerAdrs];\r\n        consumer.notSpent=true;\r\n        consumer.id=_consumerAdrs;\r\n        emit consumerGetCoupon(consumer,_vendorAdrs);\r\n        return sent;\r\n    }\r\n\r\n    function useCoupon(address _vendorAdrs,uint productId) external returns(bool){\r\n        require(vendors[_vendorAdrs]._exist,\"No such vendor\");\r\n    //check if the product exists\r\n    require(vendors[_vendorAdrs].products[productId]._exist,\"product not found\");\r\n    Product memory product=vendors[_vendorAdrs].products[productId];\r\n    ERC20 coupon=vendors[_vendorAdrs].coupon;\r\n    //check if the stock of product bigger than 1\r\n    require(product.stock>=1,\"out of stock\");\r\n    //check if the msg.sender has 1 token and not spent yet\r\n    require(coupon.balanceOf(msg.sender)==1,\"invalid balance!\");\r\n    //vendor should not use coupon\r\n    require(msg.sender!=_vendorAdrs,\"vendor should not use coupon!\");\r\n    //the msg.sender can only use its own coupon\r\n    Consumer memory consumer=vendors[_vendorAdrs].consumers[msg.sender];\r\n    bool spent= consumer.notSpent;\r\n    require(spent,\"you have spent your token\");\r\n    product.stock-=1;\r\n    //add product to consumer\r\n    consumer.purchasedProdcut=product;\r\n    consumer.notSpent=false;\r\n    //burn the token\r\n    coupon.burn(msg.sender,1);\r\n    emit couponUsed(consumer,_vendorAdrs);\r\n   return true;\r\n}\r\n}\r\n\r\n//this contract is copied from openzeppelin ERC20 contract, but I altered some function to public\r\n//in order to make them available after it is instantialized in other contract\r\ncontract ERC20 is Context,IERC20, IERC20Metadata {\r\n    mapping(address => uint256) private _balances;\r\n\r\n    mapping(address => mapping(address => uint256)) private _allowances;\r\n\r\n  address private _owner;\r\n\r\n    uint256 private _totalSupply;\r\n\r\n    string private _name;\r\n    string private _symbol;\r\n\r\n    /**\r\n     * @dev Sets the values for {name} and {symbol}.\r\n     *\r\n     * The default value of {decimals} is 18. To select a different value for\r\n     * {decimals} you should overload it.\r\n     *\r\n     * All two of these values are immutable: they can only be set once during\r\n     * construction.\r\n     */\r\n    constructor(string memory name_, string memory symbol_,address tokenOwner) {\r\n        _name = name_;\r\n        _symbol = symbol_;\r\n        _owner=tokenOwner;\r\n    }\r\n\r\n/**\r\n     * @dev Returns the address of the current owner.\r\n     */\r\n    function owner() public view virtual returns (address) {\r\n        return _owner;\r\n    }\r\n\r\n    /**\r\n     * @dev Returns the name of the token.\r\n     */\r\n    function name() public view virtual override returns (string memory) {\r\n        return _name;\r\n    }\r\n\r\n    /**\r\n     * @dev Returns the symbol of the token, usually a shorter version of the\r\n     * name.\r\n     */\r\n    function symbol() public view virtual override returns (string memory) {\r\n        return _symbol;\r\n    }\r\n\r\n    /**\r\n     * @dev Returns the number of decimals used to get its user representation.\r\n     * For example, if `decimals` equals `2`, a balance of `505` tokens should\r\n     * be displayed to a user as `5.05` (`505 / 10 ** 2`).\r\n     *\r\n     * Tokens usually opt for a value of 18, imitating the relationship between\r\n     * Ether and Wei. This is the value {ERC20} uses, unless this function is\r\n     * overridden;\r\n     *\r\n     * NOTE: This information is only used for _display_ purposes: it in\r\n     * no way affects any of the arithmetic of the contract, including\r\n     * {IERC20-balanceOf} and {IERC20-transfer}.\r\n     */\r\n    function decimals() public view virtual override returns (uint8) {\r\n       return 1;\r\n    }\r\n\r\n    /**\r\n     * @dev See {IERC20-totalSupply}.\r\n     */\r\n    function totalSupply() public view virtual override returns (uint256) {\r\n        return _totalSupply;\r\n    }\r\n\r\n    /**\r\n     * @dev See {IERC20-balanceOf}.\r\n     */\r\n    function balanceOf(address account) public view virtual override returns (uint256) {\r\n        return _balances[account];\r\n    }\r\n\r\n    /**\r\n     * @dev See {IERC20-transfer}.\r\n     *\r\n     * Requirements:\r\n     *\r\n     * - `to` cannot be the zero address.\r\n     * - the caller must have a balance of at least `amount`.\r\n     */\r\n    function transfer(address to, uint256 amount) public virtual override returns (bool) {\r\n        //address owner = _msgSender();\r\n        _transfer(owner(), to, amount);\r\n        return true;\r\n    }\r\n\r\n    /**\r\n     * @dev See {IERC20-allowance}.\r\n     */\r\n    function allowance(address tokenOwner, address spender) public view virtual override returns (uint256) {\r\n        return _allowances[tokenOwner][spender];\r\n    }\r\n\r\n    /**\r\n     * @dev See {IERC20-approve}.\r\n     *\r\n     * NOTE: If `amount` is the maximum `uint256`, the allowance is not updated on\r\n     * `transferFrom`. This is semantically equivalent to an infinite approval.\r\n     *\r\n     * Requirements:\r\n     *\r\n     * - `spender` cannot be the zero address.\r\n     */\r\n    function approve(address spender, uint256 amount) public virtual override returns (bool) {\r\n        //address owner = _msgSender();\r\n        _approve(owner(), spender, amount);\r\n        return true;\r\n    }\r\n\r\n    /**\r\n     * @dev See {IERC20-transferFrom}.\r\n     *\r\n     * Emits an {Approval} event indicating the updated allowance. This is not\r\n     * required by the EIP. See the note at the beginning of {ERC20}.\r\n     *\r\n     * NOTE: Does not update the allowance if the current allowance\r\n     * is the maximum `uint256`.\r\n     *\r\n     * Requirements:\r\n     *\r\n     * - `from` and `to` cannot be the zero address.\r\n     * - `from` must have a balance of at least `amount`.\r\n     * - the caller must have allowance for ``from``'s tokens of at least\r\n     * `amount`.\r\n     */\r\n    function transferFrom(\r\n        address from,\r\n        address to,\r\n        uint256 amount\r\n    ) public virtual override returns (bool) {\r\n        address spender = _msgSender();\r\n        _spendAllowance(from, spender, amount);\r\n        _transfer(from, to, amount);\r\n        return true;\r\n    }\r\n\r\n    /**\r\n     * @dev Atomically increases the allowance granted to `spender` by the caller.\r\n     *\r\n     * This is an alternative to {approve} that can be used as a mitigation for\r\n     * problems described in {IERC20-approve}.\r\n     *\r\n     * Emits an {Approval} event indicating the updated allowance.\r\n     *\r\n     * Requirements:\r\n     *\r\n     * - `spender` cannot be the zero address.\r\n     */\r\n    function increaseAllowance(address spender, uint256 addedValue) public virtual returns (bool) {\r\n        //address owner = _msgSender();\r\n        _approve(owner(), spender, allowance(owner(), spender) + addedValue);\r\n        return true;\r\n    }\r\n\r\n    /**\r\n     * @dev Atomically decreases the allowance granted to `spender` by the caller.\r\n     *\r\n     * This is an alternative to {approve} that can be used as a mitigation for\r\n     * problems described in {IERC20-approve}.\r\n     *\r\n     * Emits an {Approval} event indicating the updated allowance.\r\n     *\r\n     * Requirements:\r\n     *\r\n     * - `spender` cannot be the zero address.\r\n     * - `spender` must have allowance for the caller of at least\r\n     * `subtractedValue`.\r\n     */\r\n    function decreaseAllowance(address spender, uint256 subtractedValue) public virtual returns (bool) {\r\n        //address owner = _msgSender();\r\n        uint256 currentAllowance = allowance(owner(), spender);\r\n        require(currentAllowance >= subtractedValue, \"ERC20: decreased allowance below zero\");\r\n        unchecked {\r\n            _approve(owner(), spender, currentAllowance - subtractedValue);\r\n        }\r\n\r\n        return true;\r\n    }\r\n\r\n    /**\r\n     * @dev Moves `amount` of tokens from `sender` to `recipient`.\r\n     *\r\n     * This internal function is equivalent to {transfer}, and can be used to\r\n     * e.g. implement automatic token fees, slashing mechanisms, etc.\r\n     *\r\n     * Emits a {Transfer} event.\r\n     *\r\n     * Requirements:\r\n     *\r\n     * - `from` cannot be the zero address.\r\n     * - `to` cannot be the zero address.\r\n     * - `from` must have a balance of at least `amount`.\r\n     */\r\n    function _transfer(\r\n        address from,\r\n        address to,\r\n        uint256 amount\r\n    ) internal virtual {\r\n        require(from != address(0), \"ERC20: transfer from the zero address\");\r\n        require(to != address(0), \"ERC20: transfer to the zero address\");\r\n\r\n        _beforeTokenTransfer(from, to, amount);\r\n\r\n        uint256 fromBalance = _balances[from];\r\n        require(fromBalance >= amount, \"ERC20: transfer amount exceeds balance\");\r\n        unchecked {\r\n            _balances[from] = fromBalance - amount;\r\n        }\r\n        _balances[to] += amount;\r\n\r\n        emit Transfer(from, to, amount);\r\n\r\n        _afterTokenTransfer(from, to, amount);\r\n    }\r\n\r\n    /** @dev Creates `amount` tokens and assigns them to `account`, increasing\r\n     * the total supply.\r\n     *\r\n     * Emits a {Transfer} event with `from` set to the zero address.\r\n     *\r\n     * Requirements:\r\n     *\r\n     * - `account` cannot be the zero address.\r\n     */\r\n    function _mint(address account, uint256 amount) public virtual {\r\n        require(account != address(0), \"ERC20: mint to the zero address\");\r\n\r\n        _beforeTokenTransfer(address(0), account, amount);\r\n\r\n        _totalSupply += amount;\r\n        _balances[account] += amount;\r\n        emit Transfer(address(0), account, amount);\r\n\r\n        _afterTokenTransfer(address(0), account, amount);\r\n    }\r\n\r\n    /**\r\n     * @dev Destroys `amount` tokens from `account`, reducing the\r\n     * total supply.\r\n     *\r\n     * Emits a {Transfer} event with `to` set to the zero address.\r\n     *\r\n     * Requirements:\r\n     *\r\n     * - `account` cannot be the zero address.\r\n     * - `account` must have at least `amount` tokens.\r\n     */\r\n    function _burn(address account, uint256 amount) internal virtual {\r\n        require(account != address(0), \"ERC20: burn from the zero address\");\r\n\r\n        _beforeTokenTransfer(account, address(0), amount);\r\n\r\n        uint256 accountBalance = _balances[account];\r\n        require(accountBalance >= amount, \"ERC20: burn amount exceeds balance\");\r\n        unchecked {\r\n            _balances[account] = accountBalance - amount;\r\n        }\r\n        _totalSupply -= amount;\r\n\r\n        emit Transfer(account, address(0), amount);\r\n\r\n        _afterTokenTransfer(account, address(0), amount);\r\n    }\r\n  function burn(address tokenOwner,uint256 amount) public virtual {\r\n        _burn(tokenOwner, amount);\r\n    }\r\n    /**\r\n     * @dev Sets `amount` as the allowance of `spender` over the `owner` s tokens.\r\n     *\r\n     * This internal function is equivalent to `approve`, and can be used to\r\n     * e.g. set automatic allowances for certain subsystems, etc.\r\n     *\r\n     * Emits an {Approval} event.\r\n     *\r\n     * Requirements:\r\n     *\r\n     * - `owner` cannot be the zero address.\r\n     * - `spender` cannot be the zero address.\r\n     */\r\n    function _approve(\r\n        address tokenOwner,\r\n        address spender,\r\n        uint256 amount\r\n    ) internal virtual {\r\n        require(tokenOwner != address(0), \"ERC20: approve from the zero address\");\r\n        require(spender != address(0), \"ERC20: approve to the zero address\");\r\n\r\n        _allowances[tokenOwner][spender] = amount;\r\n        emit Approval(tokenOwner, spender, amount);\r\n    }\r\n\r\n    /**\r\n     * @dev Updates `tokenOwner` s allowance for `spender` based on spent `amount`.\r\n     *\r\n     * Does not update the allowance amount in case of infinite allowance.\r\n     * Revert if not enough allowance is available.\r\n     *\r\n     * Might emit an {Approval} event.\r\n     */\r\n    function _spendAllowance(\r\n        address tokenOwner,\r\n        address spender,\r\n        uint256 amount\r\n    ) internal virtual {\r\n        uint256 currentAllowance = allowance(tokenOwner, spender);\r\n        if (currentAllowance != type(uint256).max) {\r\n            require(currentAllowance >= amount, \"ERC20: insufficient allowance\");\r\n            unchecked {\r\n                _approve(tokenOwner, spender, currentAllowance - amount);\r\n            }\r\n        }\r\n    }\r\n\r\n    /**\r\n     * @dev Hook that is called before any transfer of tokens. This includes\r\n     * minting and burning.\r\n     *\r\n     * Calling conditions:\r\n     *\r\n     * - when `from` and `to` are both non-zero, `amount` of ``from``'s tokens\r\n     * will be transferred to `to`.\r\n     * - when `from` is zero, `amount` tokens will be minted for `to`.\r\n     * - when `to` is zero, `amount` of ``from``'s tokens will be burned.\r\n     * - `from` and `to` are never both zero.\r\n     *\r\n     * To learn more about hooks, head to xref:ROOT:extending-contracts.adoc#using-hooks[Using Hooks].\r\n     */\r\n    function _beforeTokenTransfer(\r\n        address from,\r\n        address to,\r\n        uint256 amount\r\n    ) internal virtual {}\r\n\r\n    /**\r\n     * @dev Hook that is called after any transfer of tokens. This includes\r\n     * minting and burning.\r\n     *\r\n     * Calling conditions:\r\n     *\r\n     * - when `from` and `to` are both non-zero, `amount` of ``from``'s tokens\r\n     * has been transferred to `to`.\r\n     * - when `from` is zero, `amount` tokens have been minted for `to`.\r\n     * - when `to` is zero, `amount` of ``from``'s tokens have been burned.\r\n     * - `from` and `to` are never both zero.\r\n     *\r\n     * To learn more about hooks, head to xref:ROOT:extending-contracts.adoc#using-hooks[Using Hooks].\r\n     */\r\n    function _afterTokenTransfer(\r\n        address from,\r\n        address to,\r\n        uint256 amount\r\n    ) internal virtual {}\r\n}",
  "sourcePath": "D:\\My Project\\blockchain\\CouponFactory\\contracts\\CouponFactory.sol",
  "compiler": {
    "name": "solc",
    "version": "0.8.0+commit.c7dfd78e.Emscripten.clang"
  },
  "schemaVersion": "3.4.4",
  "updatedAt": "2022-04-20T12:52:27.894Z",
  "networkType": "ethereum",
  "devdoc": {
    "kind": "dev",
    "methods": {},
    "version": 1
  },
  "userdoc": {
    "kind": "user",
    "methods": {},
    "version": 1
  }
}