{
  "contractName": "CouponFactory",
  "abi": [
    {
      "anonymous": false,
      "inputs": [
        {
          "components": [
            {
              "components": [
                {
                  "internalType": "string",
                  "name": "name",
                  "type": "string"
                },
                {
                  "internalType": "uint256",
                  "name": "id",
                  "type": "uint256"
                },
                {
                  "internalType": "uint256",
                  "name": "price",
                  "type": "uint256"
                },
                {
                  "internalType": "uint256",
                  "name": "stock",
                  "type": "uint256"
                },
                {
                  "internalType": "bool",
                  "name": "_exist",
                  "type": "bool"
                }
              ],
              "internalType": "struct CouponFactory.Product",
              "name": "purchasedProdcut",
              "type": "tuple"
            },
            {
              "internalType": "bool",
              "name": "notSpent",
              "type": "bool"
            },
            {
              "internalType": "address",
              "name": "id",
              "type": "address"
            }
          ],
          "indexed": false,
          "internalType": "struct CouponFactory.Consumer",
          "name": "consumer",
          "type": "tuple"
        },
        {
          "indexed": false,
          "internalType": "address",
          "name": "vendor",
          "type": "address"
        }
      ],
      "name": "consumerGetCoupon",
      "type": "event"
    },
    {
      "anonymous": false,
      "inputs": [
        {
          "indexed": false,
          "internalType": "string",
          "name": "name",
          "type": "string"
        },
        {
          "indexed": false,
          "internalType": "string",
          "name": "symbol",
          "type": "string"
        },
        {
          "indexed": false,
          "internalType": "uint256",
          "name": "totalSupply",
          "type": "uint256"
        },
        {
          "indexed": false,
          "internalType": "address",
          "name": "vendor",
          "type": "address"
        }
      ],
      "name": "couponCreate",
      "type": "event"
    },
    {
      "anonymous": false,
      "inputs": [
        {
          "components": [
            {
              "components": [
                {
                  "internalType": "string",
                  "name": "name",
                  "type": "string"
                },
                {
                  "internalType": "uint256",
                  "name": "id",
                  "type": "uint256"
                },
                {
                  "internalType": "uint256",
                  "name": "price",
                  "type": "uint256"
                },
                {
                  "internalType": "uint256",
                  "name": "stock",
                  "type": "uint256"
                },
                {
                  "internalType": "bool",
                  "name": "_exist",
                  "type": "bool"
                }
              ],
              "internalType": "struct CouponFactory.Product",
              "name": "purchasedProdcut",
              "type": "tuple"
            },
            {
              "internalType": "bool",
              "name": "notSpent",
              "type": "bool"
            },
            {
              "internalType": "address",
              "name": "id",
              "type": "address"
            }
          ],
          "indexed": false,
          "internalType": "struct CouponFactory.Consumer",
          "name": "consumer",
          "type": "tuple"
        },
        {
          "indexed": false,
          "internalType": "address",
          "name": "vendor",
          "type": "address"
        }
      ],
      "name": "couponUsed",
      "type": "event"
    },
    {
      "anonymous": false,
      "inputs": [
        {
          "indexed": false,
          "internalType": "uint256",
          "name": "id",
          "type": "uint256"
        },
        {
          "indexed": false,
          "internalType": "address",
          "name": "vendor",
          "type": "address"
        }
      ],
      "name": "productDeleted",
      "type": "event"
    },
    {
      "anonymous": false,
      "inputs": [
        {
          "components": [
            {
              "internalType": "string",
              "name": "name",
              "type": "string"
            },
            {
              "internalType": "uint256",
              "name": "id",
              "type": "uint256"
            },
            {
              "internalType": "uint256",
              "name": "price",
              "type": "uint256"
            },
            {
              "internalType": "uint256",
              "name": "stock",
              "type": "uint256"
            },
            {
              "internalType": "bool",
              "name": "_exist",
              "type": "bool"
            }
          ],
          "indexed": false,
          "internalType": "struct CouponFactory.Product",
          "name": "product",
          "type": "tuple"
        },
        {
          "indexed": false,
          "internalType": "address",
          "name": "vendor",
          "type": "address"
        }
      ],
      "name": "productSet",
      "type": "event"
    },
    {
      "inputs": [
        {
          "internalType": "string",
          "name": "_name",
          "type": "string"
        },
        {
          "internalType": "string",
          "name": "_symbol",
          "type": "string"
        },
        {
          "internalType": "uint256",
          "name": "_tokenSupply",
          "type": "uint256"
        }
      ],
      "name": "resetToken",
      "outputs": [],
      "stateMutability": "nonpayable",
      "type": "function"
    },
    {
      "inputs": [
        {
          "internalType": "string",
          "name": "_name",
          "type": "string"
        },
        {
          "internalType": "string",
          "name": "_symbol",
          "type": "string"
        },
        {
          "internalType": "uint256",
          "name": "_totalSupply",
          "type": "uint256"
        },
        {
          "internalType": "string",
          "name": "_vid",
          "type": "string"
        },
        {
          "internalType": "string",
          "name": "_vname",
          "type": "string"
        }
      ],
      "name": "createToken",
      "outputs": [],
      "stateMutability": "nonpayable",
      "type": "function"
    },
    {
      "inputs": [
        {
          "internalType": "string",
          "name": "vendorId",
          "type": "string"
        }
      ],
      "name": "getVendorAddress",
      "outputs": [
        {
          "internalType": "address",
          "name": "",
          "type": "address"
        }
      ],
      "stateMutability": "view",
      "type": "function",
      "constant": true
    },
    {
      "inputs": [
        {
          "internalType": "address",
          "name": "_vendorAdrs",
          "type": "address"
        },
        {
          "internalType": "address",
          "name": "owner",
          "type": "address"
        }
      ],
      "name": "getBalance",
      "outputs": [
        {
          "internalType": "uint256",
          "name": "",
          "type": "uint256"
        }
      ],
      "stateMutability": "view",
      "type": "function",
      "constant": true
    },
    {
      "inputs": [
        {
          "internalType": "address",
          "name": "_vendorAdrs",
          "type": "address"
        }
      ],
      "name": "checkVendorExist",
      "outputs": [
        {
          "internalType": "bool",
          "name": "",
          "type": "bool"
        }
      ],
      "stateMutability": "view",
      "type": "function",
      "constant": true
    },
    {
      "inputs": [
        {
          "internalType": "address",
          "name": "_vendorAdrs",
          "type": "address"
        }
      ],
      "name": "getVendorBasicInfo",
      "outputs": [
        {
          "internalType": "string",
          "name": "_vendorName",
          "type": "string"
        },
        {
          "internalType": "string",
          "name": "_vendorId",
          "type": "string"
        },
        {
          "internalType": "bool",
          "name": "_exist",
          "type": "bool"
        },
        {
          "internalType": "string",
          "name": "_name",
          "type": "string"
        },
        {
          "internalType": "string",
          "name": "_symbol",
          "type": "string"
        },
        {
          "internalType": "uint256",
          "name": "_totalSupply",
          "type": "uint256"
        }
      ],
      "stateMutability": "view",
      "type": "function",
      "constant": true
    },
    {
      "inputs": [
        {
          "internalType": "address",
          "name": "_vendorAdrs",
          "type": "address"
        },
        {
          "internalType": "address",
          "name": "_consumerAdrs",
          "type": "address"
        }
      ],
      "name": "getCoupon",
      "outputs": [
        {
          "internalType": "bool",
          "name": "",
          "type": "bool"
        }
      ],
      "stateMutability": "nonpayable",
      "type": "function"
    },
    {
      "inputs": [
        {
          "internalType": "address",
          "name": "_vendorAdrs",
          "type": "address"
        },
        {
          "internalType": "uint256",
          "name": "productId",
          "type": "uint256"
        }
      ],
      "name": "useCoupon",
      "outputs": [
        {
          "internalType": "bool",
          "name": "",
          "type": "bool"
        }
      ],
      "stateMutability": "nonpayable",
      "type": "function"
    },
    {
      "inputs": [
        {
          "internalType": "uint256",
          "name": "id",
          "type": "uint256"
        }
      ],
      "name": "checkIdUsed",
      "outputs": [
        {
          "internalType": "bool",
          "name": "",
          "type": "bool"
        }
      ],
      "stateMutability": "view",
      "type": "function",
      "constant": true
    },
    {
      "inputs": [
        {
          "internalType": "string",
          "name": "name",
          "type": "string"
        },
        {
          "internalType": "uint256",
          "name": "id",
          "type": "uint256"
        },
        {
          "internalType": "uint256",
          "name": "price",
          "type": "uint256"
        },
        {
          "internalType": "uint256",
          "name": "stock",
          "type": "uint256"
        }
      ],
      "name": "setProduct",
      "outputs": [],
      "stateMutability": "nonpayable",
      "type": "function"
    },
    {
      "inputs": [
        {
          "internalType": "address",
          "name": "_vendorAdrs",
          "type": "address"
        }
      ],
      "name": "getProductIDList",
      "outputs": [
        {
          "internalType": "uint256[]",
          "name": "",
          "type": "uint256[]"
        }
      ],
      "stateMutability": "view",
      "type": "function",
      "constant": true
    },
    {
      "inputs": [
        {
          "internalType": "address",
          "name": "_vendorAdrs",
          "type": "address"
        }
      ],
      "name": "getProducts",
      "outputs": [
        {
          "components": [
            {
              "internalType": "string",
              "name": "name",
              "type": "string"
            },
            {
              "internalType": "uint256",
              "name": "id",
              "type": "uint256"
            },
            {
              "internalType": "uint256",
              "name": "price",
              "type": "uint256"
            },
            {
              "internalType": "uint256",
              "name": "stock",
              "type": "uint256"
            },
            {
              "internalType": "bool",
              "name": "_exist",
              "type": "bool"
            }
          ],
          "internalType": "struct CouponFactory.Product[]",
          "name": "products",
          "type": "tuple[]"
        }
      ],
      "stateMutability": "view",
      "type": "function",
      "constant": true
    },
    {
      "inputs": [
        {
          "internalType": "uint256",
          "name": "id",
          "type": "uint256"
        },
        {
          "internalType": "address",
          "name": "_vendorAdrs",
          "type": "address"
        }
      ],
      "name": "checkProductExist",
      "outputs": [
        {
          "internalType": "bool",
          "name": "",
          "type": "bool"
        }
      ],
      "stateMutability": "view",
      "type": "function",
      "constant": true
    },
    {
      "inputs": [
        {
          "internalType": "uint256",
          "name": "id",
          "type": "uint256"
        }
      ],
      "name": "deleteProduct",
      "outputs": [
        {
          "internalType": "bool",
          "name": "",
          "type": "bool"
        }
      ],
      "stateMutability": "nonpayable",
      "type": "function"
    }
  ],
  "bytecode": "0x608060405234801561001057600080fd5b50615ddd806100206000396000f3fe60806040523480156200001157600080fd5b5060043610620001005760003560e01c8063889ec4dd1162000099578063bde1e80e116200006f578063bde1e80e14620002e4578063d4fac45d146200031a578063d756a29d1462000350578063ed90c7b714620003865762000100565b8063889ec4dd1462000269578063a66c40e31462000289578063b1821e7714620002c45762000100565b80633c25c06b11620000db5780633c25c06b146200019157806365577a1214620001c757806368c27acc14620001fd5780636ec94d6c14620002335762000100565b80631691473c14620001055780632494f05e146200013b57806335eab655146200015b575b600080fd5b6200012360048036038101906200011d919062002cf6565b620003bc565b604051620001329190620039cd565b60405180910390f35b62000159600480360381019062000153919062002e5a565b62000755565b005b62000179600480360381019062000173919062002dd0565b62000979565b60405162000188919062003956565b60405180910390f35b620001af6004803603810190620001a9919062002d63565b620009c8565b604051620001be919062003a15565b60405180910390f35b620001e56004803603810190620001df9190620030a5565b6200114f565b604051620001f4919062003a15565b60405180910390f35b6200021b600480360381019062000215919062002d22565b62001326565b6040516200022a919062003a15565b60405180910390f35b6200025160048036038101906200024b919062002cf6565b6200179b565b604051620002609190620039f1565b60405180910390f35b62000287600480360381019062000281919062002fc8565b620018cf565b005b620002a76004803603810190620002a1919062002cf6565b62001c36565b604051620002bb9695949392919062003a7d565b60405180910390f35b620002e26004803603810190620002dc919062002ee2565b620020e4565b005b620003026004803603810190620002fc919062002cf6565b620024b9565b60405162000311919062003a15565b60405180910390f35b62000338600480360381019062000332919062002d22565b62002511565b60405162000347919062003d73565b60405180910390f35b6200036e60048036038101906200036891906200304d565b6200269e565b6040516200037d919062003a15565b60405180910390f35b620003a460048036038101906200039e91906200304d565b620027ac565b604051620003b3919062003a15565b60405180910390f35b6060816000808273ffffffffffffffffffffffffffffffffffffffff1673ffffffffffffffffffffffffffffffffffffffff16815260200190815260200160002060030160009054906101000a900460ff1662000450576040517f08c379a0000000000000000000000000000000000000000000000000000000008152600401620004479062003be9565b60405180910390fd5b60008060008573ffffffffffffffffffffffffffffffffffffffff1673ffffffffffffffffffffffffffffffffffffffff168152602001908152602001600020600501805480602002602001604051908101604052809291908181526020018280548015620004df57602002820191906000526020600020905b815481526020019060010190808311620004ca575b505050505090506000815167ffffffffffffffff8111156200052a577f4e487b7100000000000000000000000000000000000000000000000000000000600052604160045260246000fd5b6040519080825280602002602001820160405280156200056757816020015b6200055362002ac7565b815260200190600190039081620005495790505b50905060005b8251811015620007495760008060008873ffffffffffffffffffffffffffffffffffffffff1673ffffffffffffffffffffffffffffffffffffffff1681526020019081526020016000206004016000858481518110620005f6577f4e487b7100000000000000000000000000000000000000000000000000000000600052603260045260246000fd5b602002602001015181526020019081526020016000206040518060a0016040529081600082018054620006299062003ff8565b80601f0160208091040260200160405190810160405280929190818152602001828054620006579062003ff8565b8015620006a85780601f106200067c57610100808354040283529160200191620006a8565b820191906000526020600020905b8154815290600101906020018083116200068a57829003601f168201915b505050505081526020016001820154815260200160028201548152602001600382015481526020016004820160009054906101000a900460ff16151515158152505090508083838151811062000727577f4e487b7100000000000000000000000000000000000000000000000000000000600052603260045260246000fd5b6020026020010181905250508080620007409062004088565b9150506200056d565b50809350505050919050565b6000803373ffffffffffffffffffffffffffffffffffffffff1673ffffffffffffffffffffffffffffffffffffffff16815260200190815260200160002060030160009054906101000a900460ff16620007e6576040517f08c379a0000000000000000000000000000000000000000000000000000000008152600401620007dd9062003c2d565b60405180910390fd5b828233604051620007f79062002af8565b620008059392919062003a32565b604051809103906000f08015801562000822573d6000803e3d6000fd5b506000803373ffffffffffffffffffffffffffffffffffffffff1673ffffffffffffffffffffffffffffffffffffffff16815260200190815260200160002060030160016101000a81548173ffffffffffffffffffffffffffffffffffffffff021916908373ffffffffffffffffffffffffffffffffffffffff1602179055506000803373ffffffffffffffffffffffffffffffffffffffff1673ffffffffffffffffffffffffffffffffffffffff16815260200190815260200160002060030160019054906101000a900473ffffffffffffffffffffffffffffffffffffffff1673ffffffffffffffffffffffffffffffffffffffff16634e6ec24733836040518363ffffffff1660e01b815260040162000940929190620039a0565b600060405180830381600087803b1580156200095b57600080fd5b505af115801562000970573d6000803e3d6000fd5b50505050505050565b6000806001836040516200098e91906200393d565b908152602001604051809103902060009054906101000a900473ffffffffffffffffffffffffffffffffffffffff16905080915050919050565b6000826000808273ffffffffffffffffffffffffffffffffffffffff1673ffffffffffffffffffffffffffffffffffffffff16815260200190815260200160002060030160009054906101000a900460ff1662000a5c576040517f08c379a000000000000000000000000000000000000000000000000000000000815260040162000a539062003be9565b60405180910390fd5b6000808573ffffffffffffffffffffffffffffffffffffffff1673ffffffffffffffffffffffffffffffffffffffff168152602001908152602001600020600401600084815260200190815260200160002060040160009054906101000a900460ff1662000b01576040517f08c379a000000000000000000000000000000000000000000000000000000000815260040162000af89062003c71565b60405180910390fd5b60008060008673ffffffffffffffffffffffffffffffffffffffff1673ffffffffffffffffffffffffffffffffffffffff16815260200190815260200160002060040160008581526020019081526020016000206040518060a001604052908160008201805462000b729062003ff8565b80601f016020809104026020016040519081016040528092919081815260200182805462000ba09062003ff8565b801562000bf15780601f1062000bc55761010080835404028352916020019162000bf1565b820191906000526020600020905b81548152906001019060200180831162000bd357829003601f168201915b505050505081526020016001820154815260200160028201548152602001600382015481526020016004820160009054906101000a900460ff161515151581525050905060008060008773ffffffffffffffffffffffffffffffffffffffff1673ffffffffffffffffffffffffffffffffffffffff16815260200190815260200160002060030160019054906101000a900473ffffffffffffffffffffffffffffffffffffffff16905060018260600151101562000ce6576040517f08c379a000000000000000000000000000000000000000000000000000000000815260040162000cdd9062003cb5565b60405180910390fd5b60018173ffffffffffffffffffffffffffffffffffffffff166370a08231336040518263ffffffff1660e01b815260040162000d23919062003956565b60206040518083038186803b15801562000d3c57600080fd5b505afa15801562000d51573d6000803e3d6000fd5b505050506040513d601f19601f8201168201806040525081019062000d77919062003079565b1462000dba576040517f08c379a000000000000000000000000000000000000000000000000000000000815260040162000db19062003ba5565b60405180910390fd5b8573ffffffffffffffffffffffffffffffffffffffff163373ffffffffffffffffffffffffffffffffffffffff16141562000e2c576040517f08c379a000000000000000000000000000000000000000000000000000000000815260040162000e239062003c93565b60405180910390fd5b60008060008873ffffffffffffffffffffffffffffffffffffffff1673ffffffffffffffffffffffffffffffffffffffff16815260200190815260200160002060060160003373ffffffffffffffffffffffffffffffffffffffff1673ffffffffffffffffffffffffffffffffffffffff168152602001908152602001600020604051806060016040529081600082016040518060a001604052908160008201805462000ed99062003ff8565b80601f016020809104026020016040519081016040528092919081815260200182805462000f079062003ff8565b801562000f585780601f1062000f2c5761010080835404028352916020019162000f58565b820191906000526020600020905b81548152906001019060200180831162000f3a57829003601f168201915b505050505081526020016001820154815260200160028201548152602001600382015481526020016004820160009054906101000a900460ff16151515158152505081526020016005820160009054906101000a900460ff161515151581526020016005820160019054906101000a900473ffffffffffffffffffffffffffffffffffffffff1673ffffffffffffffffffffffffffffffffffffffff1673ffffffffffffffffffffffffffffffffffffffff16815250509050600081602001519050806200105d576040517f08c379a0000000000000000000000000000000000000000000000000000000008152600401620010549062003b83565b60405180910390fd5b60018460600181815162001072919062003ee3565b9150818152505083826000018190525060008260200190151590811515815250508273ffffffffffffffffffffffffffffffffffffffff16639dc29fac3360016040518363ffffffff1660e01b8152600401620010d192919062003973565b600060405180830381600087803b158015620010ec57600080fd5b505af115801562001101573d6000803e3d6000fd5b505050507f260d0f084e7c5b2ced210851014c0a62bdd2bdba672073567d59286c328e0ece82896040516200113892919062003cd7565b60405180910390a160019550505050505092915050565b6000816000808273ffffffffffffffffffffffffffffffffffffffff1673ffffffffffffffffffffffffffffffffffffffff16815260200190815260200160002060030160009054906101000a900460ff16620011e3576040517f08c379a0000000000000000000000000000000000000000000000000000000008152600401620011da9062003be9565b60405180910390fd5b60008060008573ffffffffffffffffffffffffffffffffffffffff1673ffffffffffffffffffffffffffffffffffffffff16815260200190815260200160002060040160008681526020019081526020016000206040518060a0016040529081600082018054620012549062003ff8565b80601f0160208091040260200160405190810160405280929190818152602001828054620012829062003ff8565b8015620012d35780601f10620012a757610100808354040283529160200191620012d3565b820191906000526020600020905b815481529060010190602001808311620012b557829003601f168201915b505050505081526020016001820154815260200160028201548152602001600382015481526020016004820160009054906101000a900460ff161515151581525050905080608001519250505092915050565b6000826000808273ffffffffffffffffffffffffffffffffffffffff1673ffffffffffffffffffffffffffffffffffffffff16815260200190815260200160002060030160009054906101000a900460ff16620013ba576040517f08c379a0000000000000000000000000000000000000000000000000000000008152600401620013b19062003be9565b60405180910390fd5b600073ffffffffffffffffffffffffffffffffffffffff168373ffffffffffffffffffffffffffffffffffffffff161415620013f557600080fd5b8373ffffffffffffffffffffffffffffffffffffffff168373ffffffffffffffffffffffffffffffffffffffff1614156200142f57600080fd5b60008060008673ffffffffffffffffffffffffffffffffffffffff1673ffffffffffffffffffffffffffffffffffffffff16815260200190815260200160002060030160019054906101000a900473ffffffffffffffffffffffffffffffffffffffff16905060008173ffffffffffffffffffffffffffffffffffffffff166370a08231866040518263ffffffff1660e01b8152600401620014d2919062003956565b60206040518083038186803b158015620014eb57600080fd5b505afa15801562001500573d6000803e3d6000fd5b505050506040513d601f19601f8201168201806040525081019062001526919062003079565b146200153157600080fd5b60018173ffffffffffffffffffffffffffffffffffffffff166370a08231876040518263ffffffff1660e01b81526004016200156e919062003956565b60206040518083038186803b1580156200158757600080fd5b505afa1580156200159c573d6000803e3d6000fd5b505050506040513d601f19601f82011682018060405250810190620015c2919062003079565b1015620015ce57600080fd5b60008173ffffffffffffffffffffffffffffffffffffffff1663a9059cbb8660016040518363ffffffff1660e01b81526004016200160e92919062003973565b602060405180830381600087803b1580156200162957600080fd5b505af11580156200163e573d6000803e3d6000fd5b505050506040513d601f19601f8201168201806040525081019062001664919062002da4565b9050806200167157600080fd5b60008060008873ffffffffffffffffffffffffffffffffffffffff1673ffffffffffffffffffffffffffffffffffffffff16815260200190815260200160002060060160008773ffffffffffffffffffffffffffffffffffffffff1673ffffffffffffffffffffffffffffffffffffffff168152602001908152602001600020905060018160050160006101000a81548160ff021916908315150217905550858160050160016101000a81548173ffffffffffffffffffffffffffffffffffffffff021916908373ffffffffffffffffffffffffffffffffffffffff1602179055507fb7e5506455a10d7814101f306ad795179a86013bcc2e5ec192899f8894104a5081886040516200178692919062003d0b565b60405180910390a18194505050505092915050565b6060816000808273ffffffffffffffffffffffffffffffffffffffff1673ffffffffffffffffffffffffffffffffffffffff16815260200190815260200160002060030160009054906101000a900460ff166200182f576040517f08c379a0000000000000000000000000000000000000000000000000000000008152600401620018269062003be9565b60405180910390fd5b60008060008573ffffffffffffffffffffffffffffffffffffffff1673ffffffffffffffffffffffffffffffffffffffff168152602001908152602001600020600501805480602002602001604051908101604052809291908181526020018280548015620018be57602002820191906000526020600020905b815481526020019060010190808311620018a9575b505050505090508092505050919050565b6000803373ffffffffffffffffffffffffffffffffffffffff1673ffffffffffffffffffffffffffffffffffffffff16815260200190815260200160002060030160009054906101000a900460ff1662001960576040517f08c379a0000000000000000000000000000000000000000000000000000000008152600401620019579062003c2d565b60405180910390fd5b600015156000803373ffffffffffffffffffffffffffffffffffffffff1673ffffffffffffffffffffffffffffffffffffffff168152602001908152602001600020600401600085815260200190815260200160002060040160009054906101000a900460ff1615151462001a0c576040517f08c379a000000000000000000000000000000000000000000000000000000000815260040162001a039062003b61565b60405180910390fd5b6000151562001a1b846200269e565b15151462001a60576040517f08c379a000000000000000000000000000000000000000000000000000000000815260040162001a579062003bc7565b60405180910390fd5b6040518060a00160405280858152602001848152602001838152602001828152602001600115158152506000803373ffffffffffffffffffffffffffffffffffffffff1673ffffffffffffffffffffffffffffffffffffffff1681526020019081526020016000206004016000858152602001908152602001600020600082015181600001908051906020019062001afa92919062002b06565b5060208201518160010155604082015181600201556060820151816003015560808201518160040160006101000a81548160ff0219169083151502179055509050506000803373ffffffffffffffffffffffffffffffffffffffff1673ffffffffffffffffffffffffffffffffffffffff1681526020019081526020016000206005018390806001815401808255809150506001900390600052602060002001600090919091909150557fd1e2fbf044d14ac6729f5e635dd169bce44b7cbbe7247be2a9bd4605987570616000803373ffffffffffffffffffffffffffffffffffffffff1673ffffffffffffffffffffffffffffffffffffffff16815260200190815260200160002060040160008581526020019081526020016000203360405162001c2892919062003d3f565b60405180910390a150505050565b60608060006060806000866000808273ffffffffffffffffffffffffffffffffffffffff1673ffffffffffffffffffffffffffffffffffffffff16815260200190815260200160002060030160009054906101000a900460ff1662001cd2576040517f08c379a000000000000000000000000000000000000000000000000000000000815260040162001cc99062003be9565b60405180910390fd5b60008060008a73ffffffffffffffffffffffffffffffffffffffff1673ffffffffffffffffffffffffffffffffffffffff168152602001908152602001600020600101805462001d229062003ff8565b80601f016020809104026020016040519081016040528092919081815260200182805462001d509062003ff8565b801562001da15780601f1062001d755761010080835404028352916020019162001da1565b820191906000526020600020905b81548152906001019060200180831162001d8357829003601f168201915b5050505050905060008060008b73ffffffffffffffffffffffffffffffffffffffff1673ffffffffffffffffffffffffffffffffffffffff168152602001908152602001600020600201805462001df89062003ff8565b80601f016020809104026020016040519081016040528092919081815260200182805462001e269062003ff8565b801562001e775780601f1062001e4b5761010080835404028352916020019162001e77565b820191906000526020600020905b81548152906001019060200180831162001e5957829003601f168201915b5050505050905060008060008c73ffffffffffffffffffffffffffffffffffffffff1673ffffffffffffffffffffffffffffffffffffffff16815260200190815260200160002060030160009054906101000a900460ff16905060008060008d73ffffffffffffffffffffffffffffffffffffffff1673ffffffffffffffffffffffffffffffffffffffff16815260200190815260200160002060030160019054906101000a900473ffffffffffffffffffffffffffffffffffffffff1690508284838373ffffffffffffffffffffffffffffffffffffffff166306fdde036040518163ffffffff1660e01b815260040160006040518083038186803b15801562001f8157600080fd5b505afa15801562001f96573d6000803e3d6000fd5b505050506040513d6000823e3d601f19601f8201168201806040525081019062001fc1919062002e15565b8473ffffffffffffffffffffffffffffffffffffffff166395d89b416040518163ffffffff1660e01b815260040160006040518083038186803b1580156200200857600080fd5b505afa1580156200201d573d6000803e3d6000fd5b505050506040513d6000823e3d601f19601f8201168201806040525081019062002048919062002e15565b8573ffffffffffffffffffffffffffffffffffffffff166318160ddd6040518163ffffffff1660e01b815260040160206040518083038186803b1580156200208f57600080fd5b505afa158015620020a4573d6000803e3d6000fd5b505050506040513d601f19601f82011682018060405250810190620020ca919062003079565b9a509a509a509a509a509a50505050505091939550919395565b600015156000803373ffffffffffffffffffffffffffffffffffffffff1673ffffffffffffffffffffffffffffffffffffffff16815260200190815260200160002060030160009054906101000a900460ff161515146200217c576040517f08c379a0000000000000000000000000000000000000000000000000000000008152600401620021739062003c4f565b60405180910390fd5b8484336040516200218d9062002af8565b6200219b9392919062003a32565b604051809103906000f080158015620021b8573d6000803e3d6000fd5b506000803373ffffffffffffffffffffffffffffffffffffffff1673ffffffffffffffffffffffffffffffffffffffff16815260200190815260200160002060030160016101000a81548173ffffffffffffffffffffffffffffffffffffffff021916908373ffffffffffffffffffffffffffffffffffffffff1602179055506000803373ffffffffffffffffffffffffffffffffffffffff1673ffffffffffffffffffffffffffffffffffffffff16815260200190815260200160002060030160019054906101000a900473ffffffffffffffffffffffffffffffffffffffff1673ffffffffffffffffffffffffffffffffffffffff16634e6ec24733856040518363ffffffff1660e01b8152600401620022d6929190620039a0565b600060405180830381600087803b158015620022f157600080fd5b505af115801562002306573d6000803e3d6000fd5b5050505060016000803373ffffffffffffffffffffffffffffffffffffffff1673ffffffffffffffffffffffffffffffffffffffff16815260200190815260200160002060030160006101000a81548160ff021916908315150217905550816000803373ffffffffffffffffffffffffffffffffffffffff1673ffffffffffffffffffffffffffffffffffffffff1681526020019081526020016000206001019080519060200190620023bb92919062002b06565b50806000803373ffffffffffffffffffffffffffffffffffffffff1673ffffffffffffffffffffffffffffffffffffffff16815260200190815260200160002060020190805190602001906200241392919062002b06565b50336001836040516200242791906200393d565b908152602001604051809103902060006101000a81548173ffffffffffffffffffffffffffffffffffffffff021916908373ffffffffffffffffffffffffffffffffffffffff1602179055507f575ebbe83b9bae9316416e6a75ae380ba3cbe8d21708139283cd0dce393a28de85858533604051620024aa949392919062003b06565b60405180910390a15050505050565b60008060008373ffffffffffffffffffffffffffffffffffffffff1673ffffffffffffffffffffffffffffffffffffffff16815260200190815260200160002060030160009054906101000a900460ff169050919050565b6000826000808273ffffffffffffffffffffffffffffffffffffffff1673ffffffffffffffffffffffffffffffffffffffff16815260200190815260200160002060030160009054906101000a900460ff16620025a5576040517f08c379a00000000000000000000000000000000000000000000000000000000081526004016200259c9062003be9565b60405180910390fd5b6000808573ffffffffffffffffffffffffffffffffffffffff1673ffffffffffffffffffffffffffffffffffffffff16815260200190815260200160002060030160019054906101000a900473ffffffffffffffffffffffffffffffffffffffff1673ffffffffffffffffffffffffffffffffffffffff166370a08231846040518263ffffffff1660e01b815260040162002641919062003956565b60206040518083038186803b1580156200265a57600080fd5b505afa1580156200266f573d6000803e3d6000fd5b505050506040513d601f19601f8201168201806040525081019062002695919062003079565b91505092915050565b600080600090505b6000803373ffffffffffffffffffffffffffffffffffffffff1673ffffffffffffffffffffffffffffffffffffffff16815260200190815260200160002060050180549050811015620027a157826000803373ffffffffffffffffffffffffffffffffffffffff1673ffffffffffffffffffffffffffffffffffffffff16815260200190815260200160002060050182815481106200276e577f4e487b7100000000000000000000000000000000000000000000000000000000600052603260045260246000fd5b906000526020600020015414156200278b576001915050620027a7565b8080620027989062004088565b915050620026a6565b50600090505b919050565b60008060003373ffffffffffffffffffffffffffffffffffffffff1673ffffffffffffffffffffffffffffffffffffffff16815260200190815260200160002060030160009054906101000a900460ff166200283f576040517f08c379a0000000000000000000000000000000000000000000000000000000008152600401620028369062003c2d565b60405180910390fd5b6000803373ffffffffffffffffffffffffffffffffffffffff1673ffffffffffffffffffffffffffffffffffffffff168152602001908152602001600020600401600083815260200190815260200160002060040160009054906101000a900460ff16620028e4576040517f08c379a0000000000000000000000000000000000000000000000000000000008152600401620028db9062003c0b565b60405180910390fd5b604051806020016040528060008152506000803373ffffffffffffffffffffffffffffffffffffffff1673ffffffffffffffffffffffffffffffffffffffff168152602001908152602001600020600401600084815260200190815260200160002060000190805190602001906200295e92919062002b06565b5060008060003373ffffffffffffffffffffffffffffffffffffffff1673ffffffffffffffffffffffffffffffffffffffff16815260200190815260200160002060040160008481526020019081526020016000206002018190555060008060003373ffffffffffffffffffffffffffffffffffffffff1673ffffffffffffffffffffffffffffffffffffffff16815260200190815260200160002060040160008481526020019081526020016000206003018190555060008060003373ffffffffffffffffffffffffffffffffffffffff1673ffffffffffffffffffffffffffffffffffffffff168152602001908152602001600020600401600084815260200190815260200160002060040160006101000a81548160ff0219169083151502179055507fa1bf3b788f3a0cc6b88547dd58694ec8018fbdab27fa1ef8674e6cb4a31dc654823360405162002ab692919062003d90565b60405180910390a160019050919050565b6040518060a00160405280606081526020016000815260200160008152602001600081526020016000151581525090565b611bcb80620041dd83390190565b82805462002b149062003ff8565b90600052602060002090601f01602090048101928262002b38576000855562002b84565b82601f1062002b5357805160ff191683800117855562002b84565b8280016001018555821562002b84579182015b8281111562002b8357825182559160200191906001019062002b66565b5b50905062002b93919062002b97565b5090565b5b8082111562002bb257600081600090555060010162002b98565b5090565b600062002bcd62002bc78462003df1565b62003dbd565b90508281526020810184848401111562002be657600080fd5b62002bf384828562003fb3565b509392505050565b600062002c1262002c0c8462003df1565b62003dbd565b90508281526020810184848401111562002c2b57600080fd5b62002c3884828562003fc2565b509392505050565b60008135905062002c51816200418e565b92915050565b60008151905062002c6881620041a8565b92915050565b600082601f83011262002c8057600080fd5b813562002c9284826020860162002bb6565b91505092915050565b600082601f83011262002cad57600080fd5b815162002cbf84826020860162002bfb565b91505092915050565b60008135905062002cd981620041c2565b92915050565b60008151905062002cf081620041c2565b92915050565b60006020828403121562002d0957600080fd5b600062002d198482850162002c40565b91505092915050565b6000806040838503121562002d3657600080fd5b600062002d468582860162002c40565b925050602062002d598582860162002c40565b9150509250929050565b6000806040838503121562002d7757600080fd5b600062002d878582860162002c40565b925050602062002d9a8582860162002cc8565b9150509250929050565b60006020828403121562002db757600080fd5b600062002dc78482850162002c57565b91505092915050565b60006020828403121562002de357600080fd5b600082013567ffffffffffffffff81111562002dfe57600080fd5b62002e0c8482850162002c6e565b91505092915050565b60006020828403121562002e2857600080fd5b600082015167ffffffffffffffff81111562002e4357600080fd5b62002e518482850162002c9b565b91505092915050565b60008060006060848603121562002e7057600080fd5b600084013567ffffffffffffffff81111562002e8b57600080fd5b62002e998682870162002c6e565b935050602084013567ffffffffffffffff81111562002eb757600080fd5b62002ec58682870162002c6e565b925050604062002ed88682870162002cc8565b9150509250925092565b600080600080600060a0868803121562002efb57600080fd5b600086013567ffffffffffffffff81111562002f1657600080fd5b62002f248882890162002c6e565b955050602086013567ffffffffffffffff81111562002f4257600080fd5b62002f508882890162002c6e565b945050604062002f638882890162002cc8565b935050606086013567ffffffffffffffff81111562002f8157600080fd5b62002f8f8882890162002c6e565b925050608086013567ffffffffffffffff81111562002fad57600080fd5b62002fbb8882890162002c6e565b9150509295509295909350565b6000806000806080858703121562002fdf57600080fd5b600085013567ffffffffffffffff81111562002ffa57600080fd5b620030088782880162002c6e565b94505060206200301b8782880162002cc8565b93505060406200302e8782880162002cc8565b9250506060620030418782880162002cc8565b91505092959194509250565b6000602082840312156200306057600080fd5b6000620030708482850162002cc8565b91505092915050565b6000602082840312156200308c57600080fd5b60006200309c8482850162002cdf565b91505092915050565b60008060408385031215620030b957600080fd5b6000620030c98582860162002cc8565b9250506020620030dc8582860162002c40565b9150509250929050565b6000620030f4838362003731565b905092915050565b60006200310a83836200391b565b60208301905092915050565b620031218162003f55565b82525050565b620031328162003f55565b82525050565b6000620031458262003e59565b62003151818562003e94565b935083602082028501620031658562003e24565b8060005b85811015620031a75784840389528151620031858582620030e6565b9450620031928362003e7a565b925060208a0199505060018101905062003169565b50829750879550505050505092915050565b6000620031c68262003e64565b620031d2818562003ea5565b9350620031df8362003e34565b8060005b8381101562003216578151620031fa8882620030fc565b9750620032078362003e87565b925050600181019050620031e3565b5085935050505092915050565b6200322e8162003f69565b82525050565b6200323f8162003f69565b82525050565b620032508162003f9f565b82525050565b6000620032638262003e6f565b6200326f818562003eb6565b93506200328181856020860162003fc2565b6200328c8162004163565b840191505092915050565b6000620032a48262003e6f565b620032b0818562003ec7565b9350620032c281856020860162003fc2565b620032cd8162004163565b840191505092915050565b6000620032e58262003e6f565b620032f1818562003ed8565b93506200330381856020860162003fc2565b80840191505092915050565b600081546200331e8162003ff8565b6200332a818662003eb6565b945060018216600081146200334857600181146200335b5762003392565b60ff198316865260208601935062003392565b620033668562003e44565b60005b838110156200338a5781548189015260018201915060208101905062003369565b808801955050505b50505092915050565b6000620033aa600f8362003ec7565b91507f70726f64756374206578697374656400000000000000000000000000000000006000830152602082019050919050565b6000620033ec600b8362003ec7565b91507f696e76616c6964206e756d0000000000000000000000000000000000000000006000830152602082019050919050565b60006200342e600f8362003ec7565b91507f696e76616c69642062616c616e636500000000000000000000000000000000006000830152602082019050919050565b60006200347060088362003ec7565b91507f69642075736564210000000000000000000000000000000000000000000000006000830152602082019050919050565b6000620034b2600a8362003ec7565b91507f6e6f742076656e646f72000000000000000000000000000000000000000000006000830152602082019050919050565b6000620034f4600b8362003ec7565b91507f4e6f2070726f64756374210000000000000000000000000000000000000000006000830152602082019050919050565b60006200353660098362003ec7565b91507f4e6f74206f776e657200000000000000000000000000000000000000000000006000830152602082019050919050565b600062003578600c8362003ec7565b91507f76656e646f7220657869737400000000000000000000000000000000000000006000830152602082019050919050565b6000620035ba60118362003ec7565b91507f70726f64756374206e6f7420666f756e640000000000000000000000000000006000830152602082019050919050565b6000620035fc60098362003ec7565b91507f6e6f2076656e646f7200000000000000000000000000000000000000000000006000830152602082019050919050565b60006200363e600c8362003ec7565b91507f6f7574206f662073746f636b00000000000000000000000000000000000000006000830152602082019050919050565b6000606083016000830151848203600086015262003690828262003731565b9150506020830151620036a7602086018262003223565b506040830151620036bc604086018262003116565b508091505092915050565b60006060830160008084018583036000870152620036e68382620037b1565b92505060058401549050620036fb816200402e565b6200370a602087018262003223565b5062003716816200406a565b62003725604087018262003116565b50819250505092915050565b600060a083016000830151848203600086015262003750828262003256565b91505060208301516200376760208601826200391b565b5060408301516200377c60408601826200391b565b5060608301516200379160608601826200391b565b506080830151620037a6608086018262003223565b508091505092915050565b600060a0830160008084018583036000870152620037d083826200330f565b92505060018401549050620037e5816200404c565b620037f460208701826200391b565b506002840154905062003807816200404c565b6200381660408701826200391b565b506003840154905062003829816200404c565b6200383860608701826200391b565b50600484015490506200384b816200402e565b6200385a608087018262003223565b50819250505092915050565b600060a08301600080840185830360008701526200388583826200330f565b925050600184015490506200389a816200404c565b620038a960208701826200391b565b5060028401549050620038bc816200404c565b620038cb60408701826200391b565b5060038401549050620038de816200404c565b620038ed60608701826200391b565b506004840154905062003900816200402e565b6200390f608087018262003223565b50819250505092915050565b620039268162003f95565b82525050565b620039378162003f95565b82525050565b60006200394b8284620032d8565b915081905092915050565b60006020820190506200396d600083018462003127565b92915050565b60006040820190506200398a600083018562003127565b62003999602083018462003245565b9392505050565b6000604082019050620039b7600083018562003127565b620039c660208301846200392c565b9392505050565b60006020820190508181036000830152620039e9818462003138565b905092915050565b6000602082019050818103600083015262003a0d8184620031b9565b905092915050565b600060208201905062003a2c600083018462003234565b92915050565b6000606082019050818103600083015262003a4e818662003297565b9050818103602083015262003a64818562003297565b905062003a75604083018462003127565b949350505050565b600060c082019050818103600083015262003a99818962003297565b9050818103602083015262003aaf818862003297565b905062003ac0604083018762003234565b818103606083015262003ad4818662003297565b9050818103608083015262003aea818562003297565b905062003afb60a08301846200392c565b979650505050505050565b6000608082019050818103600083015262003b22818762003297565b9050818103602083015262003b38818662003297565b905062003b4960408301856200392c565b62003b58606083018462003127565b95945050505050565b6000602082019050818103600083015262003b7c816200339b565b9050919050565b6000602082019050818103600083015262003b9e81620033dd565b9050919050565b6000602082019050818103600083015262003bc0816200341f565b9050919050565b6000602082019050818103600083015262003be28162003461565b9050919050565b6000602082019050818103600083015262003c0481620034a3565b9050919050565b6000602082019050818103600083015262003c2681620034e5565b9050919050565b6000602082019050818103600083015262003c488162003527565b9050919050565b6000602082019050818103600083015262003c6a8162003569565b9050919050565b6000602082019050818103600083015262003c8c81620035ab565b9050919050565b6000602082019050818103600083015262003cae81620035ed565b9050919050565b6000602082019050818103600083015262003cd0816200362f565b9050919050565b6000604082019050818103600083015262003cf3818562003671565b905062003d04602083018462003127565b9392505050565b6000604082019050818103600083015262003d278185620036c7565b905062003d38602083018462003127565b9392505050565b6000604082019050818103600083015262003d5b818562003866565b905062003d6c602083018462003127565b9392505050565b600060208201905062003d8a60008301846200392c565b92915050565b600060408201905062003da760008301856200392c565b62003db6602083018462003127565b9392505050565b6000604051905081810181811067ffffffffffffffff8211171562003de75762003de662004134565b5b8060405250919050565b600067ffffffffffffffff82111562003e0f5762003e0e62004134565b5b601f19601f8301169050602081019050919050565b6000819050602082019050919050565b6000819050602082019050919050565b60008190508160005260206000209050919050565b600081519050919050565b600081519050919050565b600081519050919050565b6000602082019050919050565b6000602082019050919050565b600082825260208201905092915050565b600082825260208201905092915050565b600082825260208201905092915050565b600082825260208201905092915050565b600081905092915050565b600062003ef08262003f95565b915062003efd8362003f95565b92508282101562003f135762003f12620040d6565b5b828203905092915050565b600073ffffffffffffffffffffffffffffffffffffffff82169050919050565b600060ff82169050919050565b6000819050919050565b600062003f628262003f75565b9050919050565b60008115159050919050565b600073ffffffffffffffffffffffffffffffffffffffff82169050919050565b6000819050919050565b600062003fac8262003f95565b9050919050565b82818337600083830152505050565b60005b8381101562003fe257808201518184015260208101905062003fc5565b8381111562003ff2576000848401525b50505050565b600060028204905060018216806200401157607f821691505b6020821081141562004028576200402762004105565b5b50919050565b6000620040456200403f8362004174565b62003f3e565b9050919050565b6000620040636200405d8362004174565b62003f4b565b9050919050565b6000620040816200407b8362004181565b62003f1e565b9050919050565b6000620040958262003f95565b91507fffffffffffffffffffffffffffffffffffffffffffffffffffffffffffffffff821415620040cb57620040ca620040d6565b5b600182019050919050565b7f4e487b7100000000000000000000000000000000000000000000000000000000600052601160045260246000fd5b7f4e487b7100000000000000000000000000000000000000000000000000000000600052602260045260246000fd5b7f4e487b7100000000000000000000000000000000000000000000000000000000600052604160045260246000fd5b6000601f19601f8301169050919050565b60008160001c9050919050565b60008160081c9050919050565b620041998162003f55565b8114620041a557600080fd5b50565b620041b38162003f69565b8114620041bf57600080fd5b50565b620041cd8162003f95565b8114620041d957600080fd5b5056fe60806040523480156200001157600080fd5b5060405162001bcb38038062001bcb8339818101604052810190620000379190620001ec565b82600490805190602001906200004f929190620000b3565b50816005908051906020019062000068929190620000b3565b5080600260006101000a81548173ffffffffffffffffffffffffffffffffffffffff021916908373ffffffffffffffffffffffffffffffffffffffff160217905550505050620003f3565b828054620000c19062000345565b90600052602060002090601f016020900481019282620000e5576000855562000131565b82601f106200010057805160ff191683800117855562000131565b8280016001018555821562000131579182015b828111156200013057825182559160200191906001019062000113565b5b50905062000140919062000144565b5090565b5b808211156200015f57600081600090555060010162000145565b5090565b60006200017a6200017484620002a8565b62000274565b9050828152602081018484840111156200019357600080fd5b620001a08482856200030f565b509392505050565b600081519050620001b981620003d9565b92915050565b600082601f830112620001d157600080fd5b8151620001e384826020860162000163565b91505092915050565b6000806000606084860312156200020257600080fd5b600084015167ffffffffffffffff8111156200021d57600080fd5b6200022b86828701620001bf565b935050602084015167ffffffffffffffff8111156200024957600080fd5b6200025786828701620001bf565b92505060406200026a86828701620001a8565b9150509250925092565b6000604051905081810181811067ffffffffffffffff821117156200029e576200029d620003aa565b5b8060405250919050565b600067ffffffffffffffff821115620002c657620002c5620003aa565b5b601f19601f8301169050602081019050919050565b6000620002e882620002ef565b9050919050565b600073ffffffffffffffffffffffffffffffffffffffff82169050919050565b60005b838110156200032f57808201518184015260208101905062000312565b838111156200033f576000848401525b50505050565b600060028204905060018216806200035e57607f821691505b602082108114156200037557620003746200037b565b5b50919050565b7f4e487b7100000000000000000000000000000000000000000000000000000000600052602260045260246000fd5b7f4e487b7100000000000000000000000000000000000000000000000000000000600052604160045260246000fd5b620003e481620002db565b8114620003f057600080fd5b50565b6117c880620004036000396000f3fe608060405234801561001057600080fd5b50600436106100ea5760003560e01c806370a082311161008c5780639dc29fac116100665780639dc29fac14610261578063a457c2d71461027d578063a9059cbb146102ad578063dd62ed3e146102dd576100ea565b806370a08231146101f55780638da5cb5b1461022557806395d89b4114610243576100ea565b806323b872dd116100c857806323b872dd1461015b578063313ce5671461018b57806339509351146101a95780634e6ec247146101d9576100ea565b806306fdde03146100ef578063095ea7b31461010d57806318160ddd1461013d575b600080fd5b6100f761030d565b60405161010491906113fd565b60405180910390f35b61012760048036038101906101229190610f66565b61039f565b60405161013491906113e2565b60405180910390f35b6101456103bd565b604051610152919061155f565b60405180910390f35b61017560048036038101906101709190610f17565b6103c7565b60405161018291906113e2565b60405180910390f35b6101936103f6565b6040516101a0919061157a565b60405180910390f35b6101c360048036038101906101be9190610f66565b6103ff565b6040516101d091906113e2565b60405180910390f35b6101f360048036038101906101ee9190610f66565b610438565b005b61020f600480360381019061020a9190610eb2565b610598565b60405161021c919061155f565b60405180910390f35b61022d6105e0565b60405161023a91906113c7565b60405180910390f35b61024b61060a565b60405161025891906113fd565b60405180910390f35b61027b60048036038101906102769190610f66565b61069c565b005b61029760048036038101906102929190610f66565b6106aa565b6040516102a491906113e2565b60405180910390f35b6102c760048036038101906102c29190610f66565b610722565b6040516102d491906113e2565b60405180910390f35b6102f760048036038101906102f29190610edb565b610740565b604051610304919061155f565b60405180910390f35b60606004805461031c906116c3565b80601f0160208091040260200160405190810160405280929190818152602001828054610348906116c3565b80156103955780601f1061036a57610100808354040283529160200191610395565b820191906000526020600020905b81548152906001019060200180831161037857829003601f168201915b5050505050905090565b60006103b36103ac6105e0565b84846107c7565b6001905092915050565b6000600354905090565b6000806103d2610992565b90506103df85828561099a565b6103ea858585610a26565b60019150509392505050565b60006001905090565b600061042e61040c6105e0565b848461041f6104196105e0565b88610740565b61042991906115b1565b6107c7565b6001905092915050565b600073ffffffffffffffffffffffffffffffffffffffff168273ffffffffffffffffffffffffffffffffffffffff1614156104a8576040517f08c379a000000000000000000000000000000000000000000000000000000000815260040161049f9061153f565b60405180910390fd5b6104b460008383610ca7565b80600360008282546104c691906115b1565b92505081905550806000808473ffffffffffffffffffffffffffffffffffffffff1673ffffffffffffffffffffffffffffffffffffffff168152602001908152602001600020600082825461051b91906115b1565b925050819055508173ffffffffffffffffffffffffffffffffffffffff16600073ffffffffffffffffffffffffffffffffffffffff167fddf252ad1be2c89b69c2b068fc378daa952ba7f163c4a11628f55a4df523b3ef83604051610580919061155f565b60405180910390a361059460008383610cac565b5050565b60008060008373ffffffffffffffffffffffffffffffffffffffff1673ffffffffffffffffffffffffffffffffffffffff168152602001908152602001600020549050919050565b6000600260009054906101000a900473ffffffffffffffffffffffffffffffffffffffff16905090565b606060058054610619906116c3565b80601f0160208091040260200160405190810160405280929190818152602001828054610645906116c3565b80156106925780601f1061066757610100808354040283529160200191610692565b820191906000526020600020905b81548152906001019060200180831161067557829003601f168201915b5050505050905090565b6106a68282610cb1565b5050565b6000806106be6106b86105e0565b85610740565b905082811015610703576040517f08c379a00000000000000000000000000000000000000000000000000000000081526004016106fa9061151f565b60405180910390fd5b61071761070e6105e0565b858584036107c7565b600191505092915050565b600061073661072f6105e0565b8484610a26565b6001905092915050565b6000600160008473ffffffffffffffffffffffffffffffffffffffff1673ffffffffffffffffffffffffffffffffffffffff16815260200190815260200160002060008373ffffffffffffffffffffffffffffffffffffffff1673ffffffffffffffffffffffffffffffffffffffff16815260200190815260200160002054905092915050565b600073ffffffffffffffffffffffffffffffffffffffff168373ffffffffffffffffffffffffffffffffffffffff161415610837576040517f08c379a000000000000000000000000000000000000000000000000000000000815260040161082e906114ff565b60405180910390fd5b600073ffffffffffffffffffffffffffffffffffffffff168273ffffffffffffffffffffffffffffffffffffffff1614156108a7576040517f08c379a000000000000000000000000000000000000000000000000000000000815260040161089e9061145f565b60405180910390fd5b80600160008573ffffffffffffffffffffffffffffffffffffffff1673ffffffffffffffffffffffffffffffffffffffff16815260200190815260200160002060008473ffffffffffffffffffffffffffffffffffffffff1673ffffffffffffffffffffffffffffffffffffffff168152602001908152602001600020819055508173ffffffffffffffffffffffffffffffffffffffff168373ffffffffffffffffffffffffffffffffffffffff167f8c5be1e5ebec7d5bd14f71427d1e84f3dd0314c0f7b2291e5b200ac8c7c3b92583604051610985919061155f565b60405180910390a3505050565b600033905090565b60006109a68484610740565b90507fffffffffffffffffffffffffffffffffffffffffffffffffffffffffffffffff8114610a205781811015610a12576040517f08c379a0000000000000000000000000000000000000000000000000000000008152600401610a099061147f565b60405180910390fd5b610a1f84848484036107c7565b5b50505050565b600073ffffffffffffffffffffffffffffffffffffffff168373ffffffffffffffffffffffffffffffffffffffff161415610a96576040517f08c379a0000000000000000000000000000000000000000000000000000000008152600401610a8d906114df565b60405180910390fd5b600073ffffffffffffffffffffffffffffffffffffffff168273ffffffffffffffffffffffffffffffffffffffff161415610b06576040517f08c379a0000000000000000000000000000000000000000000000000000000008152600401610afd9061141f565b60405180910390fd5b610b11838383610ca7565b60008060008573ffffffffffffffffffffffffffffffffffffffff1673ffffffffffffffffffffffffffffffffffffffff16815260200190815260200160002054905081811015610b97576040517f08c379a0000000000000000000000000000000000000000000000000000000008152600401610b8e9061149f565b60405180910390fd5b8181036000808673ffffffffffffffffffffffffffffffffffffffff1673ffffffffffffffffffffffffffffffffffffffff16815260200190815260200160002081905550816000808573ffffffffffffffffffffffffffffffffffffffff1673ffffffffffffffffffffffffffffffffffffffff1681526020019081526020016000206000828254610c2a91906115b1565b925050819055508273ffffffffffffffffffffffffffffffffffffffff168473ffffffffffffffffffffffffffffffffffffffff167fddf252ad1be2c89b69c2b068fc378daa952ba7f163c4a11628f55a4df523b3ef84604051610c8e919061155f565b60405180910390a3610ca1848484610cac565b50505050565b505050565b505050565b600073ffffffffffffffffffffffffffffffffffffffff168273ffffffffffffffffffffffffffffffffffffffff161415610d21576040517f08c379a0000000000000000000000000000000000000000000000000000000008152600401610d18906114bf565b60405180910390fd5b610d2d82600083610ca7565b60008060008473ffffffffffffffffffffffffffffffffffffffff1673ffffffffffffffffffffffffffffffffffffffff16815260200190815260200160002054905081811015610db3576040517f08c379a0000000000000000000000000000000000000000000000000000000008152600401610daa9061143f565b60405180910390fd5b8181036000808573ffffffffffffffffffffffffffffffffffffffff1673ffffffffffffffffffffffffffffffffffffffff168152602001908152602001600020819055508160036000828254610e0a9190611607565b92505081905550600073ffffffffffffffffffffffffffffffffffffffff168373ffffffffffffffffffffffffffffffffffffffff167fddf252ad1be2c89b69c2b068fc378daa952ba7f163c4a11628f55a4df523b3ef84604051610e6f919061155f565b60405180910390a3610e8383600084610cac565b505050565b600081359050610e9781611764565b92915050565b600081359050610eac8161177b565b92915050565b600060208284031215610ec457600080fd5b6000610ed284828501610e88565b91505092915050565b60008060408385031215610eee57600080fd5b6000610efc85828601610e88565b9250506020610f0d85828601610e88565b9150509250929050565b600080600060608486031215610f2c57600080fd5b6000610f3a86828701610e88565b9350506020610f4b86828701610e88565b9250506040610f5c86828701610e9d565b9150509250925092565b60008060408385031215610f7957600080fd5b6000610f8785828601610e88565b9250506020610f9885828601610e9d565b9150509250929050565b610fab8161163b565b82525050565b610fba8161164d565b82525050565b6000610fcb82611595565b610fd581856115a0565b9350610fe5818560208601611690565b610fee81611753565b840191505092915050565b60006110066023836115a0565b91507f45524332303a207472616e7366657220746f20746865207a65726f206164647260008301527f65737300000000000000000000000000000000000000000000000000000000006020830152604082019050919050565b600061106c6022836115a0565b91507f45524332303a206275726e20616d6f756e7420657863656564732062616c616e60008301527f63650000000000000000000000000000000000000000000000000000000000006020830152604082019050919050565b60006110d26022836115a0565b91507f45524332303a20617070726f766520746f20746865207a65726f20616464726560008301527f73730000000000000000000000000000000000000000000000000000000000006020830152604082019050919050565b6000611138601d836115a0565b91507f45524332303a20696e73756666696369656e7420616c6c6f77616e63650000006000830152602082019050919050565b60006111786026836115a0565b91507f45524332303a207472616e7366657220616d6f756e742065786365656473206260008301527f616c616e636500000000000000000000000000000000000000000000000000006020830152604082019050919050565b60006111de6021836115a0565b91507f45524332303a206275726e2066726f6d20746865207a65726f2061646472657360008301527f73000000000000000000000000000000000000000000000000000000000000006020830152604082019050919050565b60006112446025836115a0565b91507f45524332303a207472616e736665722066726f6d20746865207a65726f20616460008301527f64726573730000000000000000000000000000000000000000000000000000006020830152604082019050919050565b60006112aa6024836115a0565b91507f45524332303a20617070726f76652066726f6d20746865207a65726f2061646460008301527f72657373000000000000000000000000000000000000000000000000000000006020830152604082019050919050565b60006113106025836115a0565b91507f45524332303a2064656372656173656420616c6c6f77616e63652062656c6f7760008301527f207a65726f0000000000000000000000000000000000000000000000000000006020830152604082019050919050565b6000611376601f836115a0565b91507f45524332303a206d696e7420746f20746865207a65726f2061646472657373006000830152602082019050919050565b6113b281611679565b82525050565b6113c181611683565b82525050565b60006020820190506113dc6000830184610fa2565b92915050565b60006020820190506113f76000830184610fb1565b92915050565b600060208201905081810360008301526114178184610fc0565b905092915050565b6000602082019050818103600083015261143881610ff9565b9050919050565b600060208201905081810360008301526114588161105f565b9050919050565b60006020820190508181036000830152611478816110c5565b9050919050565b600060208201905081810360008301526114988161112b565b9050919050565b600060208201905081810360008301526114b88161116b565b9050919050565b600060208201905081810360008301526114d8816111d1565b9050919050565b600060208201905081810360008301526114f881611237565b9050919050565b600060208201905081810360008301526115188161129d565b9050919050565b6000602082019050818103600083015261153881611303565b9050919050565b6000602082019050818103600083015261155881611369565b9050919050565b600060208201905061157460008301846113a9565b92915050565b600060208201905061158f60008301846113b8565b92915050565b600081519050919050565b600082825260208201905092915050565b60006115bc82611679565b91506115c783611679565b9250827fffffffffffffffffffffffffffffffffffffffffffffffffffffffffffffffff038211156115fc576115fb6116f5565b5b828201905092915050565b600061161282611679565b915061161d83611679565b9250828210156116305761162f6116f5565b5b828203905092915050565b600061164682611659565b9050919050565b60008115159050919050565b600073ffffffffffffffffffffffffffffffffffffffff82169050919050565b6000819050919050565b600060ff82169050919050565b60005b838110156116ae578082015181840152602081019050611693565b838111156116bd576000848401525b50505050565b600060028204905060018216806116db57607f821691505b602082108114156116ef576116ee611724565b5b50919050565b7f4e487b7100000000000000000000000000000000000000000000000000000000600052601160045260246000fd5b7f4e487b7100000000000000000000000000000000000000000000000000000000600052602260045260246000fd5b6000601f19601f8301169050919050565b61176d8161163b565b811461177857600080fd5b50565b61178481611679565b811461178f57600080fd5b5056fea26469706673582212206683192f24022d3e2cf23f840565a08df3bdc7acc42fbc183a85cfdb3fc5fd2064736f6c63430008000033a2646970667358221220d4da978647257703d4b4da5a16a801a8f51b6991b404af0534bd3c0ecdac8c9564736f6c63430008000033",
  "immutableReferences": {},
  "source": "//SPDX-License-Identifier: MIT\r\npragma solidity ^0.8.0;\r\n\r\nimport \"@openzeppelin/contracts/utils/Context.sol\";\r\nimport \"@openzeppelin/contracts/token/ERC20/IERC20.sol\";\r\nimport \"@openzeppelin/contracts/token/ERC20/extensions/IERC20Metadata.sol\";\r\n\r\ncontract CouponFactory {\r\n\r\n    struct Vendor{\r\n        address account;\r\n        string vendorId;\r\n        string vendorName;\r\n        //check if the vendor exist, instead of using for loop\r\n        bool _exist;\r\n        //every vendor has its own token/coupon\r\n        ERC20 coupon;\r\n        mapping(uint=>Product) products;\r\n        //for getting off-chain product data\r\n        uint[] productIdList;\r\n        mapping(address=>Consumer) consumers;\r\n    }\r\n\r\n    struct Consumer {\r\n        Product purchasedProdcut; //which product the comsumer purchased\r\n        bool notSpent; //the customer already spent coupon or not\r\n        address id;\r\n    }\r\n\r\n    struct Product {\r\n        string name;\r\n        uint id;\r\n        uint256 price;\r\n        uint256 stock; \r\n        //check if the product exist, instead of using for loop\r\n        bool _exist;\r\n    }\r\n\r\n    //vendor info, token/coupon info and consumer info must be on chain\r\n   mapping(address=>Vendor) vendors;\r\n      //use id get vendor account address\r\n    mapping(string=>address) vendorsAdrs; \r\n\r\n\r\n    event couponCreate(string name, string symbol, uint256 totalSupply,address vendor);\r\n    event productSet(Product product,address vendor);\r\n    event consumerGetCoupon(Consumer consumer,address vendor);\r\n    event couponUsed(Consumer consumer,address vendor);\r\n    event productDeleted(uint id, address vendor);\r\n\r\n //function that check if the msg.sender is already a vendor\r\n    modifier hasVendor(address _vendor){\r\n        require(vendors[_vendor]._exist,\"not vendor\");\r\n        _;\r\n    }\r\n\r\nmodifier isOwner(){\r\n   require(vendors[msg.sender]._exist,\"Not owner\");\r\n   _;\r\n} \r\n\r\n//allow vendor reset the token,but the existing consumer will not able to use the previous token\r\nfunction resetToken(string memory _name, string memory _symbol, uint256 _tokenSupply) public isOwner {\r\n    vendors[msg.sender].coupon= new ERC20(_name, _symbol,msg.sender);\r\n    vendors[msg.sender].coupon._mint(msg.sender, _tokenSupply);\r\n}\r\n\r\n    //vendor can create its own token by calling this method\r\n    function createToken(string memory _name, string memory _symbol, uint256 _totalSupply,string memory _vid, string memory _vname) public  {\r\n        require(vendors[msg.sender]._exist==false,\"vendor exist\");\r\n        vendors[msg.sender].coupon= new ERC20(_name, _symbol,msg.sender);\r\n        vendors[msg.sender].coupon._mint(msg.sender, _totalSupply);\r\n        //vendor can only be on vendors list by creating its own token\r\n         vendors[msg.sender]._exist=true;\r\n         vendors[msg.sender].vendorId=_vid;\r\n         vendors[msg.sender].vendorName=_vname;\r\n        vendorsAdrs[_vid]=msg.sender;\r\n         emit couponCreate(_name, _symbol, _totalSupply,msg.sender);\r\n    }\r\n   \r\nfunction getVendorAddress(string memory vendorId) public view returns (address){\r\n    address vendorAdrs=vendorsAdrs[vendorId];\r\n    return vendorAdrs;\r\n}\r\n\r\n\r\n    function getBalance(address _vendorAdrs,address owner) public hasVendor(_vendorAdrs)  view  returns (uint256) {\r\n        return vendors[_vendorAdrs].coupon.balanceOf(owner);\r\n    }\r\n\r\n    function checkVendorExist(address _vendorAdrs) public view returns (bool){\r\n    return vendors[_vendorAdrs]._exist;\r\n} \r\n\r\nfunction getVendorBasicInfo(address _vendorAdrs) public hasVendor(_vendorAdrs) view returns (string memory _vendorName, string memory _vendorId, bool _exist,string memory _name, string memory _symbol, uint256 _totalSupply) {\r\n    string memory vendorId=vendors[_vendorAdrs].vendorId;\r\n    string memory vendorName=vendors[_vendorAdrs].vendorName;\r\n    bool  vendorExist=vendors[_vendorAdrs]._exist;\r\n    ERC20 coupon=vendors[_vendorAdrs].coupon;\r\n return (vendorName,vendorId,vendorExist, coupon.name(), coupon.symbol(), coupon.totalSupply());\r\n}\r\n\r\n\r\n   //consumer get token,one address is allowed to get one token/coupon only\r\n    function getCoupon(address _vendorAdrs, address _consumerAdrs) external hasVendor(_vendorAdrs)  returns (bool) {\r\n         require(_consumerAdrs != address(0));\r\n        //check if the receipient is the owner or not\r\n        require(_consumerAdrs!=_vendorAdrs);\r\n        //require(vendors[_vendorAdrs]._exist,\"No such vendor\");\r\n         ERC20 coupon=vendors[_vendorAdrs].coupon;\r\n        //check if consumer already has token or not\r\n        require(coupon.balanceOf(_consumerAdrs)==0);\r\n        //check if the balance of vendor >=1\r\n        require(coupon.balanceOf( _vendorAdrs)>=1);\r\n       (bool sent) =coupon.transfer(_consumerAdrs,1);\r\n        require(sent);\r\n        //create a consumer in vendor's consumers list\r\n        Consumer storage consumer =vendors[_vendorAdrs].consumers[_consumerAdrs];\r\n        consumer.notSpent=true;\r\n        consumer.id=_consumerAdrs;\r\n        emit consumerGetCoupon(consumer,_vendorAdrs);\r\n        return sent;\r\n    }\r\n\r\n    function useCoupon(address _vendorAdrs,uint productId) external hasVendor(_vendorAdrs) returns(bool){\r\n        //check if the product exists\r\n        require(vendors[_vendorAdrs].products[productId]._exist,\"product not found\");\r\n        Product memory product=vendors[_vendorAdrs].products[productId];\r\n        ERC20 coupon=vendors[_vendorAdrs].coupon;\r\n        //check if the stock of product bigger than 1\r\n        require(product.stock>=1,\"out of stock\");\r\n        //check if the msg.sender has 1 token and not spent yet\r\n        require(coupon.balanceOf(msg.sender)==1,\"invalid balance\");\r\n        //vendor should not use coupon\r\n        require(msg.sender!=_vendorAdrs,\"no vendor\");\r\n        //the msg.sender can only use its own coupon\r\n        Consumer memory consumer=vendors[_vendorAdrs].consumers[msg.sender];\r\n        bool spent= consumer.notSpent;\r\n        require(spent,\"invalid num\");\r\n        product.stock-=1;\r\n        //add product to consumer\r\n        consumer.purchasedProdcut=product;\r\n        consumer.notSpent=false;\r\n        //burn the token\r\n        coupon.burn(msg.sender,1);\r\n        emit couponUsed(consumer,_vendorAdrs);\r\n    return true;\r\n    }\r\n    function checkIdUsed(uint id) public view returns (bool){\r\n  for(uint i=0; i< vendors[msg.sender].productIdList.length; i++){\r\n      if(vendors[msg.sender].productIdList[i]==id) {\r\n          return true;\r\n      }\r\n  }\r\n   return false;\r\n}\r\n\r\n        //only vendor can set product to its products list\r\n    function setProduct(string memory name,uint id,uint256 price,uint256 stock) external isOwner {\r\n        require(vendors[msg.sender].products[id]._exist==false,\"product existed\");\r\n        //the product id should be unique even if the product is deleted\r\n        require(checkIdUsed(id)==false,\"id used!\");\r\n        vendors[msg.sender].products[id]=Product(name,id,price,stock,true);\r\n        //set product id list for getting off chain products list\r\n         vendors[msg.sender].productIdList.push(id);\r\n         emit productSet(vendors[msg.sender].products[id],msg.sender);\r\n    }\r\n\r\n//we may not need to handle the fetch of all products in contract\r\n    //we can store the products data off-chain \r\n    //fetch those data in the front end by looping the productIdList.\r\n    function getProductIDList(address _vendorAdrs) public hasVendor(_vendorAdrs) view returns(uint[] memory){\r\n        uint[] memory productIdList=vendors[_vendorAdrs].productIdList;\r\n        return productIdList;\r\n    }\r\n\r\n    function getProducts(address _vendorAdrs) public hasVendor(_vendorAdrs) view returns (Product[] memory products){\r\n        uint[] memory productIdList=vendors[_vendorAdrs].productIdList;\r\n       Product[] memory Iproducts= new Product[](productIdList.length); \r\n       for (uint i = 0; i <productIdList.length; i++) {\r\n          Product memory Iproduct = vendors[_vendorAdrs].products[productIdList[i]];\r\n          Iproducts[i] = Iproduct;\r\n      }\r\n      return Iproducts;\r\n    }\r\n\r\n    function checkProductExist(uint id,address _vendorAdrs) public  hasVendor(_vendorAdrs) view returns (bool) {\r\n            Product memory product= vendors[_vendorAdrs].products[id];\r\n            return product._exist;\r\n    }\r\n\r\n    //delete product\r\n    function deleteProduct(uint id) public isOwner returns (bool) {\r\n        require(vendors[msg.sender].products[id]._exist,\"No product!\");\r\n        vendors[msg.sender].products[id].name=\"\";\r\n        vendors[msg.sender].products[id].price=0;\r\n        vendors[msg.sender].products[id].stock=0;\r\n        vendors[msg.sender].products[id]._exist=false;\r\n        emit productDeleted(id, msg.sender);\r\n        return true;\r\n    }\r\n}\r\n\r\n\r\n\r\n//this contract is copied from openzeppelin ERC20 contract, but I altered some function to public\r\n//in order to make them available after it is instantialized in other contract\r\ncontract ERC20 is Context,IERC20, IERC20Metadata {\r\n    mapping(address => uint256) private _balances;\r\n\r\n    mapping(address => mapping(address => uint256)) private _allowances;\r\n\r\n  address private _owner;\r\n\r\n    uint256 private _totalSupply;\r\n\r\n    string private _name;\r\n    string private _symbol;\r\n\r\n    /**\r\n     * @dev Sets the values for {name} and {symbol}.\r\n     *\r\n     * The default value of {decimals} is 18. To select a different value for\r\n     * {decimals} you should overload it.\r\n     *\r\n     * All two of these values are immutable: they can only be set once during\r\n     * construction.\r\n     */\r\n    constructor(string memory name_, string memory symbol_,address tokenOwner) {\r\n        _name = name_;\r\n        _symbol = symbol_;\r\n        _owner=tokenOwner;\r\n    }\r\n\r\n/**\r\n     * @dev Returns the address of the current owner.\r\n     */\r\n    function owner() public view virtual returns (address) {\r\n        return _owner;\r\n    }\r\n\r\n    /**\r\n     * @dev Returns the name of the token.\r\n     */\r\n    function name() public view virtual override returns (string memory) {\r\n        return _name;\r\n    }\r\n\r\n    /**\r\n     * @dev Returns the symbol of the token, usually a shorter version of the\r\n     * name.\r\n     */\r\n    function symbol() public view virtual override returns (string memory) {\r\n        return _symbol;\r\n    }\r\n\r\n    /**\r\n     * @dev Returns the number of decimals used to get its user representation.\r\n     * For example, if `decimals` equals `2`, a balance of `505` tokens should\r\n     * be displayed to a user as `5.05` (`505 / 10 ** 2`).\r\n     *\r\n     * Tokens usually opt for a value of 18, imitating the relationship between\r\n     * Ether and Wei. This is the value {ERC20} uses, unless this function is\r\n     * overridden;\r\n     *\r\n     * NOTE: This information is only used for _display_ purposes: it in\r\n     * no way affects any of the arithmetic of the contract, including\r\n     * {IERC20-balanceOf} and {IERC20-transfer}.\r\n     */\r\n    function decimals() public view virtual override returns (uint8) {\r\n       return 1;\r\n    }\r\n\r\n    /**\r\n     * @dev See {IERC20-totalSupply}.\r\n     */\r\n    function totalSupply() public view virtual override returns (uint256) {\r\n        return _totalSupply;\r\n    }\r\n\r\n    /**\r\n     * @dev See {IERC20-balanceOf}.\r\n     */\r\n    function balanceOf(address account) public view virtual override returns (uint256) {\r\n        return _balances[account];\r\n    }\r\n\r\n    /**\r\n     * @dev See {IERC20-transfer}.\r\n     *\r\n     * Requirements:\r\n     *\r\n     * - `to` cannot be the zero address.\r\n     * - the caller must have a balance of at least `amount`.\r\n     */\r\n    function transfer(address to, uint256 amount) public virtual override returns (bool) {\r\n        //address owner = _msgSender();\r\n        _transfer(owner(), to, amount);\r\n        return true;\r\n    }\r\n\r\n    /**\r\n     * @dev See {IERC20-allowance}.\r\n     */\r\n    function allowance(address tokenOwner, address spender) public view virtual override returns (uint256) {\r\n        return _allowances[tokenOwner][spender];\r\n    }\r\n\r\n    /**\r\n     * @dev See {IERC20-approve}.\r\n     *\r\n     * NOTE: If `amount` is the maximum `uint256`, the allowance is not updated on\r\n     * `transferFrom`. This is semantically equivalent to an infinite approval.\r\n     *\r\n     * Requirements:\r\n     *\r\n     * - `spender` cannot be the zero address.\r\n     */\r\n    function approve(address spender, uint256 amount) public virtual override returns (bool) {\r\n        //address owner = _msgSender();\r\n        _approve(owner(), spender, amount);\r\n        return true;\r\n    }\r\n\r\n    /**\r\n     * @dev See {IERC20-transferFrom}.\r\n     *\r\n     * Emits an {Approval} event indicating the updated allowance. This is not\r\n     * required by the EIP. See the note at the beginning of {ERC20}.\r\n     *\r\n     * NOTE: Does not update the allowance if the current allowance\r\n     * is the maximum `uint256`.\r\n     *\r\n     * Requirements:\r\n     *\r\n     * - `from` and `to` cannot be the zero address.\r\n     * - `from` must have a balance of at least `amount`.\r\n     * - the caller must have allowance for ``from``'s tokens of at least\r\n     * `amount`.\r\n     */\r\n    function transferFrom(\r\n        address from,\r\n        address to,\r\n        uint256 amount\r\n    ) public virtual override returns (bool) {\r\n        address spender = _msgSender();\r\n        _spendAllowance(from, spender, amount);\r\n        _transfer(from, to, amount);\r\n        return true;\r\n    }\r\n\r\n    /**\r\n     * @dev Atomically increases the allowance granted to `spender` by the caller.\r\n     *\r\n     * This is an alternative to {approve} that can be used as a mitigation for\r\n     * problems described in {IERC20-approve}.\r\n     *\r\n     * Emits an {Approval} event indicating the updated allowance.\r\n     *\r\n     * Requirements:\r\n     *\r\n     * - `spender` cannot be the zero address.\r\n     */\r\n    function increaseAllowance(address spender, uint256 addedValue) public virtual returns (bool) {\r\n        //address owner = _msgSender();\r\n        _approve(owner(), spender, allowance(owner(), spender) + addedValue);\r\n        return true;\r\n    }\r\n\r\n    /**\r\n     * @dev Atomically decreases the allowance granted to `spender` by the caller.\r\n     *\r\n     * This is an alternative to {approve} that can be used as a mitigation for\r\n     * problems described in {IERC20-approve}.\r\n     *\r\n     * Emits an {Approval} event indicating the updated allowance.\r\n     *\r\n     * Requirements:\r\n     *\r\n     * - `spender` cannot be the zero address.\r\n     * - `spender` must have allowance for the caller of at least\r\n     * `subtractedValue`.\r\n     */\r\n    function decreaseAllowance(address spender, uint256 subtractedValue) public virtual returns (bool) {\r\n        //address owner = _msgSender();\r\n        uint256 currentAllowance = allowance(owner(), spender);\r\n        require(currentAllowance >= subtractedValue, \"ERC20: decreased allowance below zero\");\r\n        unchecked {\r\n            _approve(owner(), spender, currentAllowance - subtractedValue);\r\n        }\r\n\r\n        return true;\r\n    }\r\n\r\n    /**\r\n     * @dev Moves `amount` of tokens from `sender` to `recipient`.\r\n     *\r\n     * This internal function is equivalent to {transfer}, and can be used to\r\n     * e.g. implement automatic token fees, slashing mechanisms, etc.\r\n     *\r\n     * Emits a {Transfer} event.\r\n     *\r\n     * Requirements:\r\n     *\r\n     * - `from` cannot be the zero address.\r\n     * - `to` cannot be the zero address.\r\n     * - `from` must have a balance of at least `amount`.\r\n     */\r\n    function _transfer(\r\n        address from,\r\n        address to,\r\n        uint256 amount\r\n    ) internal virtual {\r\n        require(from != address(0), \"ERC20: transfer from the zero address\");\r\n        require(to != address(0), \"ERC20: transfer to the zero address\");\r\n\r\n        _beforeTokenTransfer(from, to, amount);\r\n\r\n        uint256 fromBalance = _balances[from];\r\n        require(fromBalance >= amount, \"ERC20: transfer amount exceeds balance\");\r\n        unchecked {\r\n            _balances[from] = fromBalance - amount;\r\n        }\r\n        _balances[to] += amount;\r\n\r\n        emit Transfer(from, to, amount);\r\n\r\n        _afterTokenTransfer(from, to, amount);\r\n    }\r\n\r\n    /** @dev Creates `amount` tokens and assigns them to `account`, increasing\r\n     * the total supply.\r\n     *\r\n     * Emits a {Transfer} event with `from` set to the zero address.\r\n     *\r\n     * Requirements:\r\n     *\r\n     * - `account` cannot be the zero address.\r\n     */\r\n    function _mint(address account, uint256 amount) public virtual {\r\n        require(account != address(0), \"ERC20: mint to the zero address\");\r\n\r\n        _beforeTokenTransfer(address(0), account, amount);\r\n\r\n        _totalSupply += amount;\r\n        _balances[account] += amount;\r\n        emit Transfer(address(0), account, amount);\r\n\r\n        _afterTokenTransfer(address(0), account, amount);\r\n    }\r\n\r\n    /**\r\n     * @dev Destroys `amount` tokens from `account`, reducing the\r\n     * total supply.\r\n     *\r\n     * Emits a {Transfer} event with `to` set to the zero address.\r\n     *\r\n     * Requirements:\r\n     *\r\n     * - `account` cannot be the zero address.\r\n     * - `account` must have at least `amount` tokens.\r\n     */\r\n    function _burn(address account, uint256 amount) internal virtual {\r\n        require(account != address(0), \"ERC20: burn from the zero address\");\r\n\r\n        _beforeTokenTransfer(account, address(0), amount);\r\n\r\n        uint256 accountBalance = _balances[account];\r\n        require(accountBalance >= amount, \"ERC20: burn amount exceeds balance\");\r\n        unchecked {\r\n            _balances[account] = accountBalance - amount;\r\n        }\r\n        _totalSupply -= amount;\r\n\r\n        emit Transfer(account, address(0), amount);\r\n\r\n        _afterTokenTransfer(account, address(0), amount);\r\n    }\r\n  function burn(address tokenOwner,uint256 amount) public virtual {\r\n        _burn(tokenOwner, amount);\r\n    }\r\n    /**\r\n     * @dev Sets `amount` as the allowance of `spender` over the `owner` s tokens.\r\n     *\r\n     * This internal function is equivalent to `approve`, and can be used to\r\n     * e.g. set automatic allowances for certain subsystems, etc.\r\n     *\r\n     * Emits an {Approval} event.\r\n     *\r\n     * Requirements:\r\n     *\r\n     * - `owner` cannot be the zero address.\r\n     * - `spender` cannot be the zero address.\r\n     */\r\n    function _approve(\r\n        address tokenOwner,\r\n        address spender,\r\n        uint256 amount\r\n    ) internal virtual {\r\n        require(tokenOwner != address(0), \"ERC20: approve from the zero address\");\r\n        require(spender != address(0), \"ERC20: approve to the zero address\");\r\n\r\n        _allowances[tokenOwner][spender] = amount;\r\n        emit Approval(tokenOwner, spender, amount);\r\n    }\r\n\r\n    /**\r\n     * @dev Updates `tokenOwner` s allowance for `spender` based on spent `amount`.\r\n     *\r\n     * Does not update the allowance amount in case of infinite allowance.\r\n     * Revert if not enough allowance is available.\r\n     *\r\n     * Might emit an {Approval} event.\r\n     */\r\n    function _spendAllowance(\r\n        address tokenOwner,\r\n        address spender,\r\n        uint256 amount\r\n    ) internal virtual {\r\n        uint256 currentAllowance = allowance(tokenOwner, spender);\r\n        if (currentAllowance != type(uint256).max) {\r\n            require(currentAllowance >= amount, \"ERC20: insufficient allowance\");\r\n            unchecked {\r\n                _approve(tokenOwner, spender, currentAllowance - amount);\r\n            }\r\n        }\r\n    }\r\n\r\n    /**\r\n     * @dev Hook that is called before any transfer of tokens. This includes\r\n     * minting and burning.\r\n     *\r\n     * Calling conditions:\r\n     *\r\n     * - when `from` and `to` are both non-zero, `amount` of ``from``'s tokens\r\n     * will be transferred to `to`.\r\n     * - when `from` is zero, `amount` tokens will be minted for `to`.\r\n     * - when `to` is zero, `amount` of ``from``'s tokens will be burned.\r\n     * - `from` and `to` are never both zero.\r\n     *\r\n     * To learn more about hooks, head to xref:ROOT:extending-contracts.adoc#using-hooks[Using Hooks].\r\n     */\r\n    function _beforeTokenTransfer(\r\n        address from,\r\n        address to,\r\n        uint256 amount\r\n    ) internal virtual {}\r\n\r\n    /**\r\n     * @dev Hook that is called after any transfer of tokens. This includes\r\n     * minting and burning.\r\n     *\r\n     * Calling conditions:\r\n     *\r\n     * - when `from` and `to` are both non-zero, `amount` of ``from``'s tokens\r\n     * has been transferred to `to`.\r\n     * - when `from` is zero, `amount` tokens have been minted for `to`.\r\n     * - when `to` is zero, `amount` of ``from``'s tokens have been burned.\r\n     * - `from` and `to` are never both zero.\r\n     *\r\n     * To learn more about hooks, head to xref:ROOT:extending-contracts.adoc#using-hooks[Using Hooks].\r\n     */\r\n    function _afterTokenTransfer(\r\n        address from,\r\n        address to,\r\n        uint256 amount\r\n    ) internal virtual {}\r\n}",
  "sourcePath": "D:\\My Project\\blockchain\\CouponFactory\\contracts\\CouponFactory.sol",
  "compiler": {
    "name": "solc",
    "version": "0.8.0+commit.c7dfd78e.Emscripten.clang"
  },
  "schemaVersion": "3.4.4",
  "updatedAt": "2022-05-16T13:40:42.241Z",
  "networkType": "ethereum",
  "devdoc": {
    "kind": "dev",
    "methods": {},
    "version": 1
  },
  "userdoc": {
    "kind": "user",
    "methods": {},
    "version": 1
  }
}