{
  "contractName": "ERC20",
  "abi": [
    {
      "inputs": [
        {
          "internalType": "string",
          "name": "name_",
          "type": "string"
        },
        {
          "internalType": "string",
          "name": "symbol_",
          "type": "string"
        },
        {
          "internalType": "address",
          "name": "tokenOwner",
          "type": "address"
        }
      ],
      "stateMutability": "nonpayable",
      "type": "constructor"
    },
    {
      "anonymous": false,
      "inputs": [
        {
          "indexed": true,
          "internalType": "address",
          "name": "owner",
          "type": "address"
        },
        {
          "indexed": true,
          "internalType": "address",
          "name": "spender",
          "type": "address"
        },
        {
          "indexed": false,
          "internalType": "uint256",
          "name": "value",
          "type": "uint256"
        }
      ],
      "name": "Approval",
      "type": "event"
    },
    {
      "anonymous": false,
      "inputs": [
        {
          "indexed": true,
          "internalType": "address",
          "name": "from",
          "type": "address"
        },
        {
          "indexed": true,
          "internalType": "address",
          "name": "to",
          "type": "address"
        },
        {
          "indexed": false,
          "internalType": "uint256",
          "name": "value",
          "type": "uint256"
        }
      ],
      "name": "Transfer",
      "type": "event"
    },
    {
      "inputs": [],
      "name": "owner",
      "outputs": [
        {
          "internalType": "address",
          "name": "",
          "type": "address"
        }
      ],
      "stateMutability": "view",
      "type": "function"
    },
    {
      "inputs": [],
      "name": "name",
      "outputs": [
        {
          "internalType": "string",
          "name": "",
          "type": "string"
        }
      ],
      "stateMutability": "view",
      "type": "function"
    },
    {
      "inputs": [],
      "name": "symbol",
      "outputs": [
        {
          "internalType": "string",
          "name": "",
          "type": "string"
        }
      ],
      "stateMutability": "view",
      "type": "function"
    },
    {
      "inputs": [],
      "name": "decimals",
      "outputs": [
        {
          "internalType": "uint8",
          "name": "",
          "type": "uint8"
        }
      ],
      "stateMutability": "view",
      "type": "function"
    },
    {
      "inputs": [],
      "name": "totalSupply",
      "outputs": [
        {
          "internalType": "uint256",
          "name": "",
          "type": "uint256"
        }
      ],
      "stateMutability": "view",
      "type": "function"
    },
    {
      "inputs": [
        {
          "internalType": "address",
          "name": "account",
          "type": "address"
        }
      ],
      "name": "balanceOf",
      "outputs": [
        {
          "internalType": "uint256",
          "name": "",
          "type": "uint256"
        }
      ],
      "stateMutability": "view",
      "type": "function"
    },
    {
      "inputs": [
        {
          "internalType": "address",
          "name": "to",
          "type": "address"
        },
        {
          "internalType": "uint256",
          "name": "amount",
          "type": "uint256"
        }
      ],
      "name": "transfer",
      "outputs": [
        {
          "internalType": "bool",
          "name": "",
          "type": "bool"
        }
      ],
      "stateMutability": "nonpayable",
      "type": "function"
    },
    {
      "inputs": [
        {
          "internalType": "address",
          "name": "tokenOwner",
          "type": "address"
        },
        {
          "internalType": "address",
          "name": "spender",
          "type": "address"
        }
      ],
      "name": "allowance",
      "outputs": [
        {
          "internalType": "uint256",
          "name": "",
          "type": "uint256"
        }
      ],
      "stateMutability": "view",
      "type": "function"
    },
    {
      "inputs": [
        {
          "internalType": "address",
          "name": "spender",
          "type": "address"
        },
        {
          "internalType": "uint256",
          "name": "amount",
          "type": "uint256"
        }
      ],
      "name": "approve",
      "outputs": [
        {
          "internalType": "bool",
          "name": "",
          "type": "bool"
        }
      ],
      "stateMutability": "nonpayable",
      "type": "function"
    },
    {
      "inputs": [
        {
          "internalType": "address",
          "name": "from",
          "type": "address"
        },
        {
          "internalType": "address",
          "name": "to",
          "type": "address"
        },
        {
          "internalType": "uint256",
          "name": "amount",
          "type": "uint256"
        }
      ],
      "name": "transferFrom",
      "outputs": [
        {
          "internalType": "bool",
          "name": "",
          "type": "bool"
        }
      ],
      "stateMutability": "nonpayable",
      "type": "function"
    },
    {
      "inputs": [
        {
          "internalType": "address",
          "name": "spender",
          "type": "address"
        },
        {
          "internalType": "uint256",
          "name": "addedValue",
          "type": "uint256"
        }
      ],
      "name": "increaseAllowance",
      "outputs": [
        {
          "internalType": "bool",
          "name": "",
          "type": "bool"
        }
      ],
      "stateMutability": "nonpayable",
      "type": "function"
    },
    {
      "inputs": [
        {
          "internalType": "address",
          "name": "spender",
          "type": "address"
        },
        {
          "internalType": "uint256",
          "name": "subtractedValue",
          "type": "uint256"
        }
      ],
      "name": "decreaseAllowance",
      "outputs": [
        {
          "internalType": "bool",
          "name": "",
          "type": "bool"
        }
      ],
      "stateMutability": "nonpayable",
      "type": "function"
    },
    {
      "inputs": [
        {
          "internalType": "address",
          "name": "account",
          "type": "address"
        },
        {
          "internalType": "uint256",
          "name": "amount",
          "type": "uint256"
        }
      ],
      "name": "_mint",
      "outputs": [],
      "stateMutability": "nonpayable",
      "type": "function"
    },
    {
      "inputs": [
        {
          "internalType": "address",
          "name": "tokenOwner",
          "type": "address"
        },
        {
          "internalType": "uint256",
          "name": "amount",
          "type": "uint256"
        }
      ],
      "name": "burn",
      "outputs": [],
      "stateMutability": "nonpayable",
      "type": "function"
    }
  ],
  "bytecode": "0x60806040523480156200001157600080fd5b5060405162001bcb38038062001bcb8339818101604052810190620000379190620001ec565b82600490805190602001906200004f929190620000b3565b50816005908051906020019062000068929190620000b3565b5080600260006101000a81548173ffffffffffffffffffffffffffffffffffffffff021916908373ffffffffffffffffffffffffffffffffffffffff160217905550505050620003f3565b828054620000c19062000345565b90600052602060002090601f016020900481019282620000e5576000855562000131565b82601f106200010057805160ff191683800117855562000131565b8280016001018555821562000131579182015b828111156200013057825182559160200191906001019062000113565b5b50905062000140919062000144565b5090565b5b808211156200015f57600081600090555060010162000145565b5090565b60006200017a6200017484620002a8565b62000274565b9050828152602081018484840111156200019357600080fd5b620001a08482856200030f565b509392505050565b600081519050620001b981620003d9565b92915050565b600082601f830112620001d157600080fd5b8151620001e384826020860162000163565b91505092915050565b6000806000606084860312156200020257600080fd5b600084015167ffffffffffffffff8111156200021d57600080fd5b6200022b86828701620001bf565b935050602084015167ffffffffffffffff8111156200024957600080fd5b6200025786828701620001bf565b92505060406200026a86828701620001a8565b9150509250925092565b6000604051905081810181811067ffffffffffffffff821117156200029e576200029d620003aa565b5b8060405250919050565b600067ffffffffffffffff821115620002c657620002c5620003aa565b5b601f19601f8301169050602081019050919050565b6000620002e882620002ef565b9050919050565b600073ffffffffffffffffffffffffffffffffffffffff82169050919050565b60005b838110156200032f57808201518184015260208101905062000312565b838111156200033f576000848401525b50505050565b600060028204905060018216806200035e57607f821691505b602082108114156200037557620003746200037b565b5b50919050565b7f4e487b7100000000000000000000000000000000000000000000000000000000600052602260045260246000fd5b7f4e487b7100000000000000000000000000000000000000000000000000000000600052604160045260246000fd5b620003e481620002db565b8114620003f057600080fd5b50565b6117c880620004036000396000f3fe608060405234801561001057600080fd5b50600436106100ea5760003560e01c806370a082311161008c5780639dc29fac116100665780639dc29fac14610261578063a457c2d71461027d578063a9059cbb146102ad578063dd62ed3e146102dd576100ea565b806370a08231146101f55780638da5cb5b1461022557806395d89b4114610243576100ea565b806323b872dd116100c857806323b872dd1461015b578063313ce5671461018b57806339509351146101a95780634e6ec247146101d9576100ea565b806306fdde03146100ef578063095ea7b31461010d57806318160ddd1461013d575b600080fd5b6100f761030d565b60405161010491906113fd565b60405180910390f35b61012760048036038101906101229190610f66565b61039f565b60405161013491906113e2565b60405180910390f35b6101456103bd565b604051610152919061155f565b60405180910390f35b61017560048036038101906101709190610f17565b6103c7565b60405161018291906113e2565b60405180910390f35b6101936103f6565b6040516101a0919061157a565b60405180910390f35b6101c360048036038101906101be9190610f66565b6103ff565b6040516101d091906113e2565b60405180910390f35b6101f360048036038101906101ee9190610f66565b610438565b005b61020f600480360381019061020a9190610eb2565b610598565b60405161021c919061155f565b60405180910390f35b61022d6105e0565b60405161023a91906113c7565b60405180910390f35b61024b61060a565b60405161025891906113fd565b60405180910390f35b61027b60048036038101906102769190610f66565b61069c565b005b61029760048036038101906102929190610f66565b6106aa565b6040516102a491906113e2565b60405180910390f35b6102c760048036038101906102c29190610f66565b610722565b6040516102d491906113e2565b60405180910390f35b6102f760048036038101906102f29190610edb565b610740565b604051610304919061155f565b60405180910390f35b60606004805461031c906116c3565b80601f0160208091040260200160405190810160405280929190818152602001828054610348906116c3565b80156103955780601f1061036a57610100808354040283529160200191610395565b820191906000526020600020905b81548152906001019060200180831161037857829003601f168201915b5050505050905090565b60006103b36103ac6105e0565b84846107c7565b6001905092915050565b6000600354905090565b6000806103d2610992565b90506103df85828561099a565b6103ea858585610a26565b60019150509392505050565b60006001905090565b600061042e61040c6105e0565b848461041f6104196105e0565b88610740565b61042991906115b1565b6107c7565b6001905092915050565b600073ffffffffffffffffffffffffffffffffffffffff168273ffffffffffffffffffffffffffffffffffffffff1614156104a8576040517f08c379a000000000000000000000000000000000000000000000000000000000815260040161049f9061153f565b60405180910390fd5b6104b460008383610ca7565b80600360008282546104c691906115b1565b92505081905550806000808473ffffffffffffffffffffffffffffffffffffffff1673ffffffffffffffffffffffffffffffffffffffff168152602001908152602001600020600082825461051b91906115b1565b925050819055508173ffffffffffffffffffffffffffffffffffffffff16600073ffffffffffffffffffffffffffffffffffffffff167fddf252ad1be2c89b69c2b068fc378daa952ba7f163c4a11628f55a4df523b3ef83604051610580919061155f565b60405180910390a361059460008383610cac565b5050565b60008060008373ffffffffffffffffffffffffffffffffffffffff1673ffffffffffffffffffffffffffffffffffffffff168152602001908152602001600020549050919050565b6000600260009054906101000a900473ffffffffffffffffffffffffffffffffffffffff16905090565b606060058054610619906116c3565b80601f0160208091040260200160405190810160405280929190818152602001828054610645906116c3565b80156106925780601f1061066757610100808354040283529160200191610692565b820191906000526020600020905b81548152906001019060200180831161067557829003601f168201915b5050505050905090565b6106a68282610cb1565b5050565b6000806106be6106b86105e0565b85610740565b905082811015610703576040517f08c379a00000000000000000000000000000000000000000000000000000000081526004016106fa9061151f565b60405180910390fd5b61071761070e6105e0565b858584036107c7565b600191505092915050565b600061073661072f6105e0565b8484610a26565b6001905092915050565b6000600160008473ffffffffffffffffffffffffffffffffffffffff1673ffffffffffffffffffffffffffffffffffffffff16815260200190815260200160002060008373ffffffffffffffffffffffffffffffffffffffff1673ffffffffffffffffffffffffffffffffffffffff16815260200190815260200160002054905092915050565b600073ffffffffffffffffffffffffffffffffffffffff168373ffffffffffffffffffffffffffffffffffffffff161415610837576040517f08c379a000000000000000000000000000000000000000000000000000000000815260040161082e906114ff565b60405180910390fd5b600073ffffffffffffffffffffffffffffffffffffffff168273ffffffffffffffffffffffffffffffffffffffff1614156108a7576040517f08c379a000000000000000000000000000000000000000000000000000000000815260040161089e9061145f565b60405180910390fd5b80600160008573ffffffffffffffffffffffffffffffffffffffff1673ffffffffffffffffffffffffffffffffffffffff16815260200190815260200160002060008473ffffffffffffffffffffffffffffffffffffffff1673ffffffffffffffffffffffffffffffffffffffff168152602001908152602001600020819055508173ffffffffffffffffffffffffffffffffffffffff168373ffffffffffffffffffffffffffffffffffffffff167f8c5be1e5ebec7d5bd14f71427d1e84f3dd0314c0f7b2291e5b200ac8c7c3b92583604051610985919061155f565b60405180910390a3505050565b600033905090565b60006109a68484610740565b90507fffffffffffffffffffffffffffffffffffffffffffffffffffffffffffffffff8114610a205781811015610a12576040517f08c379a0000000000000000000000000000000000000000000000000000000008152600401610a099061147f565b60405180910390fd5b610a1f84848484036107c7565b5b50505050565b600073ffffffffffffffffffffffffffffffffffffffff168373ffffffffffffffffffffffffffffffffffffffff161415610a96576040517f08c379a0000000000000000000000000000000000000000000000000000000008152600401610a8d906114df565b60405180910390fd5b600073ffffffffffffffffffffffffffffffffffffffff168273ffffffffffffffffffffffffffffffffffffffff161415610b06576040517f08c379a0000000000000000000000000000000000000000000000000000000008152600401610afd9061141f565b60405180910390fd5b610b11838383610ca7565b60008060008573ffffffffffffffffffffffffffffffffffffffff1673ffffffffffffffffffffffffffffffffffffffff16815260200190815260200160002054905081811015610b97576040517f08c379a0000000000000000000000000000000000000000000000000000000008152600401610b8e9061149f565b60405180910390fd5b8181036000808673ffffffffffffffffffffffffffffffffffffffff1673ffffffffffffffffffffffffffffffffffffffff16815260200190815260200160002081905550816000808573ffffffffffffffffffffffffffffffffffffffff1673ffffffffffffffffffffffffffffffffffffffff1681526020019081526020016000206000828254610c2a91906115b1565b925050819055508273ffffffffffffffffffffffffffffffffffffffff168473ffffffffffffffffffffffffffffffffffffffff167fddf252ad1be2c89b69c2b068fc378daa952ba7f163c4a11628f55a4df523b3ef84604051610c8e919061155f565b60405180910390a3610ca1848484610cac565b50505050565b505050565b505050565b600073ffffffffffffffffffffffffffffffffffffffff168273ffffffffffffffffffffffffffffffffffffffff161415610d21576040517f08c379a0000000000000000000000000000000000000000000000000000000008152600401610d18906114bf565b60405180910390fd5b610d2d82600083610ca7565b60008060008473ffffffffffffffffffffffffffffffffffffffff1673ffffffffffffffffffffffffffffffffffffffff16815260200190815260200160002054905081811015610db3576040517f08c379a0000000000000000000000000000000000000000000000000000000008152600401610daa9061143f565b60405180910390fd5b8181036000808573ffffffffffffffffffffffffffffffffffffffff1673ffffffffffffffffffffffffffffffffffffffff168152602001908152602001600020819055508160036000828254610e0a9190611607565b92505081905550600073ffffffffffffffffffffffffffffffffffffffff168373ffffffffffffffffffffffffffffffffffffffff167fddf252ad1be2c89b69c2b068fc378daa952ba7f163c4a11628f55a4df523b3ef84604051610e6f919061155f565b60405180910390a3610e8383600084610cac565b505050565b600081359050610e9781611764565b92915050565b600081359050610eac8161177b565b92915050565b600060208284031215610ec457600080fd5b6000610ed284828501610e88565b91505092915050565b60008060408385031215610eee57600080fd5b6000610efc85828601610e88565b9250506020610f0d85828601610e88565b9150509250929050565b600080600060608486031215610f2c57600080fd5b6000610f3a86828701610e88565b9350506020610f4b86828701610e88565b9250506040610f5c86828701610e9d565b9150509250925092565b60008060408385031215610f7957600080fd5b6000610f8785828601610e88565b9250506020610f9885828601610e9d565b9150509250929050565b610fab8161163b565b82525050565b610fba8161164d565b82525050565b6000610fcb82611595565b610fd581856115a0565b9350610fe5818560208601611690565b610fee81611753565b840191505092915050565b60006110066023836115a0565b91507f45524332303a207472616e7366657220746f20746865207a65726f206164647260008301527f65737300000000000000000000000000000000000000000000000000000000006020830152604082019050919050565b600061106c6022836115a0565b91507f45524332303a206275726e20616d6f756e7420657863656564732062616c616e60008301527f63650000000000000000000000000000000000000000000000000000000000006020830152604082019050919050565b60006110d26022836115a0565b91507f45524332303a20617070726f766520746f20746865207a65726f20616464726560008301527f73730000000000000000000000000000000000000000000000000000000000006020830152604082019050919050565b6000611138601d836115a0565b91507f45524332303a20696e73756666696369656e7420616c6c6f77616e63650000006000830152602082019050919050565b60006111786026836115a0565b91507f45524332303a207472616e7366657220616d6f756e742065786365656473206260008301527f616c616e636500000000000000000000000000000000000000000000000000006020830152604082019050919050565b60006111de6021836115a0565b91507f45524332303a206275726e2066726f6d20746865207a65726f2061646472657360008301527f73000000000000000000000000000000000000000000000000000000000000006020830152604082019050919050565b60006112446025836115a0565b91507f45524332303a207472616e736665722066726f6d20746865207a65726f20616460008301527f64726573730000000000000000000000000000000000000000000000000000006020830152604082019050919050565b60006112aa6024836115a0565b91507f45524332303a20617070726f76652066726f6d20746865207a65726f2061646460008301527f72657373000000000000000000000000000000000000000000000000000000006020830152604082019050919050565b60006113106025836115a0565b91507f45524332303a2064656372656173656420616c6c6f77616e63652062656c6f7760008301527f207a65726f0000000000000000000000000000000000000000000000000000006020830152604082019050919050565b6000611376601f836115a0565b91507f45524332303a206d696e7420746f20746865207a65726f2061646472657373006000830152602082019050919050565b6113b281611679565b82525050565b6113c181611683565b82525050565b60006020820190506113dc6000830184610fa2565b92915050565b60006020820190506113f76000830184610fb1565b92915050565b600060208201905081810360008301526114178184610fc0565b905092915050565b6000602082019050818103600083015261143881610ff9565b9050919050565b600060208201905081810360008301526114588161105f565b9050919050565b60006020820190508181036000830152611478816110c5565b9050919050565b600060208201905081810360008301526114988161112b565b9050919050565b600060208201905081810360008301526114b88161116b565b9050919050565b600060208201905081810360008301526114d8816111d1565b9050919050565b600060208201905081810360008301526114f881611237565b9050919050565b600060208201905081810360008301526115188161129d565b9050919050565b6000602082019050818103600083015261153881611303565b9050919050565b6000602082019050818103600083015261155881611369565b9050919050565b600060208201905061157460008301846113a9565b92915050565b600060208201905061158f60008301846113b8565b92915050565b600081519050919050565b600082825260208201905092915050565b60006115bc82611679565b91506115c783611679565b9250827fffffffffffffffffffffffffffffffffffffffffffffffffffffffffffffffff038211156115fc576115fb6116f5565b5b828201905092915050565b600061161282611679565b915061161d83611679565b9250828210156116305761162f6116f5565b5b828203905092915050565b600061164682611659565b9050919050565b60008115159050919050565b600073ffffffffffffffffffffffffffffffffffffffff82169050919050565b6000819050919050565b600060ff82169050919050565b60005b838110156116ae578082015181840152602081019050611693565b838111156116bd576000848401525b50505050565b600060028204905060018216806116db57607f821691505b602082108114156116ef576116ee611724565b5b50919050565b7f4e487b7100000000000000000000000000000000000000000000000000000000600052601160045260246000fd5b7f4e487b7100000000000000000000000000000000000000000000000000000000600052602260045260246000fd5b6000601f19601f8301169050919050565b61176d8161163b565b811461177857600080fd5b50565b61178481611679565b811461178f57600080fd5b5056fea264697066735822122048a5d81f8370198e71efab9c846ef3b44ff6e487a6ae3acdd0c7ad92d30312a764736f6c63430008000033",
  "immutableReferences": {},
  "source": "//SPDX-License-Identifier: MIT\r\npragma solidity ^0.8.0;\r\n\r\nimport \"@openzeppelin/contracts/utils/Context.sol\";\r\nimport \"@openzeppelin/contracts/token/ERC20/IERC20.sol\";\r\nimport \"@openzeppelin/contracts/token/ERC20/extensions/IERC20Metadata.sol\";\r\n\r\ncontract CouponFactory {\r\n\r\n    struct Vendor{\r\n        address account;\r\n        //check if the vendor exist, instead of using for loop\r\n        bool _exist;\r\n        //every vendor has its own token/coupon\r\n        ERC20 coupon;\r\n        mapping(uint=>Product) products;\r\n        //for getting off-chain product data\r\n        uint[] productIdList;\r\n        mapping(address=>Consumer) consumers;\r\n        //for getting off-chain consumer data\r\n        address[] consumerIdList;\r\n    }\r\n\r\n    struct Consumer {\r\n        Product purchasedProdcut; //which product the comsumer purchased\r\n        bool notSpent; //the customer already spent coupon or not\r\n        address id;\r\n    }\r\n\r\n    struct Product {\r\n        string name;\r\n        uint id;\r\n        uint256 price;\r\n        uint256 stock; \r\n        //check if the product exist, instead of using for loop\r\n        bool _exist;\r\n    }\r\n\r\n    //vendor info, token/coupon info and consumer info must be on chain\r\n   mapping(address=>Vendor) vendors;\r\n      //use id get vendor account address\r\n    mapping(string=>address) vendorsAdrs; \r\n\r\n    event couponCreate(string name, string symbol, uint256 totalSupply,address vendor);\r\n    event productSet(Product product,address vendor);\r\n    event consumerGetCoupon(Consumer consumer,address vendor);\r\n    event couponUsed(Consumer consumer,address vendor);\r\n    event productDeleted(uint id, address vendor);\r\n\r\n //function that check if the msg.sender is already a vendor\r\n    modifier hasVendor(address _vendor){\r\n        require(vendors[_vendor]._exist,\"not vendor\");\r\n        _;\r\n    }\r\n\r\nmodifier isOwner(){\r\n   require(vendors[msg.sender]._exist,\"Not owner\");\r\n   _;\r\n} \r\n\r\n//allow vendor reset the token,but the existing consumer will not able to use the previous token\r\nfunction resetToken(string memory _name, string memory _symbol, uint256 _tokenSupply) public isOwner {\r\n    vendors[msg.sender].coupon= new ERC20(_name, _symbol,msg.sender);\r\n    vendors[msg.sender].coupon._mint(msg.sender, _tokenSupply);\r\n}\r\n\r\n    //vendor can create its own token by calling this method\r\n    function createToken(string memory _name, string memory _symbol, uint256 _totalSupply) public  {\r\n        require(vendors[msg.sender]._exist==false,\"vendor exist!\");\r\n        vendors[msg.sender].coupon= new ERC20(_name, _symbol,msg.sender);\r\n        vendors[msg.sender].coupon._mint(msg.sender, _totalSupply);\r\n        //vendor can only be on vendors list by creating its own token\r\n         vendors[msg.sender]._exist=true;\r\n         emit couponCreate(_name, _symbol, _totalSupply,msg.sender);\r\n    }\r\n   \r\nfunction getVendorAddress(string memory vendorId) public view returns (address){\r\n    address vendorAdrs=vendorsAdrs[vendorId];\r\n    return vendorAdrs;\r\n}\r\n\r\n\r\n    function getBalance(address _vendorAdrs,address owner) public hasVendor(_vendorAdrs)  view  returns (uint256) {\r\n        return vendors[_vendorAdrs].coupon.balanceOf(owner);\r\n    }\r\n\r\n   function getTokenInfo(address _vendorAdrs) public hasVendor(_vendorAdrs) view returns (string memory _name, string memory _symbol, uint256 _totalSupply)  {\r\n         ERC20 coupon=vendors[_vendorAdrs].coupon;\r\n        return ( coupon.name(), coupon.symbol(), coupon.totalSupply());\r\n    }\r\n\r\n    function checkVendorExist(address _vendorAdrs) public view returns (bool){\r\n    return vendors[_vendorAdrs]._exist;\r\n}\r\n\r\nfunction checkIdUsed(uint id) public view returns (bool){\r\n  for(uint i=0; i< vendors[msg.sender].productIdList.length; i++){\r\n      if(vendors[msg.sender].productIdList[i]==id) {\r\n          return true;\r\n      }\r\n  }\r\n   return false;\r\n}\r\n\r\n        //only vendor can set product to its products list\r\n    function setProduct(string memory name,uint id,uint256 price,uint256 stock)external isOwner {\r\n        require(vendors[msg.sender].products[id]._exist==false,\"product existed\");\r\n        //the product id should be unique even if the product is deleted\r\n        require(checkIdUsed(id)==false,\"id used!\");\r\n        vendors[msg.sender].products[id]=Product(name,id,price,stock,true);\r\n        //set product id list for getting off chain products list\r\n         vendors[msg.sender].productIdList.push(id);\r\n         emit productSet(vendors[msg.sender].products[id],msg.sender);\r\n    }\r\n\r\n//we may not need to handle the fetch of all products in contract\r\n    //we can store the products data off-chain \r\n    //fetch those data in the front end by looping the productIdList.\r\n    function getProductIDList(address _vendorAdrs) public hasVendor(_vendorAdrs) view returns(uint[] memory){\r\n        uint[] memory productIdList=vendors[_vendorAdrs].productIdList;\r\n        return productIdList;\r\n    }\r\n\r\n    function getProducts(address _vendorAdrs) public hasVendor(_vendorAdrs) view returns (Product[] memory products){\r\n        uint[] memory productIdList=vendors[_vendorAdrs].productIdList;\r\n       Product[] memory Iproducts= new Product[](productIdList.length); \r\n       for (uint i = 0; i <productIdList.length; i++) {\r\n          Product memory Iproduct = vendors[_vendorAdrs].products[productIdList[i]];\r\n          Iproducts[i] = Iproduct;\r\n      }\r\n      return Iproducts;\r\n    }\r\n\r\n    function checkProductExist(uint id,address _vendorAdrs) public  hasVendor(_vendorAdrs) view returns (bool) {\r\n            Product memory product= vendors[_vendorAdrs].products[id];\r\n            return product._exist;\r\n    }\r\n\r\n    //delete product\r\n    function deleteProduct(uint id) public isOwner returns (bool) {\r\n        require(vendors[msg.sender].products[id]._exist,\"No product!\");\r\n        vendors[msg.sender].products[id].name=\"\";\r\n        vendors[msg.sender].products[id].price=0;\r\n        vendors[msg.sender].products[id].stock=0;\r\n        vendors[msg.sender].products[id]._exist=false;\r\n        emit productDeleted(id, msg.sender);\r\n        return true;\r\n    }\r\n\r\n   //consumer get token,one address is allowed to get one token/coupon only\r\n    function getCoupon(address _vendorAdrs, address _consumerAdrs) external hasVendor(_vendorAdrs)  returns (bool) {\r\n         require(_consumerAdrs != address(0), \"invalid address\");\r\n        //check if the receipient is the owner or not\r\n        require(_consumerAdrs!=_vendorAdrs,\"don't send coupon to the vendor!\");\r\n        //require(vendors[_vendorAdrs]._exist,\"No such vendor\");\r\n         ERC20 coupon=vendors[_vendorAdrs].coupon;\r\n        //check if consumer already has token or not\r\n        require(coupon.balanceOf(_consumerAdrs)==0,\"You already have the coupon!\");\r\n        //check if the balance of vendor >=1\r\n        require(coupon.balanceOf( _vendorAdrs)>=1,\"Not enough coupon!\");\r\n       (bool sent) =coupon.transfer(_consumerAdrs,1);\r\n        require(sent, \"Failed to buy the coupon\");\r\n        //create a consumer in vendor's consumers list\r\n        Consumer storage consumer =vendors[_vendorAdrs].consumers[_consumerAdrs];\r\n        consumer.notSpent=true;\r\n        consumer.id=_consumerAdrs;\r\n        emit consumerGetCoupon(consumer,_vendorAdrs);\r\n        return sent;\r\n    }\r\n\r\n    function useCoupon(address _vendorAdrs,uint productId) external hasVendor(_vendorAdrs) returns(bool){\r\n        //check if the product exists\r\n        require(vendors[_vendorAdrs].products[productId]._exist,\"product not found\");\r\n        Product memory product=vendors[_vendorAdrs].products[productId];\r\n        ERC20 coupon=vendors[_vendorAdrs].coupon;\r\n        //check if the stock of product bigger than 1\r\n        require(product.stock>=1,\"out of stock\");\r\n        //check if the msg.sender has 1 token and not spent yet\r\n        require(coupon.balanceOf(msg.sender)==1,\"invalid balance!\");\r\n        //vendor should not use coupon\r\n        require(msg.sender!=_vendorAdrs,\"vendor should not use coupon!\");\r\n        //the msg.sender can only use its own coupon\r\n        Consumer memory consumer=vendors[_vendorAdrs].consumers[msg.sender];\r\n        bool spent= consumer.notSpent;\r\n        require(spent,\"you have spent your token\");\r\n        product.stock-=1;\r\n        //add product to consumer\r\n        consumer.purchasedProdcut=product;\r\n        consumer.notSpent=false;\r\n        //burn the token\r\n        coupon.burn(msg.sender,1);\r\n        emit couponUsed(consumer,_vendorAdrs);\r\n    return true;\r\n    }\r\n}\r\n\r\n//this contract is copied from openzeppelin ERC20 contract, but I altered some function to public\r\n//in order to make them available after it is instantialized in other contract\r\ncontract ERC20 is Context,IERC20, IERC20Metadata {\r\n    mapping(address => uint256) private _balances;\r\n\r\n    mapping(address => mapping(address => uint256)) private _allowances;\r\n\r\n  address private _owner;\r\n\r\n    uint256 private _totalSupply;\r\n\r\n    string private _name;\r\n    string private _symbol;\r\n\r\n    /**\r\n     * @dev Sets the values for {name} and {symbol}.\r\n     *\r\n     * The default value of {decimals} is 18. To select a different value for\r\n     * {decimals} you should overload it.\r\n     *\r\n     * All two of these values are immutable: they can only be set once during\r\n     * construction.\r\n     */\r\n    constructor(string memory name_, string memory symbol_,address tokenOwner) {\r\n        _name = name_;\r\n        _symbol = symbol_;\r\n        _owner=tokenOwner;\r\n    }\r\n\r\n/**\r\n     * @dev Returns the address of the current owner.\r\n     */\r\n    function owner() public view virtual returns (address) {\r\n        return _owner;\r\n    }\r\n\r\n    /**\r\n     * @dev Returns the name of the token.\r\n     */\r\n    function name() public view virtual override returns (string memory) {\r\n        return _name;\r\n    }\r\n\r\n    /**\r\n     * @dev Returns the symbol of the token, usually a shorter version of the\r\n     * name.\r\n     */\r\n    function symbol() public view virtual override returns (string memory) {\r\n        return _symbol;\r\n    }\r\n\r\n    /**\r\n     * @dev Returns the number of decimals used to get its user representation.\r\n     * For example, if `decimals` equals `2`, a balance of `505` tokens should\r\n     * be displayed to a user as `5.05` (`505 / 10 ** 2`).\r\n     *\r\n     * Tokens usually opt for a value of 18, imitating the relationship between\r\n     * Ether and Wei. This is the value {ERC20} uses, unless this function is\r\n     * overridden;\r\n     *\r\n     * NOTE: This information is only used for _display_ purposes: it in\r\n     * no way affects any of the arithmetic of the contract, including\r\n     * {IERC20-balanceOf} and {IERC20-transfer}.\r\n     */\r\n    function decimals() public view virtual override returns (uint8) {\r\n       return 1;\r\n    }\r\n\r\n    /**\r\n     * @dev See {IERC20-totalSupply}.\r\n     */\r\n    function totalSupply() public view virtual override returns (uint256) {\r\n        return _totalSupply;\r\n    }\r\n\r\n    /**\r\n     * @dev See {IERC20-balanceOf}.\r\n     */\r\n    function balanceOf(address account) public view virtual override returns (uint256) {\r\n        return _balances[account];\r\n    }\r\n\r\n    /**\r\n     * @dev See {IERC20-transfer}.\r\n     *\r\n     * Requirements:\r\n     *\r\n     * - `to` cannot be the zero address.\r\n     * - the caller must have a balance of at least `amount`.\r\n     */\r\n    function transfer(address to, uint256 amount) public virtual override returns (bool) {\r\n        //address owner = _msgSender();\r\n        _transfer(owner(), to, amount);\r\n        return true;\r\n    }\r\n\r\n    /**\r\n     * @dev See {IERC20-allowance}.\r\n     */\r\n    function allowance(address tokenOwner, address spender) public view virtual override returns (uint256) {\r\n        return _allowances[tokenOwner][spender];\r\n    }\r\n\r\n    /**\r\n     * @dev See {IERC20-approve}.\r\n     *\r\n     * NOTE: If `amount` is the maximum `uint256`, the allowance is not updated on\r\n     * `transferFrom`. This is semantically equivalent to an infinite approval.\r\n     *\r\n     * Requirements:\r\n     *\r\n     * - `spender` cannot be the zero address.\r\n     */\r\n    function approve(address spender, uint256 amount) public virtual override returns (bool) {\r\n        //address owner = _msgSender();\r\n        _approve(owner(), spender, amount);\r\n        return true;\r\n    }\r\n\r\n    /**\r\n     * @dev See {IERC20-transferFrom}.\r\n     *\r\n     * Emits an {Approval} event indicating the updated allowance. This is not\r\n     * required by the EIP. See the note at the beginning of {ERC20}.\r\n     *\r\n     * NOTE: Does not update the allowance if the current allowance\r\n     * is the maximum `uint256`.\r\n     *\r\n     * Requirements:\r\n     *\r\n     * - `from` and `to` cannot be the zero address.\r\n     * - `from` must have a balance of at least `amount`.\r\n     * - the caller must have allowance for ``from``'s tokens of at least\r\n     * `amount`.\r\n     */\r\n    function transferFrom(\r\n        address from,\r\n        address to,\r\n        uint256 amount\r\n    ) public virtual override returns (bool) {\r\n        address spender = _msgSender();\r\n        _spendAllowance(from, spender, amount);\r\n        _transfer(from, to, amount);\r\n        return true;\r\n    }\r\n\r\n    /**\r\n     * @dev Atomically increases the allowance granted to `spender` by the caller.\r\n     *\r\n     * This is an alternative to {approve} that can be used as a mitigation for\r\n     * problems described in {IERC20-approve}.\r\n     *\r\n     * Emits an {Approval} event indicating the updated allowance.\r\n     *\r\n     * Requirements:\r\n     *\r\n     * - `spender` cannot be the zero address.\r\n     */\r\n    function increaseAllowance(address spender, uint256 addedValue) public virtual returns (bool) {\r\n        //address owner = _msgSender();\r\n        _approve(owner(), spender, allowance(owner(), spender) + addedValue);\r\n        return true;\r\n    }\r\n\r\n    /**\r\n     * @dev Atomically decreases the allowance granted to `spender` by the caller.\r\n     *\r\n     * This is an alternative to {approve} that can be used as a mitigation for\r\n     * problems described in {IERC20-approve}.\r\n     *\r\n     * Emits an {Approval} event indicating the updated allowance.\r\n     *\r\n     * Requirements:\r\n     *\r\n     * - `spender` cannot be the zero address.\r\n     * - `spender` must have allowance for the caller of at least\r\n     * `subtractedValue`.\r\n     */\r\n    function decreaseAllowance(address spender, uint256 subtractedValue) public virtual returns (bool) {\r\n        //address owner = _msgSender();\r\n        uint256 currentAllowance = allowance(owner(), spender);\r\n        require(currentAllowance >= subtractedValue, \"ERC20: decreased allowance below zero\");\r\n        unchecked {\r\n            _approve(owner(), spender, currentAllowance - subtractedValue);\r\n        }\r\n\r\n        return true;\r\n    }\r\n\r\n    /**\r\n     * @dev Moves `amount` of tokens from `sender` to `recipient`.\r\n     *\r\n     * This internal function is equivalent to {transfer}, and can be used to\r\n     * e.g. implement automatic token fees, slashing mechanisms, etc.\r\n     *\r\n     * Emits a {Transfer} event.\r\n     *\r\n     * Requirements:\r\n     *\r\n     * - `from` cannot be the zero address.\r\n     * - `to` cannot be the zero address.\r\n     * - `from` must have a balance of at least `amount`.\r\n     */\r\n    function _transfer(\r\n        address from,\r\n        address to,\r\n        uint256 amount\r\n    ) internal virtual {\r\n        require(from != address(0), \"ERC20: transfer from the zero address\");\r\n        require(to != address(0), \"ERC20: transfer to the zero address\");\r\n\r\n        _beforeTokenTransfer(from, to, amount);\r\n\r\n        uint256 fromBalance = _balances[from];\r\n        require(fromBalance >= amount, \"ERC20: transfer amount exceeds balance\");\r\n        unchecked {\r\n            _balances[from] = fromBalance - amount;\r\n        }\r\n        _balances[to] += amount;\r\n\r\n        emit Transfer(from, to, amount);\r\n\r\n        _afterTokenTransfer(from, to, amount);\r\n    }\r\n\r\n    /** @dev Creates `amount` tokens and assigns them to `account`, increasing\r\n     * the total supply.\r\n     *\r\n     * Emits a {Transfer} event with `from` set to the zero address.\r\n     *\r\n     * Requirements:\r\n     *\r\n     * - `account` cannot be the zero address.\r\n     */\r\n    function _mint(address account, uint256 amount) public virtual {\r\n        require(account != address(0), \"ERC20: mint to the zero address\");\r\n\r\n        _beforeTokenTransfer(address(0), account, amount);\r\n\r\n        _totalSupply += amount;\r\n        _balances[account] += amount;\r\n        emit Transfer(address(0), account, amount);\r\n\r\n        _afterTokenTransfer(address(0), account, amount);\r\n    }\r\n\r\n    /**\r\n     * @dev Destroys `amount` tokens from `account`, reducing the\r\n     * total supply.\r\n     *\r\n     * Emits a {Transfer} event with `to` set to the zero address.\r\n     *\r\n     * Requirements:\r\n     *\r\n     * - `account` cannot be the zero address.\r\n     * - `account` must have at least `amount` tokens.\r\n     */\r\n    function _burn(address account, uint256 amount) internal virtual {\r\n        require(account != address(0), \"ERC20: burn from the zero address\");\r\n\r\n        _beforeTokenTransfer(account, address(0), amount);\r\n\r\n        uint256 accountBalance = _balances[account];\r\n        require(accountBalance >= amount, \"ERC20: burn amount exceeds balance\");\r\n        unchecked {\r\n            _balances[account] = accountBalance - amount;\r\n        }\r\n        _totalSupply -= amount;\r\n\r\n        emit Transfer(account, address(0), amount);\r\n\r\n        _afterTokenTransfer(account, address(0), amount);\r\n    }\r\n  function burn(address tokenOwner,uint256 amount) public virtual {\r\n        _burn(tokenOwner, amount);\r\n    }\r\n    /**\r\n     * @dev Sets `amount` as the allowance of `spender` over the `owner` s tokens.\r\n     *\r\n     * This internal function is equivalent to `approve`, and can be used to\r\n     * e.g. set automatic allowances for certain subsystems, etc.\r\n     *\r\n     * Emits an {Approval} event.\r\n     *\r\n     * Requirements:\r\n     *\r\n     * - `owner` cannot be the zero address.\r\n     * - `spender` cannot be the zero address.\r\n     */\r\n    function _approve(\r\n        address tokenOwner,\r\n        address spender,\r\n        uint256 amount\r\n    ) internal virtual {\r\n        require(tokenOwner != address(0), \"ERC20: approve from the zero address\");\r\n        require(spender != address(0), \"ERC20: approve to the zero address\");\r\n\r\n        _allowances[tokenOwner][spender] = amount;\r\n        emit Approval(tokenOwner, spender, amount);\r\n    }\r\n\r\n    /**\r\n     * @dev Updates `tokenOwner` s allowance for `spender` based on spent `amount`.\r\n     *\r\n     * Does not update the allowance amount in case of infinite allowance.\r\n     * Revert if not enough allowance is available.\r\n     *\r\n     * Might emit an {Approval} event.\r\n     */\r\n    function _spendAllowance(\r\n        address tokenOwner,\r\n        address spender,\r\n        uint256 amount\r\n    ) internal virtual {\r\n        uint256 currentAllowance = allowance(tokenOwner, spender);\r\n        if (currentAllowance != type(uint256).max) {\r\n            require(currentAllowance >= amount, \"ERC20: insufficient allowance\");\r\n            unchecked {\r\n                _approve(tokenOwner, spender, currentAllowance - amount);\r\n            }\r\n        }\r\n    }\r\n\r\n    /**\r\n     * @dev Hook that is called before any transfer of tokens. This includes\r\n     * minting and burning.\r\n     *\r\n     * Calling conditions:\r\n     *\r\n     * - when `from` and `to` are both non-zero, `amount` of ``from``'s tokens\r\n     * will be transferred to `to`.\r\n     * - when `from` is zero, `amount` tokens will be minted for `to`.\r\n     * - when `to` is zero, `amount` of ``from``'s tokens will be burned.\r\n     * - `from` and `to` are never both zero.\r\n     *\r\n     * To learn more about hooks, head to xref:ROOT:extending-contracts.adoc#using-hooks[Using Hooks].\r\n     */\r\n    function _beforeTokenTransfer(\r\n        address from,\r\n        address to,\r\n        uint256 amount\r\n    ) internal virtual {}\r\n\r\n    /**\r\n     * @dev Hook that is called after any transfer of tokens. This includes\r\n     * minting and burning.\r\n     *\r\n     * Calling conditions:\r\n     *\r\n     * - when `from` and `to` are both non-zero, `amount` of ``from``'s tokens\r\n     * has been transferred to `to`.\r\n     * - when `from` is zero, `amount` tokens have been minted for `to`.\r\n     * - when `to` is zero, `amount` of ``from``'s tokens have been burned.\r\n     * - `from` and `to` are never both zero.\r\n     *\r\n     * To learn more about hooks, head to xref:ROOT:extending-contracts.adoc#using-hooks[Using Hooks].\r\n     */\r\n    function _afterTokenTransfer(\r\n        address from,\r\n        address to,\r\n        uint256 amount\r\n    ) internal virtual {}\r\n}",
  "sourcePath": "D:\\My Project\\blockchain\\CouponFactory\\contracts\\CouponFactory.sol",
  "compiler": {
    "name": "solc",
    "version": "0.8.0+commit.c7dfd78e.Emscripten.clang"
  },
  "schemaVersion": "3.4.4",
  "updatedAt": "2022-05-04T12:45:55.697Z",
  "devdoc": {
    "kind": "dev",
    "methods": {
      "_mint(address,uint256)": {
        "details": "Creates `amount` tokens and assigns them to `account`, increasing the total supply. Emits a {Transfer} event with `from` set to the zero address. Requirements: - `account` cannot be the zero address."
      },
      "allowance(address,address)": {
        "details": "See {IERC20-allowance}."
      },
      "approve(address,uint256)": {
        "details": "See {IERC20-approve}. NOTE: If `amount` is the maximum `uint256`, the allowance is not updated on `transferFrom`. This is semantically equivalent to an infinite approval. Requirements: - `spender` cannot be the zero address."
      },
      "balanceOf(address)": {
        "details": "See {IERC20-balanceOf}."
      },
      "constructor": {
        "details": "Sets the values for {name} and {symbol}. The default value of {decimals} is 18. To select a different value for {decimals} you should overload it. All two of these values are immutable: they can only be set once during construction."
      },
      "decimals()": {
        "details": "Returns the number of decimals used to get its user representation. For example, if `decimals` equals `2`, a balance of `505` tokens should be displayed to a user as `5.05` (`505 / 10 ** 2`). Tokens usually opt for a value of 18, imitating the relationship between Ether and Wei. This is the value {ERC20} uses, unless this function is overridden; NOTE: This information is only used for _display_ purposes: it in no way affects any of the arithmetic of the contract, including {IERC20-balanceOf} and {IERC20-transfer}."
      },
      "decreaseAllowance(address,uint256)": {
        "details": "Atomically decreases the allowance granted to `spender` by the caller. This is an alternative to {approve} that can be used as a mitigation for problems described in {IERC20-approve}. Emits an {Approval} event indicating the updated allowance. Requirements: - `spender` cannot be the zero address. - `spender` must have allowance for the caller of at least `subtractedValue`."
      },
      "increaseAllowance(address,uint256)": {
        "details": "Atomically increases the allowance granted to `spender` by the caller. This is an alternative to {approve} that can be used as a mitigation for problems described in {IERC20-approve}. Emits an {Approval} event indicating the updated allowance. Requirements: - `spender` cannot be the zero address."
      },
      "name()": {
        "details": "Returns the name of the token."
      },
      "owner()": {
        "details": "Returns the address of the current owner."
      },
      "symbol()": {
        "details": "Returns the symbol of the token, usually a shorter version of the name."
      },
      "totalSupply()": {
        "details": "See {IERC20-totalSupply}."
      },
      "transfer(address,uint256)": {
        "details": "See {IERC20-transfer}. Requirements: - `to` cannot be the zero address. - the caller must have a balance of at least `amount`."
      },
      "transferFrom(address,address,uint256)": {
        "details": "See {IERC20-transferFrom}. Emits an {Approval} event indicating the updated allowance. This is not required by the EIP. See the note at the beginning of {ERC20}. NOTE: Does not update the allowance if the current allowance is the maximum `uint256`. Requirements: - `from` and `to` cannot be the zero address. - `from` must have a balance of at least `amount`. - the caller must have allowance for ``from``'s tokens of at least `amount`."
      }
    },
    "version": 1
  },
  "userdoc": {
    "kind": "user",
    "methods": {},
    "version": 1
  }
}